{
  "_format": "hh-sol-artifact-1",
  "contractName": "SimpleAIOracle",
  "sourceName": "contracts/AIOracle.sol",
  "abi": [
    {
      "inputs": [],
      "stateMutability": "nonpayable",
      "type": "constructor"
    },
    {
      "inputs": [
        {
          "internalType": "address",
          "name": "owner",
          "type": "address"
        }
      ],
      "name": "OwnableInvalidOwner",
      "type": "error"
    },
    {
      "inputs": [
        {
          "internalType": "address",
          "name": "account",
          "type": "address"
        }
      ],
      "name": "OwnableUnauthorizedAccount",
      "type": "error"
    },
    {
      "anonymous": false,
      "inputs": [
        {
          "indexed": true,
          "internalType": "string",
          "name": "symbol",
          "type": "string"
        },
        {
          "indexed": true,
          "internalType": "string",
          "name": "dataType",
          "type": "string"
        },
        {
          "indexed": false,
          "internalType": "uint256",
          "name": "predictedPrice",
          "type": "uint256"
        },
        {
          "indexed": false,
          "internalType": "uint256",
          "name": "confidence",
          "type": "uint256"
        },
        {
          "indexed": false,
          "internalType": "string",
          "name": "outlook",
          "type": "string"
        }
      ],
      "name": "AIDataUpdated",
      "type": "event"
    },
    {
      "anonymous": false,
      "inputs": [
        {
          "indexed": true,
          "internalType": "address",
          "name": "previousOwner",
          "type": "address"
        },
        {
          "indexed": true,
          "internalType": "address",
          "name": "newOwner",
          "type": "address"
        }
      ],
      "name": "OwnershipTransferred",
      "type": "event"
    },
    {
      "inputs": [
        {
          "internalType": "address",
          "name": "agent",
          "type": "address"
        }
      ],
      "name": "addAuthorizedAgent",
      "outputs": [],
      "stateMutability": "nonpayable",
      "type": "function"
    },
    {
      "inputs": [
        {
          "internalType": "string",
          "name": "",
          "type": "string"
        },
        {
          "internalType": "string",
          "name": "",
          "type": "string"
        }
      ],
      "name": "aiData",
      "outputs": [
        {
          "internalType": "string",
          "name": "symbol",
          "type": "string"
        },
        {
          "internalType": "uint256",
          "name": "currentPrice",
          "type": "uint256"
        },
        {
          "internalType": "uint256",
          "name": "predictedPrice",
          "type": "uint256"
        },
        {
          "internalType": "uint256",
          "name": "sentimentScore",
          "type": "uint256"
        },
        {
          "internalType": "string",
          "name": "outlook",
          "type": "string"
        },
        {
          "internalType": "uint256",
          "name": "confidence",
          "type": "uint256"
        },
        {
          "internalType": "uint256",
          "name": "timestamp",
          "type": "uint256"
        },
        {
          "internalType": "string",
          "name": "dataType",
          "type": "string"
        }
      ],
      "stateMutability": "view",
      "type": "function"
    },
    {
      "inputs": [
        {
          "internalType": "address",
          "name": "",
          "type": "address"
        }
      ],
      "name": "authorizedAgents",
      "outputs": [
        {
          "internalType": "bool",
          "name": "",
          "type": "bool"
        }
      ],
      "stateMutability": "view",
      "type": "function"
    },
    {
      "inputs": [
        {
          "internalType": "string",
          "name": "symbol",
          "type": "string"
        },
        {
          "internalType": "string",
          "name": "dataType",
          "type": "string"
        }
      ],
      "name": "getAIData",
      "outputs": [
        {
          "components": [
            {
              "internalType": "string",
              "name": "symbol",
              "type": "string"
            },
            {
              "internalType": "uint256",
              "name": "currentPrice",
              "type": "uint256"
            },
            {
              "internalType": "uint256",
              "name": "predictedPrice",
              "type": "uint256"
            },
            {
              "internalType": "uint256",
              "name": "sentimentScore",
              "type": "uint256"
            },
            {
              "internalType": "string",
              "name": "outlook",
              "type": "string"
            },
            {
              "internalType": "uint256",
              "name": "confidence",
              "type": "uint256"
            },
            {
              "internalType": "uint256",
              "name": "timestamp",
              "type": "uint256"
            },
            {
              "internalType": "string",
              "name": "dataType",
              "type": "string"
            }
          ],
          "internalType": "struct SimpleAIOracle.AIData",
          "name": "",
          "type": "tuple"
        }
      ],
      "stateMutability": "view",
      "type": "function"
    },
    {
      "inputs": [
        {
          "internalType": "string",
          "name": "symbol",
          "type": "string"
        }
      ],
      "name": "getAllAIData",
      "outputs": [
        {
          "components": [
            {
              "internalType": "string",
              "name": "symbol",
              "type": "string"
            },
            {
              "internalType": "uint256",
              "name": "currentPrice",
              "type": "uint256"
            },
            {
              "internalType": "uint256",
              "name": "predictedPrice",
              "type": "uint256"
            },
            {
              "internalType": "uint256",
              "name": "sentimentScore",
              "type": "uint256"
            },
            {
              "internalType": "string",
              "name": "outlook",
              "type": "string"
            },
            {
              "internalType": "uint256",
              "name": "confidence",
              "type": "uint256"
            },
            {
              "internalType": "uint256",
              "name": "timestamp",
              "type": "uint256"
            },
            {
              "internalType": "string",
              "name": "dataType",
              "type": "string"
            }
          ],
          "internalType": "struct SimpleAIOracle.AIData",
          "name": "market",
          "type": "tuple"
        },
        {
          "components": [
            {
              "internalType": "string",
              "name": "symbol",
              "type": "string"
            },
            {
              "internalType": "uint256",
              "name": "currentPrice",
              "type": "uint256"
            },
            {
              "internalType": "uint256",
              "name": "predictedPrice",
              "type": "uint256"
            },
            {
              "internalType": "uint256",
              "name": "sentimentScore",
              "type": "uint256"
            },
            {
              "internalType": "string",
              "name": "outlook",
              "type": "string"
            },
            {
              "internalType": "uint256",
              "name": "confidence",
              "type": "uint256"
            },
            {
              "internalType": "uint256",
              "name": "timestamp",
              "type": "uint256"
            },
            {
              "internalType": "string",
              "name": "dataType",
              "type": "string"
            }
          ],
          "internalType": "struct SimpleAIOracle.AIData",
          "name": "technical",
          "type": "tuple"
        },
        {
          "components": [
            {
              "internalType": "string",
              "name": "symbol",
              "type": "string"
            },
            {
              "internalType": "uint256",
              "name": "currentPrice",
              "type": "uint256"
            },
            {
              "internalType": "uint256",
              "name": "predictedPrice",
              "type": "uint256"
            },
            {
              "internalType": "uint256",
              "name": "sentimentScore",
              "type": "uint256"
            },
            {
              "internalType": "string",
              "name": "outlook",
              "type": "string"
            },
            {
              "internalType": "uint256",
              "name": "confidence",
              "type": "uint256"
            },
            {
              "internalType": "uint256",
              "name": "timestamp",
              "type": "uint256"
            },
            {
              "internalType": "string",
              "name": "dataType",
              "type": "string"
            }
          ],
          "internalType": "struct SimpleAIOracle.AIData",
          "name": "social",
          "type": "tuple"
        },
        {
          "components": [
            {
              "internalType": "string",
              "name": "symbol",
              "type": "string"
            },
            {
              "internalType": "uint256",
              "name": "currentPrice",
              "type": "uint256"
            },
            {
              "internalType": "uint256",
              "name": "predictedPrice",
              "type": "uint256"
            },
            {
              "internalType": "uint256",
              "name": "sentimentScore",
              "type": "uint256"
            },
            {
              "internalType": "string",
              "name": "outlook",
              "type": "string"
            },
            {
              "internalType": "uint256",
              "name": "confidence",
              "type": "uint256"
            },
            {
              "internalType": "uint256",
              "name": "timestamp",
              "type": "uint256"
            },
            {
              "internalType": "string",
              "name": "dataType",
              "type": "string"
            }
          ],
          "internalType": "struct SimpleAIOracle.AIData",
          "name": "strategy",
          "type": "tuple"
        }
      ],
      "stateMutability": "view",
      "type": "function"
    },
    {
      "inputs": [],
      "name": "owner",
      "outputs": [
        {
          "internalType": "address",
          "name": "",
          "type": "address"
        }
      ],
      "stateMutability": "view",
      "type": "function"
    },
    {
      "inputs": [],
      "name": "renounceOwnership",
      "outputs": [],
      "stateMutability": "nonpayable",
      "type": "function"
    },
    {
      "inputs": [],
      "name": "totalUpdates",
      "outputs": [
        {
          "internalType": "uint256",
          "name": "",
          "type": "uint256"
        }
      ],
      "stateMutability": "view",
      "type": "function"
    },
    {
      "inputs": [
        {
          "internalType": "address",
          "name": "newOwner",
          "type": "address"
        }
      ],
      "name": "transferOwnership",
      "outputs": [],
      "stateMutability": "nonpayable",
      "type": "function"
    },
    {
      "inputs": [
        {
          "internalType": "string",
          "name": "symbol",
          "type": "string"
        },
        {
          "internalType": "string",
          "name": "dataType",
          "type": "string"
        },
        {
          "internalType": "uint256",
          "name": "currentPrice",
          "type": "uint256"
        },
        {
          "internalType": "uint256",
          "name": "predictedPrice",
          "type": "uint256"
        },
        {
          "internalType": "uint256",
          "name": "sentimentScore",
          "type": "uint256"
        },
        {
          "internalType": "string",
          "name": "outlook",
          "type": "string"
        },
        {
          "internalType": "uint256",
          "name": "confidence",
          "type": "uint256"
        }
      ],
      "name": "updateAIData",
      "outputs": [],
      "stateMutability": "nonpayable",
      "type": "function"
    }
  ],
  "bytecode": "0x6080604052348015600f57600080fd5b503380603557604051631e4fbdf760e01b81526000600482015260240160405180910390fd5b603c816041565b506091565b600080546001600160a01b038381166001600160a01b0319831681178455604051919092169283917f8be0079c531659141344cd1fd0a4f28419497f9722a3daafe3b4186f6b6457e09190a35050565b6117ce806100a06000396000f3fe608060405234801561001057600080fd5b506004361061009e5760003560e01c80638da5cb5b116100665780638da5cb5b1461011f578063efd760651461013a578063f2fde38b1461016d578063f412958b14610180578063f428eca6146101a757600080fd5b80631b369491146100a357806326d7be40146100bf5780632eab6f3e146100d4578063715018a6146100f7578063858ac134146100ff575b600080fd5b6100ac60035481565b6040519081526020015b60405180910390f35b6100d26100cd36600461120d565b6101ba565b005b6100e76100e23660046112e2565b6101e6565b6040516100b694939291906113f4565b6100d2610aea565b61011261010d36600461144c565b610afe565b6040516100b691906114b5565b6000546040516001600160a01b0390911681526020016100b6565b61015d61014836600461120d565b60026020526000908152604090205460ff1681565b60405190151581526020016100b6565b6100d261017b36600461120d565b610d3c565b61019361018e36600461144c565b610d7f565b6040516100b69897969594939291906114c8565b6100d26101b5366004611530565b610f7f565b6101c261114b565b6001600160a01b03166000908152600260205260409020805460ff19166001179055565b6101ee6111c8565b6101f66111c8565b6101fe6111c8565b6102066111c8565b60018560405161021691906115ee565b908152604051908190036020018120651b585c9ad95d60d21b825290600601908152602001604051809103902060018660405161025391906115ee565b908152604051908190036020018120681d1958da1b9a58d85b60ba1b825290600901908152602001604051809103902060018760405161029391906115ee565b908152604051908190036020018120651cdbd8da585b60d21b82529060060190815260200160405180910390206001886040516102d091906115ee565b90815260405190819003602001812067737472617465677960c01b8252906008019081526020016040518091039020836040518061010001604052908160008201805461031c9061160a565b80601f01602080910402602001604051908101604052809291908181526020018280546103489061160a565b80156103955780601f1061036a57610100808354040283529160200191610395565b820191906000526020600020905b81548152906001019060200180831161037857829003601f168201915b505050505081526020016001820154815260200160028201548152602001600382015481526020016004820180546103cc9061160a565b80601f01602080910402602001604051908101604052809291908181526020018280546103f89061160a565b80156104455780601f1061041a57610100808354040283529160200191610445565b820191906000526020600020905b81548152906001019060200180831161042857829003601f168201915b5050505050815260200160058201548152602001600682015481526020016007820180546104729061160a565b80601f016020809104026020016040519081016040528092919081815260200182805461049e9061160a565b80156104eb5780601f106104c0576101008083540402835291602001916104eb565b820191906000526020600020905b8154815290600101906020018083116104ce57829003601f168201915b505050505081525050935082604051806101000160405290816000820180546105139061160a565b80601f016020809104026020016040519081016040528092919081815260200182805461053f9061160a565b801561058c5780601f106105615761010080835404028352916020019161058c565b820191906000526020600020905b81548152906001019060200180831161056f57829003601f168201915b505050505081526020016001820154815260200160028201548152602001600382015481526020016004820180546105c39061160a565b80601f01602080910402602001604051908101604052809291908181526020018280546105ef9061160a565b801561063c5780601f106106115761010080835404028352916020019161063c565b820191906000526020600020905b81548152906001019060200180831161061f57829003601f168201915b5050505050815260200160058201548152602001600682015481526020016007820180546106699061160a565b80601f01602080910402602001604051908101604052809291908181526020018280546106959061160a565b80156106e25780601f106106b7576101008083540402835291602001916106e2565b820191906000526020600020905b8154815290600101906020018083116106c557829003601f168201915b5050505050815250509250816040518061010001604052908160008201805461070a9061160a565b80601f01602080910402602001604051908101604052809291908181526020018280546107369061160a565b80156107835780601f1061075857610100808354040283529160200191610783565b820191906000526020600020905b81548152906001019060200180831161076657829003601f168201915b505050505081526020016001820154815260200160028201548152602001600382015481526020016004820180546107ba9061160a565b80601f01602080910402602001604051908101604052809291908181526020018280546107e69061160a565b80156108335780601f1061080857610100808354040283529160200191610833565b820191906000526020600020905b81548152906001019060200180831161081657829003601f168201915b5050505050815260200160058201548152602001600682015481526020016007820180546108609061160a565b80601f016020809104026020016040519081016040528092919081815260200182805461088c9061160a565b80156108d95780601f106108ae576101008083540402835291602001916108d9565b820191906000526020600020905b8154815290600101906020018083116108bc57829003601f168201915b505050505081525050915080604051806101000160405290816000820180546109019061160a565b80601f016020809104026020016040519081016040528092919081815260200182805461092d9061160a565b801561097a5780601f1061094f5761010080835404028352916020019161097a565b820191906000526020600020905b81548152906001019060200180831161095d57829003601f168201915b505050505081526020016001820154815260200160028201548152602001600382015481526020016004820180546109b19061160a565b80601f01602080910402602001604051908101604052809291908181526020018280546109dd9061160a565b8015610a2a5780601f106109ff57610100808354040283529160200191610a2a565b820191906000526020600020905b815481529060010190602001808311610a0d57829003601f168201915b505050505081526020016005820154815260200160068201548152602001600782018054610a579061160a565b80601f0160208091040260200160405190810160405280929190818152602001828054610a839061160a565b8015610ad05780601f10610aa557610100808354040283529160200191610ad0565b820191906000526020600020905b815481529060010190602001808311610ab357829003601f168201915b505050505081525050905093509350935093509193509193565b610af261114b565b610afc6000611178565b565b610b066111c8565b600183604051610b1691906115ee565b908152602001604051809103902082604051610b3291906115ee565b908152602001604051809103902060405180610100016040529081600082018054610b5c9061160a565b80601f0160208091040260200160405190810160405280929190818152602001828054610b889061160a565b8015610bd55780601f10610baa57610100808354040283529160200191610bd5565b820191906000526020600020905b815481529060010190602001808311610bb857829003601f168201915b50505050508152602001600182015481526020016002820154815260200160038201548152602001600482018054610c0c9061160a565b80601f0160208091040260200160405190810160405280929190818152602001828054610c389061160a565b8015610c855780601f10610c5a57610100808354040283529160200191610c85565b820191906000526020600020905b815481529060010190602001808311610c6857829003601f168201915b505050505081526020016005820154815260200160068201548152602001600782018054610cb29061160a565b80601f0160208091040260200160405190810160405280929190818152602001828054610cde9061160a565b8015610d2b5780601f10610d0057610100808354040283529160200191610d2b565b820191906000526020600020905b815481529060010190602001808311610d0e57829003601f168201915b505050505081525050905092915050565b610d4461114b565b6001600160a01b038116610d7357604051631e4fbdf760e01b8152600060048201526024015b60405180910390fd5b610d7c81611178565b50565b81516020818401810180516001825292820194820194909420919093528151808301840180519281529084019290930191909120915280548190610dc29061160a565b80601f0160208091040260200160405190810160405280929190818152602001828054610dee9061160a565b8015610e3b5780601f10610e1057610100808354040283529160200191610e3b565b820191906000526020600020905b815481529060010190602001808311610e1e57829003601f168201915b505050505090806001015490806002015490806003015490806004018054610e629061160a565b80601f0160208091040260200160405190810160405280929190818152602001828054610e8e9061160a565b8015610edb5780601f10610eb057610100808354040283529160200191610edb565b820191906000526020600020905b815481529060010190602001808311610ebe57829003601f168201915b505050505090806005015490806006015490806007018054610efc9061160a565b80601f0160208091040260200160405190810160405280929190818152602001828054610f289061160a565b8015610f755780601f10610f4a57610100808354040283529160200191610f75565b820191906000526020600020905b815481529060010190602001808311610f5857829003601f168201915b5050505050905088565b3360009081526002602052604090205460ff1680610fa757506000546001600160a01b031633145b610fe45760405162461bcd60e51b815260206004820152600e60248201526d139bdd08185d5d1a1bdc9a5e995960921b6044820152606401610d6a565b6040518061010001604052808881526020018681526020018581526020018481526020018381526020018281526020014281526020018781525060018860405161102e91906115ee565b90815260200160405180910390208760405161104a91906115ee565b908152604051908190036020019020815181906110679082611693565b506020820151600182015560408201516002820155606082015160038201556080820151600482019061109a9082611693565b5060a0820151600582015560c0820151600682015560e082015160078201906110c39082611693565b505060038054915060006110d683611752565b9190505550856040516110e991906115ee565b6040518091039020876040516110ff91906115ee565b60405180910390207fe1fbc811e094d586e0a53b73333dbe068458ecb0f22571f60c0310e4e054e67986848660405161113a93929190611779565b60405180910390a350505050505050565b6000546001600160a01b03163314610afc5760405163118cdaa760e01b8152336004820152602401610d6a565b600080546001600160a01b038381166001600160a01b0319831681178455604051919092169283917f8be0079c531659141344cd1fd0a4f28419497f9722a3daafe3b4186f6b6457e09190a35050565b60405180610100016040528060608152602001600081526020016000815260200160008152602001606081526020016000815260200160008152602001606081525090565b60006020828403121561121f57600080fd5b81356001600160a01b038116811461123657600080fd5b9392505050565b634e487b7160e01b600052604160045260246000fd5b600082601f83011261126457600080fd5b813567ffffffffffffffff81111561127e5761127e61123d565b604051601f8201601f19908116603f0116810167ffffffffffffffff811182821017156112ad576112ad61123d565b6040528181528382016020018510156112c557600080fd5b816020850160208301376000918101602001919091529392505050565b6000602082840312156112f457600080fd5b813567ffffffffffffffff81111561130b57600080fd5b61131784828501611253565b949350505050565b60005b8381101561133a578181015183820152602001611322565b50506000910152565b6000815180845261135b81602086016020860161131f565b601f01601f19169290920160200192915050565b600081516101008452611386610100850182611343565b9050602083015160208501526040830151604085015260608301516060850152608083015184820360808601526113bd8282611343565b91505060a083015160a085015260c083015160c085015260e083015184820360e08601526113eb8282611343565b95945050505050565b608081526000611407608083018761136f565b8281036020840152611419818761136f565b9050828103604084015261142d818661136f565b90508281036060840152611441818561136f565b979650505050505050565b6000806040838503121561145f57600080fd5b823567ffffffffffffffff81111561147657600080fd5b61148285828601611253565b925050602083013567ffffffffffffffff81111561149f57600080fd5b6114ab85828601611253565b9150509250929050565b602081526000611236602083018461136f565b610100815260006114dd61010083018b611343565b89602084015288604084015287606084015282810360808401526115018188611343565b90508560a08401528460c084015282810360e08401526115218185611343565b9b9a5050505050505050505050565b600080600080600080600060e0888a03121561154b57600080fd5b873567ffffffffffffffff81111561156257600080fd5b61156e8a828b01611253565b975050602088013567ffffffffffffffff81111561158b57600080fd5b6115978a828b01611253565b96505060408801359450606088013593506080880135925060a088013567ffffffffffffffff8111156115c957600080fd5b6115d58a828b01611253565b979a969950949793969295929450505060c09091013590565b6000825161160081846020870161131f565b9190910192915050565b600181811c9082168061161e57607f821691505b60208210810361163e57634e487b7160e01b600052602260045260246000fd5b50919050565b601f82111561168e57806000526020600020601f840160051c8101602085101561166b5750805b601f840160051c820191505b8181101561168b5760008155600101611677565b50505b505050565b815167ffffffffffffffff8111156116ad576116ad61123d565b6116c1816116bb845461160a565b84611644565b6020601f8211600181146116f557600083156116dd5750848201515b600019600385901b1c1916600184901b17845561168b565b600084815260208120601f198516915b828110156117255787850151825560209485019460019092019101611705565b50848210156117435786840151600019600387901b60f8161c191681555b50505050600190811b01905550565b60006001820161177257634e487b7160e01b600052601160045260246000fd5b5060010190565b8381528260208201526060604082015260006113eb606083018461134356fea2646970667358221220f246ae509dbd2dd55f130f20362cd4b3dedb65ff3f7bbd6f38c5499d1c2ee51764736f6c634300081a0033",
  "linkReferences": {},
  "deployedLinkReferences": {}
}