{
  "_format": "hh-sol-artifact-1",
  "contractName": "SocialFiCore",
  "sourceName": "contracts/SocialFiCore.sol",
  "abi": [
    {
      "inputs": [
        {
          "internalType": "address",
          "name": "_guiToken",
          "type": "address"
        },
        {
          "internalType": "address",
          "name": "_aiOracle",
          "type": "address"
        }
      ],
      "stateMutability": "nonpayable",
      "type": "constructor"
    },
    {
      "inputs": [
        {
          "internalType": "address",
          "name": "owner",
          "type": "address"
        }
      ],
      "name": "OwnableInvalidOwner",
      "type": "error"
    },
    {
      "inputs": [
        {
          "internalType": "address",
          "name": "account",
          "type": "address"
        }
      ],
      "name": "OwnableUnauthorizedAccount",
      "type": "error"
    },
    {
      "anonymous": false,
      "inputs": [
        {
          "indexed": true,
          "internalType": "address",
          "name": "previousOwner",
          "type": "address"
        },
        {
          "indexed": true,
          "internalType": "address",
          "name": "newOwner",
          "type": "address"
        }
      ],
      "name": "OwnershipTransferred",
      "type": "event"
    },
    {
      "anonymous": false,
      "inputs": [
        {
          "indexed": true,
          "internalType": "uint256",
          "name": "postId",
          "type": "uint256"
        },
        {
          "indexed": true,
          "internalType": "address",
          "name": "author",
          "type": "address"
        },
        {
          "indexed": false,
          "internalType": "uint256",
          "name": "aiSentiment",
          "type": "uint256"
        }
      ],
      "name": "PostCreated",
      "type": "event"
    },
    {
      "anonymous": false,
      "inputs": [
        {
          "indexed": true,
          "internalType": "uint256",
          "name": "postId",
          "type": "uint256"
        },
        {
          "indexed": true,
          "internalType": "address",
          "name": "liker",
          "type": "address"
        }
      ],
      "name": "PostLiked",
      "type": "event"
    },
    {
      "inputs": [],
      "name": "LIKE_REWARD",
      "outputs": [
        {
          "internalType": "uint256",
          "name": "",
          "type": "uint256"
        }
      ],
      "stateMutability": "view",
      "type": "function"
    },
    {
      "inputs": [],
      "name": "POST_REWARD",
      "outputs": [
        {
          "internalType": "uint256",
          "name": "",
          "type": "uint256"
        }
      ],
      "stateMutability": "view",
      "type": "function"
    },
    {
      "inputs": [],
      "name": "aiOracle",
      "outputs": [
        {
          "internalType": "address",
          "name": "",
          "type": "address"
        }
      ],
      "stateMutability": "view",
      "type": "function"
    },
    {
      "inputs": [
        {
          "internalType": "string",
          "name": "content",
          "type": "string"
        }
      ],
      "name": "createPost",
      "outputs": [],
      "stateMutability": "nonpayable",
      "type": "function"
    },
    {
      "inputs": [
        {
          "internalType": "uint256",
          "name": "amount",
          "type": "uint256"
        }
      ],
      "name": "fundRewards",
      "outputs": [],
      "stateMutability": "nonpayable",
      "type": "function"
    },
    {
      "inputs": [
        {
          "internalType": "uint256",
          "name": "postId",
          "type": "uint256"
        }
      ],
      "name": "getPost",
      "outputs": [
        {
          "components": [
            {
              "internalType": "uint256",
              "name": "id",
              "type": "uint256"
            },
            {
              "internalType": "address",
              "name": "author",
              "type": "address"
            },
            {
              "internalType": "string",
              "name": "content",
              "type": "string"
            },
            {
              "internalType": "uint256",
              "name": "timestamp",
              "type": "uint256"
            },
            {
              "internalType": "uint256",
              "name": "likes",
              "type": "uint256"
            },
            {
              "internalType": "uint256",
              "name": "aiSentimentScore",
              "type": "uint256"
            },
            {
              "internalType": "bool",
              "name": "isAIGenerated",
              "type": "bool"
            }
          ],
          "internalType": "struct SocialFiCore.Post",
          "name": "",
          "type": "tuple"
        }
      ],
      "stateMutability": "view",
      "type": "function"
    },
    {
      "inputs": [
        {
          "internalType": "uint256",
          "name": "count",
          "type": "uint256"
        }
      ],
      "name": "getRecentPosts",
      "outputs": [
        {
          "internalType": "uint256[]",
          "name": "",
          "type": "uint256[]"
        }
      ],
      "stateMutability": "view",
      "type": "function"
    },
    {
      "inputs": [],
      "name": "getRewardBalance",
      "outputs": [
        {
          "internalType": "uint256",
          "name": "",
          "type": "uint256"
        }
      ],
      "stateMutability": "view",
      "type": "function"
    },
    {
      "inputs": [],
      "name": "getTotalPosts",
      "outputs": [
        {
          "internalType": "uint256",
          "name": "",
          "type": "uint256"
        }
      ],
      "stateMutability": "view",
      "type": "function"
    },
    {
      "inputs": [
        {
          "internalType": "address",
          "name": "user",
          "type": "address"
        }
      ],
      "name": "getUserPosts",
      "outputs": [
        {
          "internalType": "uint256[]",
          "name": "",
          "type": "uint256[]"
        }
      ],
      "stateMutability": "view",
      "type": "function"
    },
    {
      "inputs": [
        {
          "internalType": "address",
          "name": "user",
          "type": "address"
        }
      ],
      "name": "getUserProfile",
      "outputs": [
        {
          "components": [
            {
              "internalType": "address",
              "name": "userAddress",
              "type": "address"
            },
            {
              "internalType": "uint256",
              "name": "totalPosts",
              "type": "uint256"
            },
            {
              "internalType": "uint256",
              "name": "socialScore",
              "type": "uint256"
            },
            {
              "internalType": "uint256",
              "name": "aiAlignmentScore",
              "type": "uint256"
            }
          ],
          "internalType": "struct SocialFiCore.UserProfile",
          "name": "",
          "type": "tuple"
        }
      ],
      "stateMutability": "view",
      "type": "function"
    },
    {
      "inputs": [],
      "name": "guiToken",
      "outputs": [
        {
          "internalType": "address",
          "name": "",
          "type": "address"
        }
      ],
      "stateMutability": "view",
      "type": "function"
    },
    {
      "inputs": [
        {
          "internalType": "address",
          "name": "",
          "type": "address"
        },
        {
          "internalType": "uint256",
          "name": "",
          "type": "uint256"
        }
      ],
      "name": "hasLikedPost",
      "outputs": [
        {
          "internalType": "bool",
          "name": "",
          "type": "bool"
        }
      ],
      "stateMutability": "view",
      "type": "function"
    },
    {
      "inputs": [
        {
          "internalType": "uint256",
          "name": "postId",
          "type": "uint256"
        }
      ],
      "name": "likePost",
      "outputs": [],
      "stateMutability": "nonpayable",
      "type": "function"
    },
    {
      "inputs": [],
      "name": "nextPostId",
      "outputs": [
        {
          "internalType": "uint256",
          "name": "",
          "type": "uint256"
        }
      ],
      "stateMutability": "view",
      "type": "function"
    },
    {
      "inputs": [],
      "name": "owner",
      "outputs": [
        {
          "internalType": "address",
          "name": "",
          "type": "address"
        }
      ],
      "stateMutability": "view",
      "type": "function"
    },
    {
      "inputs": [
        {
          "internalType": "uint256",
          "name": "",
          "type": "uint256"
        }
      ],
      "name": "posts",
      "outputs": [
        {
          "internalType": "uint256",
          "name": "id",
          "type": "uint256"
        },
        {
          "internalType": "address",
          "name": "author",
          "type": "address"
        },
        {
          "internalType": "string",
          "name": "content",
          "type": "string"
        },
        {
          "internalType": "uint256",
          "name": "timestamp",
          "type": "uint256"
        },
        {
          "internalType": "uint256",
          "name": "likes",
          "type": "uint256"
        },
        {
          "internalType": "uint256",
          "name": "aiSentimentScore",
          "type": "uint256"
        },
        {
          "internalType": "bool",
          "name": "isAIGenerated",
          "type": "bool"
        }
      ],
      "stateMutability": "view",
      "type": "function"
    },
    {
      "inputs": [],
      "name": "renounceOwnership",
      "outputs": [],
      "stateMutability": "nonpayable",
      "type": "function"
    },
    {
      "inputs": [
        {
          "internalType": "address",
          "name": "newOwner",
          "type": "address"
        }
      ],
      "name": "transferOwnership",
      "outputs": [],
      "stateMutability": "nonpayable",
      "type": "function"
    },
    {
      "inputs": [
        {
          "internalType": "address",
          "name": "",
          "type": "address"
        },
        {
          "internalType": "uint256",
          "name": "",
          "type": "uint256"
        }
      ],
      "name": "userPosts",
      "outputs": [
        {
          "internalType": "uint256",
          "name": "",
          "type": "uint256"
        }
      ],
      "stateMutability": "view",
      "type": "function"
    },
    {
      "inputs": [
        {
          "internalType": "address",
          "name": "",
          "type": "address"
        }
      ],
      "name": "userProfiles",
      "outputs": [
        {
          "internalType": "address",
          "name": "userAddress",
          "type": "address"
        },
        {
          "internalType": "uint256",
          "name": "totalPosts",
          "type": "uint256"
        },
        {
          "internalType": "uint256",
          "name": "socialScore",
          "type": "uint256"
        },
        {
          "internalType": "uint256",
          "name": "aiAlignmentScore",
          "type": "uint256"
        }
      ],
      "stateMutability": "view",
      "type": "function"
    }
  ],
  "bytecode": "0x6080604052600160075534801561001557600080fd5b506040516115e93803806115e983398101604081905261003491610101565b338061005a57604051631e4fbdf760e01b81526000600482015260240160405180910390fd5b61006381610095565b50600180546001600160a01b039384166001600160a01b03199182161790915560028054929093169116179055610134565b600080546001600160a01b038381166001600160a01b0319831681178455604051919092169283917f8be0079c531659141344cd1fd0a4f28419497f9722a3daafe3b4186f6b6457e09190a35050565b80516001600160a01b03811681146100fc57600080fd5b919050565b6000806040838503121561011457600080fd5b61011d836100e5565b915061012b602084016100e5565b90509250929050565b6114a6806101436000396000f3fe608060405234801561001057600080fd5b50600436106101375760003560e01c80638064d149116100b85780639a2194a91161007c5780639a2194a91461030b578063c66a7ca71461032b578063c7303c611461033e578063e9a9f05114610351578063f0f8d4f11461038f578063f2fde38b1461039e57600080fd5b80638064d149146102725780638da5cb5b1461028557806393707a1914610296578063987ee156146102a9578063993c44f0146102f857600080fd5b80635c09bd98116100ff5780635c09bd981461023c5780635e42b455146102455780635fe226b41461024d578063715018a614610255578063725009d31461025f57600080fd5b80630b1e7f831461013c57806312ec26771461016b57806331b221cd14610188578063332d56d7146101b357806340731c241461021c575b600080fd5b61014f61014a366004610fcb565b6103b1565b604051610162979695949392919061102a565b60405180910390f35b61017a678ac7230489e8000081565b604051908152602001610162565b60025461019b906001600160a01b031681565b6040516001600160a01b039091168152602001610162565b6101f26101c1366004611098565b60046020526000908152604090208054600182015460028301546003909301546001600160a01b0390921692909184565b604080516001600160a01b0390951685526020850193909352918301526060820152608001610162565b61022f61022a366004610fcb565b610482565b60405161016291906110ba565b61017a60075481565b61017a6105cd565b61017a61063f565b61025d610650565b005b61025d61026d366004610fcb565b610664565b61017a610280366004611129565b61095d565b6000546001600160a01b031661019b565b61025d6102a4366004610fcb565b61098e565b6102bc6102b7366004611098565b610a15565b604051610162919081516001600160a01b0316815260208083015190820152604080830151908201526060918201519181019190915260800190565b60015461019b906001600160a01b031681565b61031e610319366004611098565b610a9a565b6040516101629190611153565b61031e610339366004610fcb565b610b06565b61025d61034c3660046111ac565b610bb8565b61037f61035f366004611129565b600660209081526000928352604080842090915290825290205460ff1681565b6040519015158152602001610162565b61017a670de0b6b3a764000081565b61025d6103ac366004611098565b610f10565b60036020526000908152604090208054600182015460028301805492936001600160a01b03909216926103e390611265565b80601f016020809104026020016040519081016040528092919081815260200182805461040f90611265565b801561045c5780601f106104315761010080835404028352916020019161045c565b820191906000526020600020905b81548152906001019060200180831161043f57829003601f168201915b505050506003830154600484015460058501546006909501549394919390925060ff1687565b6104cd6040518060e001604052806000815260200160006001600160a01b03168152602001606081526020016000815260200160008152602001600081526020016000151581525090565b600082815260036020908152604091829020825160e0810184528154815260018201546001600160a01b031692810192909252600281018054929391929184019161051790611265565b80601f016020809104026020016040519081016040528092919081815260200182805461054390611265565b80156105905780601f1061056557610100808354040283529160200191610590565b820191906000526020600020905b81548152906001019060200180831161057357829003601f168201915b505050918352505060038201546020820152600482015460408201526005820154606082015260069091015460ff16151560809091015292915050565b6001546040516370a0823160e01b81523060048201526000916001600160a01b0316906370a0823190602401602060405180830381865afa158015610616573d6000803e3d6000fd5b505050506040513d601f19601f8201168201806040525081019061063a919061129f565b905090565b6000600160075461063a91906112ce565b610658610f4e565b6106626000610f7b565b565b60008181526003602052604081205490036106b75760405162461bcd60e51b815260206004820152600e60248201526d141bdcdd081b9bdd08199bdd5b9960921b60448201526064015b60405180910390fd5b33600090815260066020908152604080832084845290915290205460ff16156107125760405162461bcd60e51b815260206004820152600d60248201526c105b1c9958591e481b1a5ad959609a1b60448201526064016106ae565b3360009081526006602090815260408083208484528252808320805460ff191660011790556003909152812060040180549161074d836112e7565b90915550506001546040516370a0823160e01b81523060048201526000916001600160a01b0316906370a0823190602401602060405180830381865afa15801561079b573d6000803e3d6000fd5b505050506040513d601f19601f820116820180604052508101906107bf919061129f565b90506107d4670de0b6b3a76400006002611300565b81106108ea5760015460405163a9059cbb60e01b8152336004820152670de0b6b3a764000060248201526001600160a01b039091169063a9059cbb906044016020604051808303816000875af1158015610832573d6000803e3d6000fd5b505050506040513d601f19601f820116820180604052508101906108569190611317565b50600180546000848152600360205260409081902090920154915163a9059cbb60e01b81526001600160a01b039283166004820152670de0b6b3a7640000602482015291169063a9059cbb906044016020604051808303816000875af11580156108c4573d6000803e3d6000fd5b505050506040513d601f19601f820116820180604052508101906108e89190611317565b505b6000828152600360209081526040808320600101546001600160a01b03168352600490915281206002908101805491929091610927908490611339565b9091555050604051339083907fcf765d6f163c9b0d832e2a94f4c8e9bffd32a2c3ca5fdbb8cc67b5fe1441f41390600090a35050565b6005602052816000526040600020818154811061097957600080fd5b90600052602060002001600091509150505481565b610996610f4e565b6001546040516323b872dd60e01b8152336004820152306024820152604481018390526001600160a01b03909116906323b872dd906064016020604051808303816000875af11580156109ed573d6000803e3d6000fd5b505050506040513d601f19601f82011682018060405250810190610a119190611317565b5050565b610a49604051806080016040528060006001600160a01b031681526020016000815260200160008152602001600081525090565b506001600160a01b0390811660009081526004602090815260409182902082516080810184528154909416845260018101549184019190915260028101549183019190915260030154606082015290565b6001600160a01b038116600090815260056020908152604091829020805483518184028101840190945280845260609392830182828015610afa57602002820191906000526020600020905b815481526020019060010190808311610ae6575b50505050509050919050565b606060006001600754610b1991906112ce565b90506000818411610b2a5783610b2c565b815b905060008167ffffffffffffffff811115610b4957610b49611196565b604051908082528060200260200182016040528015610b72578160200160208202803683370190505b50905060005b82811015610baf57610b8a81856112ce565b828281518110610b9c57610b9c61134c565b6020908102919091010152600101610b78565b50949350505050565b6000815111610c095760405162461bcd60e51b815260206004820152601760248201527f436f6e74656e742063616e6e6f7420626520656d70747900000000000000000060448201526064016106ae565b61011881511115610c4f5760405162461bcd60e51b815260206004820152601060248201526f436f6e74656e7420746f6f206c6f6e6760801b60448201526064016106ae565b60078054600591829160009182610c65836112e7565b909155506040805160e08101825282815233602080830191825282840189815242606085015260006080850181905260a0850189905260c0850181905286815260039092529390208251815590516001820180546001600160a01b0319166001600160a01b039092169190911790559151929350916002820190610ce990826113b1565b5060608201516003820155608082015160048083019190915560a083015160058084019190915560c0909301516006909201805460ff19169215159290921790915533600081815260209384526040808220805460018181018355918452868420018790559282529290935290822001805491610d65836112e7565b90915550503360009081526004602052604081206002018054600a9290610d8d908490611339565b90915550678ac7230489e80000905060078310610de457610db6674563918244f4000082611339565b3360009081526004602052604081206003018054929350600592909190610dde908490611339565b90915550505b6001546040516370a0823160e01b81523060048201526000916001600160a01b0316906370a0823190602401602060405180830381865afa158015610e2d573d6000803e3d6000fd5b505050506040513d601f19601f82011682018060405250810190610e51919061129f565b9050818110610ed15760015460405163a9059cbb60e01b8152336004820152602481018490526001600160a01b039091169063a9059cbb906044016020604051808303816000875af1158015610eab573d6000803e3d6000fd5b505050506040513d601f19601f82011682018060405250810190610ecf9190611317565b505b604051848152339084907f35e9d1576a3cf0faf0d7e6d6fd53fcfebe5a51f7043238e20ff4125e5df657739060200160405180910390a3505050505050565b610f18610f4e565b6001600160a01b038116610f4257604051631e4fbdf760e01b8152600060048201526024016106ae565b610f4b81610f7b565b50565b6000546001600160a01b031633146106625760405163118cdaa760e01b81523360048201526024016106ae565b600080546001600160a01b038381166001600160a01b0319831681178455604051919092169283917f8be0079c531659141344cd1fd0a4f28419497f9722a3daafe3b4186f6b6457e09190a35050565b600060208284031215610fdd57600080fd5b5035919050565b6000815180845260005b8181101561100a57602081850181015186830182015201610fee565b506000602082860101526020601f19601f83011685010191505092915050565b8781526001600160a01b038716602082015260e06040820181905260009061105490830188610fe4565b90508560608301528460808301528360a083015282151560c083015298975050505050505050565b80356001600160a01b038116811461109357600080fd5b919050565b6000602082840312156110aa57600080fd5b6110b38261107c565b9392505050565b602081528151602082015260018060a01b0360208301511660408201526000604083015160e060608401526110f3610100840182610fe4565b905060608401516080840152608084015160a084015260a084015160c084015260c0840151151560e08401528091505092915050565b6000806040838503121561113c57600080fd5b6111458361107c565b946020939093013593505050565b602080825282518282018190526000918401906040840190835b8181101561118b57835183526020938401939092019160010161116d565b509095945050505050565b634e487b7160e01b600052604160045260246000fd5b6000602082840312156111be57600080fd5b813567ffffffffffffffff8111156111d557600080fd5b8201601f810184136111e657600080fd5b803567ffffffffffffffff81111561120057611200611196565b604051601f8201601f19908116603f0116810167ffffffffffffffff8111828210171561122f5761122f611196565b60405281815282820160200186101561124757600080fd5b81602084016020830137600091810160200191909152949350505050565b600181811c9082168061127957607f821691505b60208210810361129957634e487b7160e01b600052602260045260246000fd5b50919050565b6000602082840312156112b157600080fd5b5051919050565b634e487b7160e01b600052601160045260246000fd5b818103818111156112e1576112e16112b8565b92915050565b6000600182016112f9576112f96112b8565b5060010190565b80820281158282048414176112e1576112e16112b8565b60006020828403121561132957600080fd5b815180151581146110b357600080fd5b808201808211156112e1576112e16112b8565b634e487b7160e01b600052603260045260246000fd5b601f8211156113ac57806000526020600020601f840160051c810160208510156113895750805b601f840160051c820191505b818110156113a95760008155600101611395565b50505b505050565b815167ffffffffffffffff8111156113cb576113cb611196565b6113df816113d98454611265565b84611362565b6020601f82116001811461141357600083156113fb5750848201515b600019600385901b1c1916600184901b1784556113a9565b600084815260208120601f198516915b828110156114435787850151825560209485019460019092019101611423565b50848210156114615786840151600019600387901b60f8161c191681555b50505050600190811b0190555056fea26469706673582212203db63531fb074db97db34a89e6650731bfb6e3a7cc863251243f6b339230542764736f6c634300081a0033",
  "linkReferences": {},
  "deployedLinkReferences": {}
}