{
  "_format": "hh-sol-artifact-1",
  "contractName": "SocialFiCore",
  "sourceName": "contracts/SocialFiCore.sol",
  "abi": [
    {
      "inputs": [
        {
          "internalType": "address",
          "name": "_gateway",
          "type": "address"
        },
        {
          "internalType": "address",
          "name": "_guiToken",
          "type": "address"
        }
      ],
      "stateMutability": "nonpayable",
      "type": "constructor"
    },
    {
      "inputs": [
        {
          "internalType": "address",
          "name": "owner",
          "type": "address"
        }
      ],
      "name": "OwnableInvalidOwner",
      "type": "error"
    },
    {
      "inputs": [
        {
          "internalType": "address",
          "name": "account",
          "type": "address"
        }
      ],
      "name": "OwnableUnauthorizedAccount",
      "type": "error"
    },
    {
      "anonymous": false,
      "inputs": [
        {
          "indexed": true,
          "internalType": "address",
          "name": "user",
          "type": "address"
        },
        {
          "indexed": false,
          "internalType": "uint256",
          "name": "amount",
          "type": "uint256"
        },
        {
          "indexed": false,
          "internalType": "uint256",
          "name": "targetChain",
          "type": "uint256"
        }
      ],
      "name": "CrossChainSocialReward",
      "type": "event"
    },
    {
      "anonymous": false,
      "inputs": [
        {
          "indexed": true,
          "internalType": "address",
          "name": "previousOwner",
          "type": "address"
        },
        {
          "indexed": true,
          "internalType": "address",
          "name": "newOwner",
          "type": "address"
        }
      ],
      "name": "OwnershipTransferred",
      "type": "event"
    },
    {
      "anonymous": false,
      "inputs": [
        {
          "indexed": true,
          "internalType": "uint256",
          "name": "postId",
          "type": "uint256"
        },
        {
          "indexed": true,
          "internalType": "address",
          "name": "author",
          "type": "address"
        },
        {
          "indexed": false,
          "internalType": "uint256",
          "name": "chainId",
          "type": "uint256"
        }
      ],
      "name": "PostCreated",
      "type": "event"
    },
    {
      "anonymous": false,
      "inputs": [
        {
          "indexed": true,
          "internalType": "uint256",
          "name": "postId",
          "type": "uint256"
        },
        {
          "indexed": true,
          "internalType": "address",
          "name": "liker",
          "type": "address"
        }
      ],
      "name": "PostLiked",
      "type": "event"
    },
    {
      "inputs": [],
      "name": "LIKE_REWARD",
      "outputs": [
        {
          "internalType": "uint256",
          "name": "",
          "type": "uint256"
        }
      ],
      "stateMutability": "view",
      "type": "function"
    },
    {
      "inputs": [],
      "name": "POST_REWARD",
      "outputs": [
        {
          "internalType": "uint256",
          "name": "",
          "type": "uint256"
        }
      ],
      "stateMutability": "view",
      "type": "function"
    },
    {
      "inputs": [
        {
          "internalType": "string",
          "name": "content",
          "type": "string"
        }
      ],
      "name": "createPost",
      "outputs": [],
      "stateMutability": "nonpayable",
      "type": "function"
    },
    {
      "inputs": [],
      "name": "gateway",
      "outputs": [
        {
          "internalType": "contract IGatewayZEVM",
          "name": "",
          "type": "address"
        }
      ],
      "stateMutability": "view",
      "type": "function"
    },
    {
      "inputs": [
        {
          "internalType": "uint256",
          "name": "postId",
          "type": "uint256"
        }
      ],
      "name": "getPost",
      "outputs": [
        {
          "components": [
            {
              "internalType": "uint256",
              "name": "id",
              "type": "uint256"
            },
            {
              "internalType": "address",
              "name": "author",
              "type": "address"
            },
            {
              "internalType": "string",
              "name": "content",
              "type": "string"
            },
            {
              "internalType": "uint256",
              "name": "timestamp",
              "type": "uint256"
            },
            {
              "internalType": "uint256",
              "name": "likes",
              "type": "uint256"
            },
            {
              "internalType": "uint256",
              "name": "chainId",
              "type": "uint256"
            }
          ],
          "internalType": "struct SocialFiCore.Post",
          "name": "",
          "type": "tuple"
        }
      ],
      "stateMutability": "view",
      "type": "function"
    },
    {
      "inputs": [
        {
          "internalType": "address",
          "name": "author",
          "type": "address"
        }
      ],
      "name": "getPostsByAuthor",
      "outputs": [
        {
          "components": [
            {
              "internalType": "uint256",
              "name": "id",
              "type": "uint256"
            },
            {
              "internalType": "address",
              "name": "author",
              "type": "address"
            },
            {
              "internalType": "string",
              "name": "content",
              "type": "string"
            },
            {
              "internalType": "uint256",
              "name": "timestamp",
              "type": "uint256"
            },
            {
              "internalType": "uint256",
              "name": "likes",
              "type": "uint256"
            },
            {
              "internalType": "uint256",
              "name": "chainId",
              "type": "uint256"
            }
          ],
          "internalType": "struct SocialFiCore.Post[]",
          "name": "",
          "type": "tuple[]"
        }
      ],
      "stateMutability": "view",
      "type": "function"
    },
    {
      "inputs": [
        {
          "internalType": "address",
          "name": "user",
          "type": "address"
        }
      ],
      "name": "getUserPosts",
      "outputs": [
        {
          "internalType": "uint256[]",
          "name": "",
          "type": "uint256[]"
        }
      ],
      "stateMutability": "view",
      "type": "function"
    },
    {
      "inputs": [
        {
          "internalType": "address",
          "name": "user",
          "type": "address"
        }
      ],
      "name": "getUserProfile",
      "outputs": [
        {
          "components": [
            {
              "internalType": "address",
              "name": "userAddress",
              "type": "address"
            },
            {
              "internalType": "string",
              "name": "username",
              "type": "string"
            },
            {
              "internalType": "uint256",
              "name": "followers",
              "type": "uint256"
            },
            {
              "internalType": "uint256",
              "name": "totalPosts",
              "type": "uint256"
            },
            {
              "internalType": "uint256",
              "name": "socialScore",
              "type": "uint256"
            }
          ],
          "internalType": "struct SocialFiCore.UserProfile",
          "name": "",
          "type": "tuple"
        }
      ],
      "stateMutability": "view",
      "type": "function"
    },
    {
      "inputs": [],
      "name": "guiToken",
      "outputs": [
        {
          "internalType": "address",
          "name": "",
          "type": "address"
        }
      ],
      "stateMutability": "view",
      "type": "function"
    },
    {
      "inputs": [
        {
          "internalType": "address",
          "name": "",
          "type": "address"
        },
        {
          "internalType": "uint256",
          "name": "",
          "type": "uint256"
        }
      ],
      "name": "hasLikedPost",
      "outputs": [
        {
          "internalType": "bool",
          "name": "",
          "type": "bool"
        }
      ],
      "stateMutability": "view",
      "type": "function"
    },
    {
      "inputs": [
        {
          "internalType": "uint256",
          "name": "postId",
          "type": "uint256"
        }
      ],
      "name": "likePost",
      "outputs": [],
      "stateMutability": "nonpayable",
      "type": "function"
    },
    {
      "inputs": [],
      "name": "nextPostId",
      "outputs": [
        {
          "internalType": "uint256",
          "name": "",
          "type": "uint256"
        }
      ],
      "stateMutability": "view",
      "type": "function"
    },
    {
      "inputs": [
        {
          "components": [
            {
              "internalType": "bytes",
              "name": "sender",
              "type": "bytes"
            },
            {
              "internalType": "address",
              "name": "senderEVM",
              "type": "address"
            },
            {
              "internalType": "uint256",
              "name": "chainID",
              "type": "uint256"
            }
          ],
          "internalType": "struct MessageContext",
          "name": "context",
          "type": "tuple"
        },
        {
          "internalType": "address",
          "name": "zrc20",
          "type": "address"
        },
        {
          "internalType": "uint256",
          "name": "amount",
          "type": "uint256"
        },
        {
          "internalType": "bytes",
          "name": "message",
          "type": "bytes"
        }
      ],
      "name": "onCall",
      "outputs": [],
      "stateMutability": "nonpayable",
      "type": "function"
    },
    {
      "inputs": [
        {
          "components": [
            {
              "internalType": "address",
              "name": "sender",
              "type": "address"
            },
            {
              "internalType": "address",
              "name": "asset",
              "type": "address"
            },
            {
              "internalType": "uint256",
              "name": "amount",
              "type": "uint256"
            },
            {
              "internalType": "bytes",
              "name": "revertMessage",
              "type": "bytes"
            }
          ],
          "internalType": "struct RevertContext",
          "name": "revertContext",
          "type": "tuple"
        }
      ],
      "name": "onRevert",
      "outputs": [],
      "stateMutability": "nonpayable",
      "type": "function"
    },
    {
      "inputs": [],
      "name": "owner",
      "outputs": [
        {
          "internalType": "address",
          "name": "",
          "type": "address"
        }
      ],
      "stateMutability": "view",
      "type": "function"
    },
    {
      "inputs": [
        {
          "internalType": "uint256",
          "name": "",
          "type": "uint256"
        }
      ],
      "name": "posts",
      "outputs": [
        {
          "internalType": "uint256",
          "name": "id",
          "type": "uint256"
        },
        {
          "internalType": "address",
          "name": "author",
          "type": "address"
        },
        {
          "internalType": "string",
          "name": "content",
          "type": "string"
        },
        {
          "internalType": "uint256",
          "name": "timestamp",
          "type": "uint256"
        },
        {
          "internalType": "uint256",
          "name": "likes",
          "type": "uint256"
        },
        {
          "internalType": "uint256",
          "name": "chainId",
          "type": "uint256"
        }
      ],
      "stateMutability": "view",
      "type": "function"
    },
    {
      "inputs": [],
      "name": "renounceOwnership",
      "outputs": [],
      "stateMutability": "nonpayable",
      "type": "function"
    },
    {
      "inputs": [
        {
          "internalType": "address",
          "name": "newOwner",
          "type": "address"
        }
      ],
      "name": "transferOwnership",
      "outputs": [],
      "stateMutability": "nonpayable",
      "type": "function"
    },
    {
      "inputs": [
        {
          "internalType": "address",
          "name": "",
          "type": "address"
        },
        {
          "internalType": "uint256",
          "name": "",
          "type": "uint256"
        }
      ],
      "name": "userPosts",
      "outputs": [
        {
          "internalType": "uint256",
          "name": "",
          "type": "uint256"
        }
      ],
      "stateMutability": "view",
      "type": "function"
    },
    {
      "inputs": [
        {
          "internalType": "address",
          "name": "",
          "type": "address"
        }
      ],
      "name": "userProfiles",
      "outputs": [
        {
          "internalType": "address",
          "name": "userAddress",
          "type": "address"
        },
        {
          "internalType": "string",
          "name": "username",
          "type": "string"
        },
        {
          "internalType": "uint256",
          "name": "followers",
          "type": "uint256"
        },
        {
          "internalType": "uint256",
          "name": "totalPosts",
          "type": "uint256"
        },
        {
          "internalType": "uint256",
          "name": "socialScore",
          "type": "uint256"
        }
      ],
      "stateMutability": "view",
      "type": "function"
    }
  ],
  "bytecode": "0x60c0604052600160055534801561001557600080fd5b50604051611e99380380611e99833981016040819052610034916100e7565b338061005a57604051631e4fbdf760e01b81526000600482015260240160405180910390fd5b6100638161007b565b506001600160a01b039182166080521660a05261011a565b600080546001600160a01b038381166001600160a01b0319831681178455604051919092169283917f8be0079c531659141344cd1fd0a4f28419497f9722a3daafe3b4186f6b6457e09190a35050565b80516001600160a01b03811681146100e257600080fd5b919050565b600080604083850312156100fa57600080fd5b610103836100cb565b9150610111602084016100cb565b90509250929050565b60805160a051611d306101696000396000818161028101528181610dd101528181610fb20152611060015260008181610164015281816105f50152818161092b015261127a0152611d306000f3fe608060405234801561001057600080fd5b506004361061012c5760003560e01c80638da5cb5b116100ad578063c9028a3611610071578063c9028a36146102d6578063e9a9f051146102e9578063f0f8d4f114610327578063f2fde38b14610336578063f4ab24991461034957600080fd5b80638da5cb5b1461024b578063987ee1561461025c578063993c44f01461027c5780639a2194a9146102a3578063c7303c61146102c357600080fd5b80635bcfd616116100f45780635bcfd616146101ff5780635c09bd9814610214578063715018a61461021d578063725009d3146102255780638064d1491461023857600080fd5b80630b1e7f8314610131578063116191b61461015f57806312ec26771461019e578063332d56d7146101bb57806340731c24146101df575b600080fd5b61014461013f366004611456565b610369565b604051610156969594939291906114bf565b60405180910390f35b6101867f000000000000000000000000000000000000000000000000000000000000000081565b6040516001600160a01b039091168152602001610156565b6101ad678ac7230489e8000081565b604051908152602001610156565b6101ce6101c9366004611523565b610431565b604051610156959493929190611545565b6101f26101ed366004611456565b6104f2565b60405161015691906115e1565b61021261020d3660046115f4565b6105ea565b005b6101ad60055481565b610212610732565b610212610233366004611456565b610746565b6101ad6102463660046116b1565b610753565b6000546001600160a01b0316610186565b61026f61026a366004611523565b610784565b60405161015691906116db565b6101867f000000000000000000000000000000000000000000000000000000000000000081565b6102b66102b1366004611523565b6108a9565b6040516101569190611733565b6102126102d1366004611823565b610915565b6102126102e4366004611874565b610920565b6103176102f73660046116b1565b600360209081526000928352604080842090915290825290205460ff1681565b6040519015158152602001610156565b6101ad670de0b6b3a764000081565b610212610344366004611523565b610987565b61035c610357366004611523565b6109c2565b60405161015691906118af565b60016020819052600091825260409091208054918101546002820180546001600160a01b03909216929161039c90611914565b80601f01602080910402602001604051908101604052809291908181526020018280546103c890611914565b80156104155780601f106103ea57610100808354040283529160200191610415565b820191906000526020600020905b8154815290600101906020018083116103f857829003601f168201915b5050505050908060030154908060040154908060050154905086565b600260205260009081526040902080546001820180546001600160a01b03909216929161045d90611914565b80601f016020809104026020016040519081016040528092919081815260200182805461048990611914565b80156104d65780601f106104ab576101008083540402835291602001916104d6565b820191906000526020600020905b8154815290600101906020018083116104b957829003601f168201915b5050505050908060020154908060030154908060040154905085565b6104fa611417565b600082815260016020818152604092839020835160c08101855281548152928101546001600160a01b031691830191909152600281018054929391929184019161054390611914565b80601f016020809104026020016040519081016040528092919081815260200182805461056f90611914565b80156105bc5780601f10610591576101008083540402835291602001916105bc565b820191906000526020600020905b81548152906001019060200180831161059f57829003601f168201915b5050505050815260200160038201548152602001600482015481526020016005820154815250509050919050565b336001600160a01b037f000000000000000000000000000000000000000000000000000000000000000016146106565760405162461bcd60e51b815260206004820152600c60248201526b4f6e6c79206761746577617960a01b60448201526064015b60405180910390fd5b6000806106658385018561194e565b90925090506000606061067889806119b8565b604051610686929190611a06565b604051908190039020901c905060ff83166001036106cb576000828060200190518101906106b49190611a16565b90506106c582828b60400135610bd9565b50610728565b8260ff166002036106f8576000828060200190518101906106ec9190611a8d565b90506106c58282610e89565b8260ff16600303610728576000828060200190518101906107199190611a8d565b905061072682898361114c565b505b5050505050505050565b61073a61139a565b61074460006113c7565b565b6107503382610e89565b50565b6004602052816000526040600020818154811061076f57600080fd5b90600052602060002001600091509150505481565b6107bf6040518060a0016040528060006001600160a01b03168152602001606081526020016000815260200160008152602001600081525090565b6001600160a01b03808316600090815260026020908152604091829020825160a08101909352805490931682526001830180549293929184019161080290611914565b80601f016020809104026020016040519081016040528092919081815260200182805461082e90611914565b801561087b5780601f106108505761010080835404028352916020019161087b565b820191906000526020600020905b81548152906001019060200180831161085e57829003601f168201915b5050505050815260200160028201548152602001600382015481526020016004820154815250509050919050565b6001600160a01b03811660009081526004602090815260409182902080548351818402810184019094528084526060939283018282801561090957602002820191906000526020600020905b8154815260200190600101908083116108f5575b50505050509050919050565b610750338246610bd9565b336001600160a01b037f000000000000000000000000000000000000000000000000000000000000000016146107505760405162461bcd60e51b815260206004820152600c60248201526b4f6e6c79206761746577617960a01b604482015260640161064d565b61098f61139a565b6001600160a01b0381166109b957604051631e4fbdf760e01b81526000600482015260240161064d565b610750816113c7565b6001600160a01b0381166000908152600460209081526040808320805482518185028101850190935280835260609493830182828015610a2157602002820191906000526020600020905b815481526020019060010190808311610a0d575b505050505090506000815167ffffffffffffffff811115610a4457610a44611776565b604051908082528060200260200182016040528015610a7d57816020015b610a6a611417565b815260200190600190039081610a625790505b50905060005b8251811015610bd15760016000848381518110610aa257610aa2611aa6565b602002602001015181526020019081526020016000206040518060c0016040529081600082015481526020016001820160009054906101000a90046001600160a01b03166001600160a01b03166001600160a01b03168152602001600282018054610b0c90611914565b80601f0160208091040260200160405190810160405280929190818152602001828054610b3890611914565b8015610b855780601f10610b5a57610100808354040283529160200191610b85565b820191906000526020600020905b815481529060010190602001808311610b6857829003601f168201915b505050505081526020016003820154815260200160048201548152602001600582015481525050828281518110610bbe57610bbe611aa6565b6020908102919091010152600101610a83565b509392505050565b6000825111610c2a5760405162461bcd60e51b815260206004820152601760248201527f436f6e74656e742063616e6e6f7420626520656d707479000000000000000000604482015260640161064d565b61011882511115610c705760405162461bcd60e51b815260206004820152601060248201526f436f6e74656e7420746f6f206c6f6e6760801b604482015260640161064d565b6005805460009182610c8183611ad2565b909155506040805160c0810182528281526001600160a01b03878116602080840191825283850189815242606086015260006080860181905260a086018a90528781526001928390529590952084518155915190820180546001600160a01b03191691909316179091559151929350916002820190610d009082611b3a565b506060820151600380830191909155608083015160048084019190915560a0909301516005909201919091556001600160a01b0386166000818152602093845260408082208054600181018255908352858320018690559181526002909352822001805491610d6e83611ad2565b90915550506001600160a01b03841660009081526002602052604081206004018054600a9290610d9f908490611bf9565b909155505060405163a9059cbb60e01b81526001600160a01b038581166004830152678ac7230489e8000060248301527f0000000000000000000000000000000000000000000000000000000000000000169063a9059cbb906044016020604051808303816000875af1158015610e1a573d6000803e3d6000fd5b505050506040513d601f19601f82011682018060405250810190610e3e9190611c12565b50836001600160a01b0316817f35e9d1576a3cf0faf0d7e6d6fd53fcfebe5a51f7043238e20ff4125e5df6577384604051610e7b91815260200190565b60405180910390a350505050565b6000818152600160205260408120549003610ed75760405162461bcd60e51b815260206004820152600e60248201526d141bdcdd081b9bdd08199bdd5b9960921b604482015260640161064d565b6001600160a01b038216600090815260036020908152604080832084845290915290205460ff1615610f3b5760405162461bcd60e51b815260206004820152600d60248201526c105b1c9958591e481b1a5ad959609a1b604482015260640161064d565b6001600160a01b03821660009081526003602090815260408083208484528252808320805460ff191660019081179091559091528120600401805491610f8083611ad2565b909155505060405163a9059cbb60e01b81526001600160a01b038381166004830152670de0b6b3a764000060248301527f0000000000000000000000000000000000000000000000000000000000000000169063a9059cbb906044016020604051808303816000875af1158015610ffb573d6000803e3d6000fd5b505050506040513d601f19601f8201168201806040525081019061101f9190611c12565b506000818152600160208190526040918290200154905163a9059cbb60e01b81526001600160a01b039182166004820152670de0b6b3a764000060248201527f00000000000000000000000000000000000000000000000000000000000000009091169063a9059cbb906044016020604051808303816000875af11580156110ab573d6000803e3d6000fd5b505050506040513d601f19601f820116820180604052508101906110cf9190611c12565b506000818152600160208181526040808420909201546001600160a01b0316835260029081905290822060040180549192909161110d908490611bf9565b90915550506040516001600160a01b0383169082907fcf765d6f163c9b0d832e2a94f4c8e9bffd32a2c3ca5fdbb8cc67b5fe1441f41390600090a35050565b6001600160a01b03831660009081526002602052604081206004015461117a90670de0b6b3a7640000611c34565b9050600081116111cc5760405162461bcd60e51b815260206004820152601a60248201527f4e6f20736f6369616c207265776172647320746f20636c61696d000000000000604482015260640161064d565b6001600160a01b038416600081815260026020908152604080832060040183905580518082018252620186a08152808301849052815160a0810183529485528483018490528482018490529051909391606083019161125d91016020808252601a908201527f536f6369616c2072657761726420636c61696d206661696c6564000000000000604082015260600190565b6040516020818303038152906040528152602001600181525090507f00000000000000000000000000000000000000000000000000000000000000006001600160a01b03166306cb8983876040516020016112d0919060609190911b6bffffffffffffffffffffffff1916815260140190565b60408051601f19818403018152828252602083018890529189910160405160208183030381529060405286866040518663ffffffff1660e01b815260040161131c959493929190611c4b565b600060405180830381600087803b15801561133657600080fd5b505af115801561134a573d6000803e3d6000fd5b505060408051868152602081018890526001600160a01b038a1693507fa54083f4579822fed8661ded8238c0c0e1fbede10c1c7dafdb4f5b2c7330cf1392500160405180910390a2505050505050565b6000546001600160a01b031633146107445760405163118cdaa760e01b815233600482015260240161064d565b600080546001600160a01b038381166001600160a01b0319831681178455604051919092169283917f8be0079c531659141344cd1fd0a4f28419497f9722a3daafe3b4186f6b6457e09190a35050565b6040518060c001604052806000815260200160006001600160a01b03168152602001606081526020016000815260200160008152602001600081525090565b60006020828403121561146857600080fd5b5035919050565b60005b8381101561148a578181015183820152602001611472565b50506000910152565b600081518084526114ab81602086016020860161146f565b601f01601f19169290920160200192915050565b8681526001600160a01b038616602082015260c0604082018190526000906114e990830187611493565b606083019590955250608081019290925260a0909101529392505050565b80356001600160a01b038116811461151e57600080fd5b919050565b60006020828403121561153557600080fd5b61153e82611507565b9392505050565b6001600160a01b038616815260a06020820181905260009061156990830187611493565b604083019590955250606081019290925260809091015292915050565b8051825260018060a01b0360208201511660208301526000604082015160c060408501526115b760c0850182611493565b9050606083015160608501526080830151608085015260a083015160a08501528091505092915050565b60208152600061153e6020830184611586565b60008060008060006080868803121561160c57600080fd5b853567ffffffffffffffff81111561162357600080fd5b86016060818903121561163557600080fd5b945061164360208701611507565b935060408601359250606086013567ffffffffffffffff81111561166657600080fd5b8601601f8101881361167757600080fd5b803567ffffffffffffffff81111561168e57600080fd5b8860208284010111156116a057600080fd5b959894975092955050506020019190565b600080604083850312156116c457600080fd5b6116cd83611507565b946020939093013593505050565b602080825282516001600160a01b03168282015282015160a0604083015260009061170960c0840182611493565b90506040840151606084015260608401516080840152608084015160a08401528091505092915050565b602080825282518282018190526000918401906040840190835b8181101561176b57835183526020938401939092019160010161174d565b509095945050505050565b634e487b7160e01b600052604160045260246000fd5b604051601f8201601f1916810167ffffffffffffffff811182821017156117b5576117b5611776565b604052919050565b600067ffffffffffffffff8211156117d7576117d7611776565b50601f01601f191660200190565b60006117f86117f3846117bd565b61178c565b905082815283838301111561180c57600080fd5b828260208301376000602084830101529392505050565b60006020828403121561183557600080fd5b813567ffffffffffffffff81111561184c57600080fd5b8201601f8101841361185d57600080fd5b61186c848235602084016117e5565b949350505050565b60006020828403121561188657600080fd5b813567ffffffffffffffff81111561189d57600080fd5b82016080818503121561153e57600080fd5b6000602082016020835280845180835260408501915060408160051b86010192506020860160005b8281101561190857603f198786030184526118f3858351611586565b945060209384019391909101906001016118d7565b50929695505050505050565b600181811c9082168061192857607f821691505b60208210810361194857634e487b7160e01b600052602260045260246000fd5b50919050565b6000806040838503121561196157600080fd5b823560ff8116811461197257600080fd5b9150602083013567ffffffffffffffff81111561198e57600080fd5b8301601f8101851361199f57600080fd5b6119ae858235602084016117e5565b9150509250929050565b6000808335601e198436030181126119cf57600080fd5b83018035915067ffffffffffffffff8211156119ea57600080fd5b6020019150368190038213156119ff57600080fd5b9250929050565b8183823760009101908152919050565b600060208284031215611a2857600080fd5b815167ffffffffffffffff811115611a3f57600080fd5b8201601f81018413611a5057600080fd5b8051611a5e6117f3826117bd565b818152856020838501011115611a7357600080fd5b611a8482602083016020860161146f565b95945050505050565b600060208284031215611a9f57600080fd5b5051919050565b634e487b7160e01b600052603260045260246000fd5b634e487b7160e01b600052601160045260246000fd5b600060018201611ae457611ae4611abc565b5060010190565b601f821115611b3557806000526020600020601f840160051c81016020851015611b125750805b601f840160051c820191505b81811015611b325760008155600101611b1e565b50505b505050565b815167ffffffffffffffff811115611b5457611b54611776565b611b6881611b628454611914565b84611aeb565b6020601f821160018114611b9c5760008315611b845750848201515b600019600385901b1c1916600184901b178455611b32565b600084815260208120601f198516915b82811015611bcc5787850151825560209485019460019092019101611bac565b5084821015611bea5786840151600019600387901b60f8161c191681555b50505050600190811b01905550565b80820180821115611c0c57611c0c611abc565b92915050565b600060208284031215611c2457600080fd5b8151801515811461153e57600080fd5b8082028115828204841417611c0c57611c0c611abc565b60c081526000611c5e60c0830188611493565b6001600160a01b03871660208401528281036040840152611c7f8187611493565b90508451606084015260208501511515608084015282810360a084015260018060a01b03845116815260208401511515602082015260018060a01b036040850151166040820152606084015160a06060830152611cdf60a0830182611493565b9050608085015160808301528092505050969550505050505056fea264697066735822122073168290b837e2eceebe319d272f9e61f7558009fb487c9134199f8eb22d015064736f6c634300081a0033",
  "linkReferences": {},
  "deployedLinkReferences": {}
}