{
  "_format": "hh-sol-artifact-1",
  "contractName": "SocialFiCore",
  "sourceName": "contracts/SocialFiCore.sol",
  "abi": [
    {
      "inputs": [
        {
          "internalType": "address",
          "name": "_guiToken",
          "type": "address"
        },
        {
          "internalType": "address",
          "name": "_aiOracle",
          "type": "address"
        }
      ],
      "stateMutability": "nonpayable",
      "type": "constructor"
    },
    {
      "inputs": [
        {
          "internalType": "address",
          "name": "owner",
          "type": "address"
        }
      ],
      "name": "OwnableInvalidOwner",
      "type": "error"
    },
    {
      "inputs": [
        {
          "internalType": "address",
          "name": "account",
          "type": "address"
        }
      ],
      "name": "OwnableUnauthorizedAccount",
      "type": "error"
    },
    {
      "anonymous": false,
      "inputs": [
        {
          "indexed": true,
          "internalType": "address",
          "name": "previousOwner",
          "type": "address"
        },
        {
          "indexed": true,
          "internalType": "address",
          "name": "newOwner",
          "type": "address"
        }
      ],
      "name": "OwnershipTransferred",
      "type": "event"
    },
    {
      "anonymous": false,
      "inputs": [
        {
          "indexed": true,
          "internalType": "uint256",
          "name": "postId",
          "type": "uint256"
        },
        {
          "indexed": true,
          "internalType": "address",
          "name": "author",
          "type": "address"
        },
        {
          "indexed": false,
          "internalType": "uint256",
          "name": "aiSentiment",
          "type": "uint256"
        }
      ],
      "name": "PostCreated",
      "type": "event"
    },
    {
      "anonymous": false,
      "inputs": [
        {
          "indexed": true,
          "internalType": "uint256",
          "name": "postId",
          "type": "uint256"
        },
        {
          "indexed": true,
          "internalType": "address",
          "name": "liker",
          "type": "address"
        }
      ],
      "name": "PostLiked",
      "type": "event"
    },
    {
      "inputs": [],
      "name": "LIKE_REWARD",
      "outputs": [
        {
          "internalType": "uint256",
          "name": "",
          "type": "uint256"
        }
      ],
      "stateMutability": "view",
      "type": "function"
    },
    {
      "inputs": [],
      "name": "POST_REWARD",
      "outputs": [
        {
          "internalType": "uint256",
          "name": "",
          "type": "uint256"
        }
      ],
      "stateMutability": "view",
      "type": "function"
    },
    {
      "inputs": [],
      "name": "aiOracle",
      "outputs": [
        {
          "internalType": "address",
          "name": "",
          "type": "address"
        }
      ],
      "stateMutability": "view",
      "type": "function"
    },
    {
      "inputs": [
        {
          "internalType": "string",
          "name": "content",
          "type": "string"
        }
      ],
      "name": "createPost",
      "outputs": [],
      "stateMutability": "nonpayable",
      "type": "function"
    },
    {
      "inputs": [
        {
          "internalType": "uint256",
          "name": "postId",
          "type": "uint256"
        }
      ],
      "name": "getPost",
      "outputs": [
        {
          "components": [
            {
              "internalType": "uint256",
              "name": "id",
              "type": "uint256"
            },
            {
              "internalType": "address",
              "name": "author",
              "type": "address"
            },
            {
              "internalType": "string",
              "name": "content",
              "type": "string"
            },
            {
              "internalType": "uint256",
              "name": "timestamp",
              "type": "uint256"
            },
            {
              "internalType": "uint256",
              "name": "likes",
              "type": "uint256"
            },
            {
              "internalType": "uint256",
              "name": "aiSentimentScore",
              "type": "uint256"
            },
            {
              "internalType": "bool",
              "name": "isAIGenerated",
              "type": "bool"
            }
          ],
          "internalType": "struct SocialFiCore.Post",
          "name": "",
          "type": "tuple"
        }
      ],
      "stateMutability": "view",
      "type": "function"
    },
    {
      "inputs": [
        {
          "internalType": "uint256",
          "name": "count",
          "type": "uint256"
        }
      ],
      "name": "getRecentPosts",
      "outputs": [
        {
          "internalType": "uint256[]",
          "name": "",
          "type": "uint256[]"
        }
      ],
      "stateMutability": "view",
      "type": "function"
    },
    {
      "inputs": [
        {
          "internalType": "address",
          "name": "user",
          "type": "address"
        }
      ],
      "name": "getUserPosts",
      "outputs": [
        {
          "internalType": "uint256[]",
          "name": "",
          "type": "uint256[]"
        }
      ],
      "stateMutability": "view",
      "type": "function"
    },
    {
      "inputs": [
        {
          "internalType": "address",
          "name": "user",
          "type": "address"
        }
      ],
      "name": "getUserProfile",
      "outputs": [
        {
          "components": [
            {
              "internalType": "address",
              "name": "userAddress",
              "type": "address"
            },
            {
              "internalType": "uint256",
              "name": "totalPosts",
              "type": "uint256"
            },
            {
              "internalType": "uint256",
              "name": "socialScore",
              "type": "uint256"
            },
            {
              "internalType": "uint256",
              "name": "aiAlignmentScore",
              "type": "uint256"
            }
          ],
          "internalType": "struct SocialFiCore.UserProfile",
          "name": "",
          "type": "tuple"
        }
      ],
      "stateMutability": "view",
      "type": "function"
    },
    {
      "inputs": [],
      "name": "guiToken",
      "outputs": [
        {
          "internalType": "address",
          "name": "",
          "type": "address"
        }
      ],
      "stateMutability": "view",
      "type": "function"
    },
    {
      "inputs": [
        {
          "internalType": "address",
          "name": "",
          "type": "address"
        },
        {
          "internalType": "uint256",
          "name": "",
          "type": "uint256"
        }
      ],
      "name": "hasLikedPost",
      "outputs": [
        {
          "internalType": "bool",
          "name": "",
          "type": "bool"
        }
      ],
      "stateMutability": "view",
      "type": "function"
    },
    {
      "inputs": [
        {
          "internalType": "uint256",
          "name": "postId",
          "type": "uint256"
        }
      ],
      "name": "likePost",
      "outputs": [],
      "stateMutability": "nonpayable",
      "type": "function"
    },
    {
      "inputs": [],
      "name": "nextPostId",
      "outputs": [
        {
          "internalType": "uint256",
          "name": "",
          "type": "uint256"
        }
      ],
      "stateMutability": "view",
      "type": "function"
    },
    {
      "inputs": [],
      "name": "owner",
      "outputs": [
        {
          "internalType": "address",
          "name": "",
          "type": "address"
        }
      ],
      "stateMutability": "view",
      "type": "function"
    },
    {
      "inputs": [
        {
          "internalType": "uint256",
          "name": "",
          "type": "uint256"
        }
      ],
      "name": "posts",
      "outputs": [
        {
          "internalType": "uint256",
          "name": "id",
          "type": "uint256"
        },
        {
          "internalType": "address",
          "name": "author",
          "type": "address"
        },
        {
          "internalType": "string",
          "name": "content",
          "type": "string"
        },
        {
          "internalType": "uint256",
          "name": "timestamp",
          "type": "uint256"
        },
        {
          "internalType": "uint256",
          "name": "likes",
          "type": "uint256"
        },
        {
          "internalType": "uint256",
          "name": "aiSentimentScore",
          "type": "uint256"
        },
        {
          "internalType": "bool",
          "name": "isAIGenerated",
          "type": "bool"
        }
      ],
      "stateMutability": "view",
      "type": "function"
    },
    {
      "inputs": [],
      "name": "renounceOwnership",
      "outputs": [],
      "stateMutability": "nonpayable",
      "type": "function"
    },
    {
      "inputs": [
        {
          "internalType": "address",
          "name": "newOwner",
          "type": "address"
        }
      ],
      "name": "transferOwnership",
      "outputs": [],
      "stateMutability": "nonpayable",
      "type": "function"
    },
    {
      "inputs": [
        {
          "internalType": "address",
          "name": "",
          "type": "address"
        },
        {
          "internalType": "uint256",
          "name": "",
          "type": "uint256"
        }
      ],
      "name": "userPosts",
      "outputs": [
        {
          "internalType": "uint256",
          "name": "",
          "type": "uint256"
        }
      ],
      "stateMutability": "view",
      "type": "function"
    },
    {
      "inputs": [
        {
          "internalType": "address",
          "name": "",
          "type": "address"
        }
      ],
      "name": "userProfiles",
      "outputs": [
        {
          "internalType": "address",
          "name": "userAddress",
          "type": "address"
        },
        {
          "internalType": "uint256",
          "name": "totalPosts",
          "type": "uint256"
        },
        {
          "internalType": "uint256",
          "name": "socialScore",
          "type": "uint256"
        },
        {
          "internalType": "uint256",
          "name": "aiAlignmentScore",
          "type": "uint256"
        }
      ],
      "stateMutability": "view",
      "type": "function"
    }
  ],
  "bytecode": "0x6080604052600160075534801561001557600080fd5b506040516115c33803806115c383398101604081905261003491610101565b338061005a57604051631e4fbdf760e01b81526000600482015260240160405180910390fd5b61006381610095565b50600180546001600160a01b039384166001600160a01b03199182161790915560028054929093169116179055610134565b600080546001600160a01b038381166001600160a01b0319831681178455604051919092169283917f8be0079c531659141344cd1fd0a4f28419497f9722a3daafe3b4186f6b6457e09190a35050565b80516001600160a01b03811681146100fc57600080fd5b919050565b6000806040838503121561011457600080fd5b61011d836100e5565b915061012b602084016100e5565b90509250929050565b611480806101436000396000f3fe608060405234801561001057600080fd5b50600436106101165760003560e01c80638da5cb5b116100a2578063c66a7ca711610071578063c66a7ca7146102e7578063c7303c61146102fa578063e9a9f0511461030d578063f0f8d4f11461034b578063f2fde38b1461035a57600080fd5b80638da5cb5b14610254578063987ee15614610265578063993c44f0146102b45780639a2194a9146102c757600080fd5b806340731c24116100e957806340731c24146101fb5780635c09bd981461021b578063715018a614610224578063725009d31461022e5780638064d1491461024157600080fd5b80630b1e7f831461011b57806312ec26771461014a57806331b221cd14610167578063332d56d714610192575b600080fd5b61012e610129366004610e38565b61036d565b6040516101419796959493929190610ea1565b60405180910390f35b610159678ac7230489e8000081565b604051908152602001610141565b60025461017a906001600160a01b031681565b6040516001600160a01b039091168152602001610141565b6101d16101a0366004610f0f565b60046020526000908152604090208054600182015460028301546003909301546001600160a01b0390921692909184565b604080516001600160a01b0390951685526020850193909352918301526060820152608001610141565b61020e610209366004610e38565b61043e565b6040516101419190610f31565b61015960075481565b61022c610589565b005b61022c61023c366004610e38565b61059d565b61015961024f366004610fa0565b61080c565b6000546001600160a01b031661017a565b610278610273366004610f0f565b61083d565b604051610141919081516001600160a01b0316815260208083015190820152604080830151908201526060918201519181019190915260800190565b60015461017a906001600160a01b031681565b6102da6102d5366004610f0f565b6108c2565b6040516101419190610fca565b6102da6102f5366004610e38565b61092e565b61022c6103083660046110a6565b6109e0565b61033b61031b366004610fa0565b600660209081526000928352604080842090915290825290205460ff1681565b6040519015158152602001610141565b610159670de0b6b3a764000081565b61022c610368366004610f0f565b610d7d565b60036020526000908152604090208054600182015460028301805492936001600160a01b039092169261039f90611126565b80601f01602080910402602001604051908101604052809291908181526020018280546103cb90611126565b80156104185780601f106103ed57610100808354040283529160200191610418565b820191906000526020600020905b8154815290600101906020018083116103fb57829003601f168201915b505050506003830154600484015460058501546006909501549394919390925060ff1687565b6104896040518060e001604052806000815260200160006001600160a01b03168152602001606081526020016000815260200160008152602001600081526020016000151581525090565b600082815260036020908152604091829020825160e0810184528154815260018201546001600160a01b03169281019290925260028101805492939192918401916104d390611126565b80601f01602080910402602001604051908101604052809291908181526020018280546104ff90611126565b801561054c5780601f106105215761010080835404028352916020019161054c565b820191906000526020600020905b81548152906001019060200180831161052f57829003601f168201915b505050918352505060038201546020820152600482015460408201526005820154606082015260069091015460ff16151560809091015292915050565b610591610dbb565b61059b6000610de8565b565b60008181526003602052604081205490036105f05760405162461bcd60e51b815260206004820152600e60248201526d141bdcdd081b9bdd08199bdd5b9960921b60448201526064015b60405180910390fd5b33600090815260066020908152604080832084845290915290205460ff161561064b5760405162461bcd60e51b815260206004820152600d60248201526c105b1c9958591e481b1a5ad959609a1b60448201526064016105e7565b3360009081526006602090815260408083208484528252808320805460ff191660011790556003909152812060040180549161068683611176565b909155505060015460405163a9059cbb60e01b8152336004820152670de0b6b3a764000060248201526001600160a01b039091169063a9059cbb906044016020604051808303816000875af11580156106e3573d6000803e3d6000fd5b505050506040513d601f19601f82011682018060405250810190610707919061118f565b50600180546000838152600360205260409081902090920154915163a9059cbb60e01b81526001600160a01b039283166004820152670de0b6b3a7640000602482015291169063a9059cbb906044016020604051808303816000875af1158015610775573d6000803e3d6000fd5b505050506040513d601f19601f82011682018060405250810190610799919061118f565b506000818152600360209081526040808320600101546001600160a01b031683526004909152812060029081018054919290916107d79084906111b1565b9091555050604051339082907fcf765d6f163c9b0d832e2a94f4c8e9bffd32a2c3ca5fdbb8cc67b5fe1441f41390600090a350565b6005602052816000526040600020818154811061082857600080fd5b90600052602060002001600091509150505481565b610871604051806080016040528060006001600160a01b031681526020016000815260200160008152602001600081525090565b506001600160a01b0390811660009081526004602090815260409182902082516080810184528154909416845260018101549184019190915260028101549183019190915260030154606082015290565b6001600160a01b03811660009081526005602090815260409182902080548351818402810184019094528084526060939283018282801561092257602002820191906000526020600020905b81548152602001906001019080831161090e575b50505050509050919050565b60606000600160075461094191906111ca565b905060008184116109525783610954565b815b905060008167ffffffffffffffff8111156109715761097161100d565b60405190808252806020026020018201604052801561099a578160200160208202803683370190505b50905060005b828110156109d7576109b281856111ca565b8282815181106109c4576109c46111dd565b60209081029190910101526001016109a0565b50949350505050565b6000815111610a315760405162461bcd60e51b815260206004820152601760248201527f436f6e74656e742063616e6e6f7420626520656d70747900000000000000000060448201526064016105e7565b61011881511115610a775760405162461bcd60e51b815260206004820152601060248201526f436f6e74656e7420746f6f206c6f6e6760801b60448201526064016105e7565b60025460408051632162b04d60e21b81526004810191909152600360448201526242544360e81b60648201526080602482015260066084820152651cdbd8da585b60d21b60a48201526000916001600160a01b03169063858ac1349060c401600060405180830381865afa158015610af3573d6000803e3d6000fd5b505050506040513d6000823e601f3d908101601f19168201604052610b1b9190810190611240565b600780549192506000919082610b3083611176565b909155506040805160e081018252828152336020808301918252828401888152426060808601919091526000608086018190529089015160a086015260c0850181905286815260039092529390208251815590516001820180546001600160a01b0319166001600160a01b039092169190911790559151929350916002820190610bba908261138b565b5060608201516003820155608082015160048083019190915560a083015160058084019190915560c0909301516006909201805460ff19169215159290921790915533600081815260209384526040808220805460018181018355918452868420018790559282529290935290822001805491610c3683611176565b90915550503360009081526004602052604081206002018054600a9290610c5e9084906111b1565b90915550506060820151678ac7230489e8000090600711610cb957610c8b674563918244f40000826111b1565b3360009081526004602052604081206003018054929350600592909190610cb39084906111b1565b90915550505b60015460405163a9059cbb60e01b8152336004820152602481018390526001600160a01b039091169063a9059cbb906044016020604051808303816000875af1158015610d0a573d6000803e3d6000fd5b505050506040513d601f19601f82011682018060405250810190610d2e919061118f565b50336001600160a01b0316827f35e9d1576a3cf0faf0d7e6d6fd53fcfebe5a51f7043238e20ff4125e5df657738560600151604051610d6f91815260200190565b60405180910390a350505050565b610d85610dbb565b6001600160a01b038116610daf57604051631e4fbdf760e01b8152600060048201526024016105e7565b610db881610de8565b50565b6000546001600160a01b0316331461059b5760405163118cdaa760e01b81523360048201526024016105e7565b600080546001600160a01b038381166001600160a01b0319831681178455604051919092169283917f8be0079c531659141344cd1fd0a4f28419497f9722a3daafe3b4186f6b6457e09190a35050565b600060208284031215610e4a57600080fd5b5035919050565b60005b83811015610e6c578181015183820152602001610e54565b50506000910152565b60008151808452610e8d816020860160208601610e51565b601f01601f19169290920160200192915050565b8781526001600160a01b038716602082015260e060408201819052600090610ecb90830188610e75565b90508560608301528460808301528360a083015282151560c083015298975050505050505050565b80356001600160a01b0381168114610f0a57600080fd5b919050565b600060208284031215610f2157600080fd5b610f2a82610ef3565b9392505050565b602081528151602082015260018060a01b0360208301511660408201526000604083015160e06060840152610f6a610100840182610e75565b905060608401516080840152608084015160a084015260a084015160c084015260c0840151151560e08401528091505092915050565b60008060408385031215610fb357600080fd5b610fbc83610ef3565b946020939093013593505050565b602080825282518282018190526000918401906040840190835b81811015611002578351835260209384019390920191600101610fe4565b509095945050505050565b634e487b7160e01b600052604160045260246000fd5b604051610100810167ffffffffffffffff811182821017156110475761104761100d565b60405290565b604051601f8201601f1916810167ffffffffffffffff811182821017156110765761107661100d565b604052919050565b600067ffffffffffffffff8211156110985761109861100d565b50601f01601f191660200190565b6000602082840312156110b857600080fd5b813567ffffffffffffffff8111156110cf57600080fd5b8201601f810184136110e057600080fd5b80356110f36110ee8261107e565b61104d565b81815285602083850101111561110857600080fd5b81602084016020830137600091810160200191909152949350505050565b600181811c9082168061113a57607f821691505b60208210810361115a57634e487b7160e01b600052602260045260246000fd5b50919050565b634e487b7160e01b600052601160045260246000fd5b60006001820161118857611188611160565b5060010190565b6000602082840312156111a157600080fd5b81518015158114610f2a57600080fd5b808201808211156111c4576111c4611160565b92915050565b818103818111156111c4576111c4611160565b634e487b7160e01b600052603260045260246000fd5b600082601f83011261120457600080fd5b81516112126110ee8261107e565b81815284602083860101111561122757600080fd5b611238826020830160208701610e51565b949350505050565b60006020828403121561125257600080fd5b815167ffffffffffffffff81111561126957600080fd5b8201610100818503121561127c57600080fd5b611284611023565b815167ffffffffffffffff81111561129b57600080fd5b6112a7868285016111f3565b825250602082810151908201526040808301519082015260608083015190820152608082015167ffffffffffffffff8111156112e257600080fd5b6112ee868285016111f3565b60808301525060a0828101519082015260c0808301519082015260e082015167ffffffffffffffff81111561132257600080fd5b61132e868285016111f3565b60e083015250949350505050565b601f82111561138657806000526020600020601f840160051c810160208510156113635750805b601f840160051c820191505b81811015611383576000815560010161136f565b50505b505050565b815167ffffffffffffffff8111156113a5576113a561100d565b6113b9816113b38454611126565b8461133c565b6020601f8211600181146113ed57600083156113d55750848201515b600019600385901b1c1916600184901b178455611383565b600084815260208120601f198516915b8281101561141d57878501518255602094850194600190920191016113fd565b508482101561143b5786840151600019600387901b60f8161c191681555b50505050600190811b0190555056fea26469706673582212207b3f37c25a2145f8a02e5e486a16b088634976383e800f8d2909fd7a3175cf8864736f6c634300081a0033",
  "linkReferences": {},
  "deployedLinkReferences": {}
}