{
  "_format": "hh-sol-artifact-1",
  "contractName": "BulletproofSocial",
  "sourceName": "contracts/BulletproofSocial.sol",
  "abi": [
    {
      "anonymous": false,
      "inputs": [
        {
          "indexed": true,
          "internalType": "uint256",
          "name": "id",
          "type": "uint256"
        },
        {
          "indexed": true,
          "internalType": "address",
          "name": "author",
          "type": "address"
        },
        {
          "indexed": false,
          "internalType": "string",
          "name": "content",
          "type": "string"
        }
      ],
      "name": "PostCreated",
      "type": "event"
    },
    {
      "inputs": [
        {
          "internalType": "string",
          "name": "content",
          "type": "string"
        }
      ],
      "name": "createPost",
      "outputs": [],
      "stateMutability": "nonpayable",
      "type": "function"
    },
    {
      "inputs": [
        {
          "internalType": "uint256",
          "name": "count",
          "type": "uint256"
        }
      ],
      "name": "getLatestPosts",
      "outputs": [
        {
          "components": [
            {
              "internalType": "uint256",
              "name": "id",
              "type": "uint256"
            },
            {
              "internalType": "address",
              "name": "author",
              "type": "address"
            },
            {
              "internalType": "string",
              "name": "content",
              "type": "string"
            },
            {
              "internalType": "uint256",
              "name": "timestamp",
              "type": "uint256"
            }
          ],
          "internalType": "struct BulletproofSocial.Post[]",
          "name": "",
          "type": "tuple[]"
        }
      ],
      "stateMutability": "view",
      "type": "function"
    },
    {
      "inputs": [
        {
          "internalType": "uint256",
          "name": "id",
          "type": "uint256"
        }
      ],
      "name": "getPost",
      "outputs": [
        {
          "components": [
            {
              "internalType": "uint256",
              "name": "id",
              "type": "uint256"
            },
            {
              "internalType": "address",
              "name": "author",
              "type": "address"
            },
            {
              "internalType": "string",
              "name": "content",
              "type": "string"
            },
            {
              "internalType": "uint256",
              "name": "timestamp",
              "type": "uint256"
            }
          ],
          "internalType": "struct BulletproofSocial.Post",
          "name": "",
          "type": "tuple"
        }
      ],
      "stateMutability": "view",
      "type": "function"
    },
    {
      "inputs": [],
      "name": "getTotalPosts",
      "outputs": [
        {
          "internalType": "uint256",
          "name": "",
          "type": "uint256"
        }
      ],
      "stateMutability": "view",
      "type": "function"
    },
    {
      "inputs": [
        {
          "internalType": "uint256",
          "name": "",
          "type": "uint256"
        }
      ],
      "name": "posts",
      "outputs": [
        {
          "internalType": "uint256",
          "name": "id",
          "type": "uint256"
        },
        {
          "internalType": "address",
          "name": "author",
          "type": "address"
        },
        {
          "internalType": "string",
          "name": "content",
          "type": "string"
        },
        {
          "internalType": "uint256",
          "name": "timestamp",
          "type": "uint256"
        }
      ],
      "stateMutability": "view",
      "type": "function"
    },
    {
      "inputs": [],
      "name": "totalPosts",
      "outputs": [
        {
          "internalType": "uint256",
          "name": "",
          "type": "uint256"
        }
      ],
      "stateMutability": "view",
      "type": "function"
    }
  ],
  "bytecode": "0x6080604052348015600f57600080fd5b50610a518061001f6000396000f3fe608060405234801561001057600080fd5b50600436106100625760003560e01c80630b1e7f831461006757806340731c24146100935780635fe226b4146100b35780638c82d066146100c55780638e53fb41146100e5578063c7303c61146100ee575b600080fd5b61007a610075366004610635565b610103565b60405161008a9493929190610694565b60405180910390f35b6100a66100a1366004610635565b6101be565b60405161008a9190610714565b6001545b60405190815260200161008a565b6100d86100d3366004610635565b61031d565b60405161008a919061072e565b6100b760015481565b6101016100fc3660046107a9565b6104d6565b005b60006020819052908152604090208054600182015460028301805492936001600160a01b039092169261013590610862565b80601f016020809104026020016040519081016040528092919081815260200182805461016190610862565b80156101ae5780601f10610183576101008083540402835291602001916101ae565b820191906000526020600020905b81548152906001019060200180831161019157829003601f168201915b5050505050908060030154905084565b6101f260405180608001604052806000815260200160006001600160a01b0316815260200160608152602001600081525090565b60008211801561020457506001548211155b6102425760405162461bcd60e51b815260206004820152600a602482015269125b9d985b1a5908125160b21b60448201526064015b60405180910390fd5b6000828152602081815260409182902082516080810184528154815260018201546001600160a01b031692810192909252600281018054929391929184019161028a90610862565b80601f01602080910402602001604051908101604052809291908181526020018280546102b690610862565b80156103035780601f106102d857610100808354040283529160200191610303565b820191906000526020600020905b8154815290600101906020018083116102e657829003601f168201915b505050505081526020016003820154815250509050919050565b6060600060015483116103305782610334565b6001545b905060008167ffffffffffffffff81111561035157610351610793565b6040519080825280602002602001820160405280156103b657816020015b6103a360405180608001604052806000815260200160006001600160a01b0316815260200160608152602001600081525090565b81526020019060019003908161036f5790505b50905060005b828110156104ce57600080826001546103d591906108b2565b8152602080820192909252604090810160002081516080810183528154815260018201546001600160a01b031693810193909352600281018054919284019161041d90610862565b80601f016020809104026020016040519081016040528092919081815260200182805461044990610862565b80156104965780601f1061046b57610100808354040283529160200191610496565b820191906000526020600020905b81548152906001019060200180831161047957829003601f168201915b505050505081526020016003820154815250508282815181106104bb576104bb6108cb565b60209081029190910101526001016103bc565b509392505050565b60008151116105175760405162461bcd60e51b815260206004820152600d60248201526c115b5c1d1e4818dbdb9d195b9d609a1b6044820152606401610239565b6101f48151111561055d5760405162461bcd60e51b815260206004820152601060248201526f436f6e74656e7420746f6f206c6f6e6760801b6044820152606401610239565b6001805490600061056d836108e1565b909155505060408051608081018252600180548083523360208085019182528486018781524260608701526000938452908390529490912083518155905191810180546001600160a01b0319166001600160a01b0390931692909217909155915190919060028201906105e09082610949565b5060608201518160030155905050336001600160a01b03166001547f8e40a51278abe2f4b410c0a96ff0bdd024b22666ca334062bf72afd596984bd68360405161062a9190610a08565b60405180910390a350565b60006020828403121561064757600080fd5b5035919050565b6000815180845260005b8181101561067457602081850181015186830182015201610658565b506000602082860101526020601f19601f83011685010191505092915050565b8481526001600160a01b03841660208201526080604082018190526000906106be9083018561064e565b905082606083015295945050505050565b8051825260018060a01b0360208201511660208301526000604082015160806040850152610700608085018261064e565b606093840151949093019390935250919050565b60208152600061072760208301846106cf565b9392505050565b6000602082016020835280845180835260408501915060408160051b86010192506020860160005b8281101561078757603f198786030184526107728583516106cf565b94506020938401939190910190600101610756565b50929695505050505050565b634e487b7160e01b600052604160045260246000fd5b6000602082840312156107bb57600080fd5b813567ffffffffffffffff8111156107d257600080fd5b8201601f810184136107e357600080fd5b803567ffffffffffffffff8111156107fd576107fd610793565b604051601f8201601f19908116603f0116810167ffffffffffffffff8111828210171561082c5761082c610793565b60405281815282820160200186101561084457600080fd5b81602084016020830137600091810160200191909152949350505050565b600181811c9082168061087657607f821691505b60208210810361089657634e487b7160e01b600052602260045260246000fd5b50919050565b634e487b7160e01b600052601160045260246000fd5b818103818111156108c5576108c561089c565b92915050565b634e487b7160e01b600052603260045260246000fd5b6000600182016108f3576108f361089c565b5060010190565b601f82111561094457806000526020600020601f840160051c810160208510156109215750805b601f840160051c820191505b81811015610941576000815560010161092d565b50505b505050565b815167ffffffffffffffff81111561096357610963610793565b610977816109718454610862565b846108fa565b6020601f8211600181146109ab57600083156109935750848201515b600019600385901b1c1916600184901b178455610941565b600084815260208120601f198516915b828110156109db57878501518255602094850194600190920191016109bb565b50848210156109f95786840151600019600387901b60f8161c191681555b50505050600190811b01905550565b602081526000610727602083018461064e56fea2646970667358221220a1a7a100d8f8caac53537c61b5d4b8ecd76ef573f77ae9bb1021e4162da20fe264736f6c634300081a0033",
  "linkReferences": {},
  "deployedLinkReferences": {}
}