{
  "_format": "hh-sol-artifact-1",
  "contractName": "GameFiCore",
  "sourceName": "contracts/GameFi.sol",
  "abi": [
    {
      "inputs": [
        {
          "internalType": "address",
          "name": "_guiToken",
          "type": "address"
        },
        {
          "internalType": "address",
          "name": "_aiOracle",
          "type": "address"
        }
      ],
      "stateMutability": "nonpayable",
      "type": "constructor"
    },
    {
      "inputs": [
        {
          "internalType": "address",
          "name": "owner",
          "type": "address"
        }
      ],
      "name": "OwnableInvalidOwner",
      "type": "error"
    },
    {
      "inputs": [
        {
          "internalType": "address",
          "name": "account",
          "type": "address"
        }
      ],
      "name": "OwnableUnauthorizedAccount",
      "type": "error"
    },
    {
      "anonymous": false,
      "inputs": [
        {
          "indexed": true,
          "internalType": "address",
          "name": "player",
          "type": "address"
        },
        {
          "indexed": false,
          "internalType": "uint256",
          "name": "bonus",
          "type": "uint256"
        }
      ],
      "name": "AIBonusAwarded",
      "type": "event"
    },
    {
      "anonymous": false,
      "inputs": [
        {
          "indexed": true,
          "internalType": "address",
          "name": "previousOwner",
          "type": "address"
        },
        {
          "indexed": true,
          "internalType": "address",
          "name": "newOwner",
          "type": "address"
        }
      ],
      "name": "OwnershipTransferred",
      "type": "event"
    },
    {
      "anonymous": false,
      "inputs": [
        {
          "indexed": true,
          "internalType": "address",
          "name": "player",
          "type": "address"
        },
        {
          "indexed": true,
          "internalType": "uint256",
          "name": "predictionId",
          "type": "uint256"
        },
        {
          "indexed": false,
          "internalType": "uint256",
          "name": "playerPrice",
          "type": "uint256"
        },
        {
          "indexed": false,
          "internalType": "uint256",
          "name": "aiPrice",
          "type": "uint256"
        },
        {
          "indexed": false,
          "internalType": "string",
          "name": "asset",
          "type": "string"
        }
      ],
      "name": "PredictionMade",
      "type": "event"
    },
    {
      "anonymous": false,
      "inputs": [
        {
          "indexed": true,
          "internalType": "address",
          "name": "player",
          "type": "address"
        },
        {
          "indexed": true,
          "internalType": "uint256",
          "name": "questId",
          "type": "uint256"
        },
        {
          "indexed": false,
          "internalType": "uint256",
          "name": "reward",
          "type": "uint256"
        }
      ],
      "name": "QuestCompleted",
      "type": "event"
    },
    {
      "anonymous": false,
      "inputs": [
        {
          "indexed": true,
          "internalType": "uint256",
          "name": "questId",
          "type": "uint256"
        },
        {
          "indexed": false,
          "internalType": "string",
          "name": "title",
          "type": "string"
        },
        {
          "indexed": false,
          "internalType": "uint256",
          "name": "reward",
          "type": "uint256"
        }
      ],
      "name": "QuestCreated",
      "type": "event"
    },
    {
      "inputs": [],
      "name": "AI_FOLLOW_BONUS",
      "outputs": [
        {
          "internalType": "uint256",
          "name": "",
          "type": "uint256"
        }
      ],
      "stateMutability": "view",
      "type": "function"
    },
    {
      "inputs": [],
      "name": "BASE_REWARD",
      "outputs": [
        {
          "internalType": "uint256",
          "name": "",
          "type": "uint256"
        }
      ],
      "stateMutability": "view",
      "type": "function"
    },
    {
      "inputs": [],
      "name": "aiOracle",
      "outputs": [
        {
          "internalType": "address",
          "name": "",
          "type": "address"
        }
      ],
      "stateMutability": "view",
      "type": "function"
    },
    {
      "inputs": [
        {
          "internalType": "uint256",
          "name": "questId",
          "type": "uint256"
        }
      ],
      "name": "completeQuest",
      "outputs": [],
      "stateMutability": "nonpayable",
      "type": "function"
    },
    {
      "inputs": [
        {
          "internalType": "address",
          "name": "",
          "type": "address"
        },
        {
          "internalType": "uint256",
          "name": "",
          "type": "uint256"
        }
      ],
      "name": "completedQuests",
      "outputs": [
        {
          "internalType": "bool",
          "name": "",
          "type": "bool"
        }
      ],
      "stateMutability": "view",
      "type": "function"
    },
    {
      "inputs": [
        {
          "internalType": "string",
          "name": "title",
          "type": "string"
        },
        {
          "internalType": "string",
          "name": "description",
          "type": "string"
        },
        {
          "internalType": "string",
          "name": "questType",
          "type": "string"
        },
        {
          "internalType": "uint256",
          "name": "reward",
          "type": "uint256"
        },
        {
          "internalType": "uint256",
          "name": "duration",
          "type": "uint256"
        }
      ],
      "name": "createQuest",
      "outputs": [],
      "stateMutability": "nonpayable",
      "type": "function"
    },
    {
      "inputs": [],
      "name": "getActiveQuests",
      "outputs": [
        {
          "components": [
            {
              "internalType": "uint256",
              "name": "id",
              "type": "uint256"
            },
            {
              "internalType": "string",
              "name": "title",
              "type": "string"
            },
            {
              "internalType": "string",
              "name": "description",
              "type": "string"
            },
            {
              "internalType": "string",
              "name": "questType",
              "type": "string"
            },
            {
              "internalType": "uint256",
              "name": "reward",
              "type": "uint256"
            },
            {
              "internalType": "uint256",
              "name": "deadline",
              "type": "uint256"
            },
            {
              "internalType": "bool",
              "name": "active",
              "type": "bool"
            }
          ],
          "internalType": "struct GameFiCore.Quest[]",
          "name": "",
          "type": "tuple[]"
        }
      ],
      "stateMutability": "view",
      "type": "function"
    },
    {
      "inputs": [
        {
          "internalType": "address",
          "name": "player",
          "type": "address"
        }
      ],
      "name": "getPlayerPredictions",
      "outputs": [
        {
          "internalType": "uint256[]",
          "name": "",
          "type": "uint256[]"
        }
      ],
      "stateMutability": "view",
      "type": "function"
    },
    {
      "inputs": [
        {
          "internalType": "address",
          "name": "player",
          "type": "address"
        }
      ],
      "name": "getPlayerStats",
      "outputs": [
        {
          "internalType": "uint256",
          "name": "score",
          "type": "uint256"
        },
        {
          "internalType": "uint256",
          "name": "totalPredictions",
          "type": "uint256"
        },
        {
          "internalType": "uint256",
          "name": "correctPredictions",
          "type": "uint256"
        },
        {
          "internalType": "uint256",
          "name": "aiFollowScore",
          "type": "uint256"
        },
        {
          "internalType": "uint256",
          "name": "accuracy",
          "type": "uint256"
        }
      ],
      "stateMutability": "view",
      "type": "function"
    },
    {
      "inputs": [
        {
          "internalType": "uint256",
          "name": "predictionId",
          "type": "uint256"
        }
      ],
      "name": "getPrediction",
      "outputs": [
        {
          "components": [
            {
              "internalType": "address",
              "name": "player",
              "type": "address"
            },
            {
              "internalType": "uint256",
              "name": "predictedPrice",
              "type": "uint256"
            },
            {
              "internalType": "uint256",
              "name": "aiPredictedPrice",
              "type": "uint256"
            },
            {
              "internalType": "uint256",
              "name": "actualPrice",
              "type": "uint256"
            },
            {
              "internalType": "uint256",
              "name": "playerConfidence",
              "type": "uint256"
            },
            {
              "internalType": "uint256",
              "name": "aiConfidence",
              "type": "uint256"
            },
            {
              "internalType": "uint256",
              "name": "timestamp",
              "type": "uint256"
            },
            {
              "internalType": "bool",
              "name": "resolved",
              "type": "bool"
            },
            {
              "internalType": "bool",
              "name": "playerCorrect",
              "type": "bool"
            },
            {
              "internalType": "bool",
              "name": "aiCorrect",
              "type": "bool"
            },
            {
              "internalType": "string",
              "name": "asset",
              "type": "string"
            }
          ],
          "internalType": "struct GameFiCore.Prediction",
          "name": "",
          "type": "tuple"
        }
      ],
      "stateMutability": "view",
      "type": "function"
    },
    {
      "inputs": [
        {
          "internalType": "uint256",
          "name": "questId",
          "type": "uint256"
        }
      ],
      "name": "getQuest",
      "outputs": [
        {
          "components": [
            {
              "internalType": "uint256",
              "name": "id",
              "type": "uint256"
            },
            {
              "internalType": "string",
              "name": "title",
              "type": "string"
            },
            {
              "internalType": "string",
              "name": "description",
              "type": "string"
            },
            {
              "internalType": "string",
              "name": "questType",
              "type": "string"
            },
            {
              "internalType": "uint256",
              "name": "reward",
              "type": "uint256"
            },
            {
              "internalType": "uint256",
              "name": "deadline",
              "type": "uint256"
            },
            {
              "internalType": "bool",
              "name": "active",
              "type": "bool"
            }
          ],
          "internalType": "struct GameFiCore.Quest",
          "name": "",
          "type": "tuple"
        }
      ],
      "stateMutability": "view",
      "type": "function"
    },
    {
      "inputs": [],
      "name": "guiToken",
      "outputs": [
        {
          "internalType": "address",
          "name": "",
          "type": "address"
        }
      ],
      "stateMutability": "view",
      "type": "function"
    },
    {
      "inputs": [
        {
          "internalType": "uint256",
          "name": "predictedPrice",
          "type": "uint256"
        },
        {
          "internalType": "string",
          "name": "asset",
          "type": "string"
        },
        {
          "internalType": "uint256",
          "name": "confidence",
          "type": "uint256"
        }
      ],
      "name": "makeAIPrediction",
      "outputs": [],
      "stateMutability": "nonpayable",
      "type": "function"
    },
    {
      "inputs": [],
      "name": "nextPredictionId",
      "outputs": [
        {
          "internalType": "uint256",
          "name": "",
          "type": "uint256"
        }
      ],
      "stateMutability": "view",
      "type": "function"
    },
    {
      "inputs": [],
      "name": "nextQuestId",
      "outputs": [
        {
          "internalType": "uint256",
          "name": "",
          "type": "uint256"
        }
      ],
      "stateMutability": "view",
      "type": "function"
    },
    {
      "inputs": [],
      "name": "owner",
      "outputs": [
        {
          "internalType": "address",
          "name": "",
          "type": "address"
        }
      ],
      "stateMutability": "view",
      "type": "function"
    },
    {
      "inputs": [
        {
          "internalType": "address",
          "name": "",
          "type": "address"
        },
        {
          "internalType": "uint256",
          "name": "",
          "type": "uint256"
        }
      ],
      "name": "playerPredictions",
      "outputs": [
        {
          "internalType": "uint256",
          "name": "",
          "type": "uint256"
        }
      ],
      "stateMutability": "view",
      "type": "function"
    },
    {
      "inputs": [
        {
          "internalType": "address",
          "name": "",
          "type": "address"
        }
      ],
      "name": "players",
      "outputs": [
        {
          "internalType": "uint256",
          "name": "score",
          "type": "uint256"
        },
        {
          "internalType": "uint256",
          "name": "totalPredictions",
          "type": "uint256"
        },
        {
          "internalType": "uint256",
          "name": "correctPredictions",
          "type": "uint256"
        },
        {
          "internalType": "uint256",
          "name": "stakedAmount",
          "type": "uint256"
        },
        {
          "internalType": "uint256",
          "name": "aiFollowScore",
          "type": "uint256"
        },
        {
          "internalType": "string",
          "name": "preferredAsset",
          "type": "string"
        }
      ],
      "stateMutability": "view",
      "type": "function"
    },
    {
      "inputs": [
        {
          "internalType": "uint256",
          "name": "",
          "type": "uint256"
        }
      ],
      "name": "predictions",
      "outputs": [
        {
          "internalType": "address",
          "name": "player",
          "type": "address"
        },
        {
          "internalType": "uint256",
          "name": "predictedPrice",
          "type": "uint256"
        },
        {
          "internalType": "uint256",
          "name": "aiPredictedPrice",
          "type": "uint256"
        },
        {
          "internalType": "uint256",
          "name": "actualPrice",
          "type": "uint256"
        },
        {
          "internalType": "uint256",
          "name": "playerConfidence",
          "type": "uint256"
        },
        {
          "internalType": "uint256",
          "name": "aiConfidence",
          "type": "uint256"
        },
        {
          "internalType": "uint256",
          "name": "timestamp",
          "type": "uint256"
        },
        {
          "internalType": "bool",
          "name": "resolved",
          "type": "bool"
        },
        {
          "internalType": "bool",
          "name": "playerCorrect",
          "type": "bool"
        },
        {
          "internalType": "bool",
          "name": "aiCorrect",
          "type": "bool"
        },
        {
          "internalType": "string",
          "name": "asset",
          "type": "string"
        }
      ],
      "stateMutability": "view",
      "type": "function"
    },
    {
      "inputs": [
        {
          "internalType": "uint256",
          "name": "",
          "type": "uint256"
        }
      ],
      "name": "quests",
      "outputs": [
        {
          "internalType": "uint256",
          "name": "id",
          "type": "uint256"
        },
        {
          "internalType": "string",
          "name": "title",
          "type": "string"
        },
        {
          "internalType": "string",
          "name": "description",
          "type": "string"
        },
        {
          "internalType": "string",
          "name": "questType",
          "type": "string"
        },
        {
          "internalType": "uint256",
          "name": "reward",
          "type": "uint256"
        },
        {
          "internalType": "uint256",
          "name": "deadline",
          "type": "uint256"
        },
        {
          "internalType": "bool",
          "name": "active",
          "type": "bool"
        }
      ],
      "stateMutability": "view",
      "type": "function"
    },
    {
      "inputs": [],
      "name": "renounceOwnership",
      "outputs": [],
      "stateMutability": "nonpayable",
      "type": "function"
    },
    {
      "inputs": [
        {
          "internalType": "uint256",
          "name": "predictionId",
          "type": "uint256"
        },
        {
          "internalType": "uint256",
          "name": "actualPrice",
          "type": "uint256"
        }
      ],
      "name": "resolvePrediction",
      "outputs": [],
      "stateMutability": "nonpayable",
      "type": "function"
    },
    {
      "inputs": [
        {
          "internalType": "address",
          "name": "newOwner",
          "type": "address"
        }
      ],
      "name": "transferOwnership",
      "outputs": [],
      "stateMutability": "nonpayable",
      "type": "function"
    }
  ],
  "bytecode": "0x6080604052600160095534801561001557600080fd5b5060405161259038038061259083398101604081905261003491610101565b338061005a57604051631e4fbdf760e01b81526000600482015260240160405180910390fd5b61006381610095565b50600180546001600160a01b039384166001600160a01b03199182161790915560028054929093169116179055610134565b600080546001600160a01b038381166001600160a01b0319831681178455604051919092169283917f8be0079c531659141344cd1fd0a4f28419497f9722a3daafe3b4186f6b6457e09190a35050565b80516001600160a01b03811681146100fc57600080fd5b919050565b6000806040838503121561011457600080fd5b61011d836100e5565b915061012b602084016100e5565b90509250929050565b61244d806101436000396000f3fe608060405234801561001057600080fd5b506004361061014c5760003560e01c806393d20d55116100c3578063e2eb41ff1161007c578063e2eb41ff1461030b578063e6ec3cf914610330578063f2fde38b14610343578063f88630c714610356578063fe83bece14610394578063fefac3db146103b457600080fd5b806393d20d551461028d578063993c44f0146102a0578063cc6e20a1146102b3578063d638c983146102d3578063d8d9292e146102dc578063e085f980146102e557600080fd5b80634fd66eae116101155780634fd66eae14610202578063528be0a91461023d57806359314dfc1461025257806364517a6314610261578063715018a6146102745780638da5cb5b1461027c57600080fd5b80624fbbb014610151578063029a8c581461018457806322009af61461019957806331b221cd146101b757806349f86f34146101e2575b600080fd5b61016461015f366004611a78565b6103c7565b60405161017b9b9a99989796959493929190611ae1565b60405180910390f35b61018c6104bd565b60405161017b9190611bd3565b6101a96801158e460913d0000081565b60405190815260200161017b565b6002546101ca906001600160a01b031681565b6040516001600160a01b03909116815260200161017b565b6101f56101f0366004611a78565b610835565b60405161017b9190611c38565b610215610210366004611c6e565b610a7f565b604080519586526020860194909452928401919091526060830152608082015260a00161017b565b61025061024b366004611a78565b610bd6565b005b6101a9678ac7230489e8000081565b61025061026f366004611d75565b610df4565b610250610f14565b6000546001600160a01b03166101ca565b61025061029b366004611e18565b610f28565b6001546101ca906001600160a01b031681565b6102c66102c1366004611c6e565b6111ac565b60405161017b9190611e68565b6101a960095481565b6101a960085481565b6102f86102f3366004611a78565b611218565b60405161017b9796959493929190611eab565b61031e610319366004611c6e565b6113f0565b60405161017b96959493929190611f0c565b6101a961033e366004611f49565b6114b4565b610250610351366004611c6e565b6114e5565b610384610364366004611f49565b600760209081526000928352604080842090915290825290205460ff1681565b604051901515815260200161017b565b6103a76103a2366004611a78565b611523565b60405161017b9190611f73565b6102506103c2366004612023565b6116c7565b60046020819052600091825260409091208054600182015460028301546003840154948401546005850154600686015460078701546008880180546001600160a01b03909816999698959794959394929360ff808416946101008504821694620100009004909116929061043a90612045565b80601f016020809104026020016040519081016040528092919081815260200182805461046690612045565b80156104b35780601f10610488576101008083540402835291602001916104b3565b820191906000526020600020905b81548152906001019060200180831161049657829003601f168201915b505050505090508b565b6060600060015b60095481101561051c576000818152600660208190526040909120015460ff16801561050157506000818152600660205260409020600501544211155b15610514578161051081612095565b9250505b6001016104c4565b506000816001600160401b0381111561053757610537611c89565b6040519080825280602002602001820160405280156105aa57816020015b6105976040518060e001604052806000815260200160608152602001606081526020016060815260200160008152602001600081526020016000151581525090565b8152602001906001900390816105555790505b509050600060015b60095481101561082c576000818152600660208190526040909120015460ff1680156105ef57506000818152600660205260409020600501544211155b1561082457600660008281526020019081526020016000206040518060e00160405290816000820154815260200160018201805461062c90612045565b80601f016020809104026020016040519081016040528092919081815260200182805461065890612045565b80156106a55780601f1061067a576101008083540402835291602001916106a5565b820191906000526020600020905b81548152906001019060200180831161068857829003601f168201915b505050505081526020016002820180546106be90612045565b80601f01602080910402602001604051908101604052809291908181526020018280546106ea90612045565b80156107375780601f1061070c57610100808354040283529160200191610737565b820191906000526020600020905b81548152906001019060200180831161071a57829003601f168201915b5050505050815260200160038201805461075090612045565b80601f016020809104026020016040519081016040528092919081815260200182805461077c90612045565b80156107c95780601f1061079e576101008083540402835291602001916107c9565b820191906000526020600020905b8154815290600101906020018083116107ac57829003601f168201915b5050509183525050600482015460208201526005820154604082015260069091015460ff161515606090910152835184908490811061080a5761080a6120ae565b6020026020010181905250818061082090612095565b9250505b6001016105b2565b50909392505050565b6108776040518060e001604052806000815260200160608152602001606081526020016060815260200160008152602001600081526020016000151581525090565b600660008381526020019081526020016000206040518060e0016040529081600082015481526020016001820180546108af90612045565b80601f01602080910402602001604051908101604052809291908181526020018280546108db90612045565b80156109285780601f106108fd57610100808354040283529160200191610928565b820191906000526020600020905b81548152906001019060200180831161090b57829003601f168201915b5050505050815260200160028201805461094190612045565b80601f016020809104026020016040519081016040528092919081815260200182805461096d90612045565b80156109ba5780601f1061098f576101008083540402835291602001916109ba565b820191906000526020600020905b81548152906001019060200180831161099d57829003601f168201915b505050505081526020016003820180546109d390612045565b80601f01602080910402602001604051908101604052809291908181526020018280546109ff90612045565b8015610a4c5780601f10610a2157610100808354040283529160200191610a4c565b820191906000526020600020905b815481529060010190602001808311610a2f57829003601f168201915b5050509183525050600482015460208201526005820154604082015260069091015460ff16151560609091015292915050565b60008060008060008060036000886001600160a01b03166001600160a01b031681526020019081526020016000206040518060c00160405290816000820154815260200160018201548152602001600282015481526020016003820154815260200160048201548152602001600582018054610afa90612045565b80601f0160208091040260200160405190810160405280929190818152602001828054610b2690612045565b8015610b735780601f10610b4857610100808354040283529160200191610b73565b820191906000526020600020905b815481529060010190602001808311610b5657829003601f168201915b5050505050815250509050600080826020015111610b92576000610bb1565b60208201516040830151610ba79060646120c4565b610bb191906120db565b825160208401516040850151608090950151919b909a50939850965094509092505050565b60008181526006602081905260409091209081015460ff16610c325760405162461bcd60e51b815260206004820152601060248201526f5175657374206e6f742061637469766560801b60448201526064015b60405180910390fd5b8060050154421115610c765760405162461bcd60e51b815260206004820152600d60248201526c145d595cdd08195e1c1a5c9959609a1b6044820152606401610c29565b33600090815260076020908152604080832085845290915290205460ff1615610cd55760405162461bcd60e51b8152602060048201526011602482015270105b1c9958591e4818dbdb5c1b195d1959607a1b6044820152606401610c29565b33600081815260076020908152604080832086845290915290819020805460ff1916600190811790915554600484810154925163a9059cbb60e01b81529081019390935260248301919091526001600160a01b03169063a9059cbb906044016020604051808303816000875af1158015610d53573d6000803e3d6000fd5b505050506040513d601f19601f82011682018060405250810190610d7791906120fd565b50670de0b6b3a76400008160040154610d9091906120db565b3360009081526003602052604081208054909190610daf90849061211f565b90915550506004810154604051908152829033907fe0b5124b12e878158288d1002ed1fb960faff0ec1c7b3168f86d9d1afd1b0d8b9060200160405180910390a35050565b610dfc6119a1565b6009805460009182610e0d83612095565b9190505590506040518060e001604052808281526020018781526020018681526020018581526020018481526020018342610e48919061211f565b81526001602091820181905260008481526006835260409020835181559183015190820190610e779082612181565b5060408201516002820190610e8c9082612181565b5060608201516003820190610ea19082612181565b506080820151600482015560a0820151600582015560c0909101516006909101805460ff191691151591909117905560405181907f5a053b0d56754cd3a270176122cefeb5c24c7b584cc5f37a0c623cfae3e0259f90610f04908990879061223f565b60405180910390a2505050505050565b610f1c6119a1565b610f2660006119ce565b565b600254604051632162b04d60e21b81526000916001600160a01b03169063858ac13490610f59908690600401612261565b600060405180830381865afa158015610f76573d6000803e3d6000fd5b505050506040513d6000823e601f3d908101601f19168201604052610f9e91908101906122e4565b600880549192506000919082610fb383612095565b919050559050604051806101600160405280336001600160a01b0316815260200186815260200183604001518152602001600081526020018481526020018360a001518152602001428152602001600015158152602001600015158152602001600015158152602001858152506004600083815260200190815260200160002060008201518160000160006101000a8154816001600160a01b0302191690836001600160a01b031602179055506020820151816001015560408201518160020155606082015181600301556080820151816004015560a0820151816005015560c0820151816006015560e08201518160070160006101000a81548160ff0219169083151502179055506101008201518160070160016101000a81548160ff0219169083151502179055506101208201518160070160026101000a81548160ff0219169083151502179055506101408201518160080190816111149190612181565b50503360008181526005602090815260408083208054600181810183559185528385200187905593835260039091528120909101805492509061115683612095565b919050555080336001600160a01b03167fd1e30cc22e4c638d510eca0e3931264a6b6b5bafe86850a2ac52ec2719241c0d8785604001518860405161119d939291906123dc565b60405180910390a35050505050565b6001600160a01b03811660009081526005602090815260409182902080548351818402810184019094528084526060939283018282801561120c57602002820191906000526020600020905b8154815260200190600101908083116111f8575b50505050509050919050565b6006602052600090815260409020805460018201805491929161123a90612045565b80601f016020809104026020016040519081016040528092919081815260200182805461126690612045565b80156112b35780601f10611288576101008083540402835291602001916112b3565b820191906000526020600020905b81548152906001019060200180831161129657829003601f168201915b5050505050908060020180546112c890612045565b80601f01602080910402602001604051908101604052809291908181526020018280546112f490612045565b80156113415780601f1061131657610100808354040283529160200191611341565b820191906000526020600020905b81548152906001019060200180831161132457829003601f168201915b50505050509080600301805461135690612045565b80601f016020809104026020016040519081016040528092919081815260200182805461138290612045565b80156113cf5780601f106113a4576101008083540402835291602001916113cf565b820191906000526020600020905b8154815290600101906020018083116113b257829003601f168201915b50505050600483015460058401546006909401549293909290915060ff1687565b600360205280600052604060002060009150905080600001549080600101549080600201549080600301549080600401549080600501805461143190612045565b80601f016020809104026020016040519081016040528092919081815260200182805461145d90612045565b80156114aa5780601f1061147f576101008083540402835291602001916114aa565b820191906000526020600020905b81548152906001019060200180831161148d57829003601f168201915b5050505050905086565b600560205281600052604060002081815481106114d057600080fd5b90600052602060002001600091509150505481565b6114ed6119a1565b6001600160a01b03811661151757604051631e4fbdf760e01b815260006004820152602401610c29565b611520816119ce565b50565b61158f60405180610160016040528060006001600160a01b03168152602001600081526020016000815260200160008152602001600081526020016000815260200160008152602001600015158152602001600015158152602001600015158152602001606081525090565b60008281526004602081815260409283902083516101608101855281546001600160a01b0316815260018201549281019290925260028101549382019390935260038301546060820152908201546080820152600582015460a0820152600682015460c0820152600782015460ff808216151560e08401526101008083048216151590840152620100009091041615156101208201526008820180549192916101408401919061163e90612045565b80601f016020809104026020016040519081016040528092919081815260200182805461166a90612045565b80156116b75780601f1061168c576101008083540402835291602001916116b7565b820191906000526020600020905b81548152906001019060200180831161169a57829003601f168201915b5050505050815250509050919050565b6116cf6119a1565b6000828152600460205260409020600781015460ff16156117255760405162461bcd60e51b815260206004820152601060248201526f105b1c9958591e481c995cdbdb1d995960821b6044820152606401610c29565b6003810182905560078101805460ff19166001908117909155810154600090831061175e5760018201546117599084612404565b61176e565b82826001015461176e9190612404565b905060008383600201541161179157600283015461178c9085612404565b6117a1565b8383600201546117a19190612404565b905060006005856117b38560646120c4565b6117bd91906120db565b1115905060006005866117d18560646120c4565b6117db91906120db565b60078701805462010000939092111592830262ff00001986158015610100029190911662ffff00199094169390931717905586546001600160a01b03166000908152600360205260408120929350906119965760028201805490600061184083612095565b9091555061185990506801158e460913d000008261211f565b9050828015611875575061187587600101548860020154611a1e565b156118f25761188c678ac7230489e800008261211f565b9050600a8260040160008282546118a3919061211f565b90915550508654604051678ac7230489e8000081526001600160a01b03909116907f0c4772bdd191c33bdac1fcbe019ad92f6ae3d87e226fd0f2613d3809c0b0a7e99060200160405180910390a25b600154875460405163a9059cbb60e01b81526001600160a01b0391821660048201526024810184905291169063a9059cbb906044016020604051808303816000875af1158015611946573d6000803e3d6000fd5b505050506040513d601f19601f8201168201806040525081019061196a91906120fd565b5061197d670de0b6b3a7640000826120db565b826000016000828254611990919061211f565b90915550505b505050505050505050565b6000546001600160a01b03163314610f265760405163118cdaa760e01b8152336004820152602401610c29565b600080546001600160a01b038381166001600160a01b0319831681178455604051919092169283917f8be0079c531659141344cd1fd0a4f28419497f9722a3daafe3b4186f6b6457e09190a35050565b600081600003611a3057506000611a72565b6000828411611a4857611a438484612404565b611a52565b611a528385612404565b9050600a83611a628360646120c4565b611a6c91906120db565b11159150505b92915050565b600060208284031215611a8a57600080fd5b5035919050565b60005b83811015611aac578181015183820152602001611a94565b50506000910152565b60008151808452611acd816020860160208601611a91565b601f01601f19169290920160200192915050565b60018060a01b038c1681528a60208201528960408201528860608201528760808201528660a08201528560c082015284151560e08201528315156101008201528215156101208201526101606101408201526000611b43610160830184611ab5565b9d9c50505050505050505050505050565b805182526000602082015160e06020850152611b7360e0850182611ab5565b905060408301518482036040860152611b8c8282611ab5565b91505060608301518482036060860152611ba68282611ab5565b9150506080830151608085015260a083015160a085015260c0830151151560c08501528091505092915050565b6000602082016020835280845180835260408501915060408160051b86010192506020860160005b82811015611c2c57603f19878603018452611c17858351611b54565b94506020938401939190910190600101611bfb565b50929695505050505050565b602081526000611c4b6020830184611b54565b9392505050565b80356001600160a01b0381168114611c6957600080fd5b919050565b600060208284031215611c8057600080fd5b611c4b82611c52565b634e487b7160e01b600052604160045260246000fd5b60405161010081016001600160401b0381118282101715611cc257611cc2611c89565b60405290565b604051601f8201601f191681016001600160401b0381118282101715611cf057611cf0611c89565b604052919050565b60006001600160401b03821115611d1157611d11611c89565b50601f01601f191660200190565b600082601f830112611d3057600080fd5b8135611d43611d3e82611cf8565b611cc8565b818152846020838601011115611d5857600080fd5b816020850160208301376000918101602001919091529392505050565b600080600080600060a08688031215611d8d57600080fd5b85356001600160401b03811115611da357600080fd5b611daf88828901611d1f565b95505060208601356001600160401b03811115611dcb57600080fd5b611dd788828901611d1f565b94505060408601356001600160401b03811115611df357600080fd5b611dff88828901611d1f565b9598949750949560608101359550608001359392505050565b600080600060608486031215611e2d57600080fd5b8335925060208401356001600160401b03811115611e4a57600080fd5b611e5686828701611d1f565b93969395505050506040919091013590565b602080825282518282018190526000918401906040840190835b81811015611ea0578351835260209384019390920191600101611e82565b509095945050505050565b87815260e060208201526000611ec460e0830189611ab5565b8281036040840152611ed68189611ab5565b90508281036060840152611eea8188611ab5565b6080840196909652505060a0810192909252151560c090910152949350505050565b86815285602082015284604082015283606082015282608082015260c060a08201526000611f3d60c0830184611ab5565b98975050505050505050565b60008060408385031215611f5c57600080fd5b611f6583611c52565b946020939093013593505050565b60208152611f8d6020820183516001600160a01b03169052565b602082015160408201526040820151606082015260608201516080820152608082015160a082015260a082015160c082015260c082015160e0820152600060e0830151611fdf61010084018215159052565b5061010083015180151561012084015250610120830151801515610140840152506101408301516101608084015261201b610180840182611ab5565b949350505050565b6000806040838503121561203657600080fd5b50508035926020909101359150565b600181811c9082168061205957607f821691505b60208210810361207957634e487b7160e01b600052602260045260246000fd5b50919050565b634e487b7160e01b600052601160045260246000fd5b6000600182016120a7576120a761207f565b5060010190565b634e487b7160e01b600052603260045260246000fd5b8082028115828204841417611a7257611a7261207f565b6000826120f857634e487b7160e01b600052601260045260246000fd5b500490565b60006020828403121561210f57600080fd5b81518015158114611c4b57600080fd5b80820180821115611a7257611a7261207f565b601f82111561217c57806000526020600020601f840160051c810160208510156121595750805b601f840160051c820191505b818110156121795760008155600101612165565b50505b505050565b81516001600160401b0381111561219a5761219a611c89565b6121ae816121a88454612045565b84612132565b6020601f8211600181146121e257600083156121ca5750848201515b600019600385901b1c1916600184901b178455612179565b600084815260208120601f198516915b8281101561221257878501518255602094850194600190920191016121f2565b50848210156122305786840151600019600387901b60f8161c191681555b50505050600190811b01905550565b6040815260006122526040830185611ab5565b90508260208301529392505050565b6040815260006122746040830184611ab5565b828103602084015260098152681d1958da1b9a58d85b60ba1b60208201526040810191505092915050565b600082601f8301126122b057600080fd5b81516122be611d3e82611cf8565b8181528460208386010111156122d357600080fd5b61201b826020830160208701611a91565b6000602082840312156122f657600080fd5b81516001600160401b0381111561230c57600080fd5b8201610100818503121561231f57600080fd5b612327611c9f565b81516001600160401b0381111561233d57600080fd5b6123498682850161229f565b82525060208281015190820152604080830151908201526060808301519082015260808201516001600160401b0381111561238357600080fd5b61238f8682850161229f565b60808301525060a0828101519082015260c0808301519082015260e08201516001600160401b038111156123c257600080fd5b6123ce8682850161229f565b60e083015250949350505050565b8381528260208201526060604082015260006123fb6060830184611ab5565b95945050505050565b81810381811115611a7257611a7261207f56fea2646970667358221220a7d8296a786331d8cab73df5843bca954f1ae921dedf87d75155c62389e18ea564736f6c634300081a0033",
  "linkReferences": {},
  "deployedLinkReferences": {}
}