{
  "_format": "hh-sol-artifact-1",
  "contractName": "GameFiCore",
  "sourceName": "contracts/GameFi.sol",
  "abi": [
    {
      "inputs": [
        {
          "internalType": "address",
          "name": "_guiToken",
          "type": "address"
        },
        {
          "internalType": "address",
          "name": "_aiOracle",
          "type": "address"
        }
      ],
      "stateMutability": "nonpayable",
      "type": "constructor"
    },
    {
      "inputs": [
        {
          "internalType": "address",
          "name": "owner",
          "type": "address"
        }
      ],
      "name": "OwnableInvalidOwner",
      "type": "error"
    },
    {
      "inputs": [
        {
          "internalType": "address",
          "name": "account",
          "type": "address"
        }
      ],
      "name": "OwnableUnauthorizedAccount",
      "type": "error"
    },
    {
      "anonymous": false,
      "inputs": [
        {
          "indexed": true,
          "internalType": "address",
          "name": "player",
          "type": "address"
        },
        {
          "indexed": false,
          "internalType": "uint256",
          "name": "bonus",
          "type": "uint256"
        }
      ],
      "name": "AIBonusAwarded",
      "type": "event"
    },
    {
      "anonymous": false,
      "inputs": [
        {
          "indexed": true,
          "internalType": "address",
          "name": "previousOwner",
          "type": "address"
        },
        {
          "indexed": true,
          "internalType": "address",
          "name": "newOwner",
          "type": "address"
        }
      ],
      "name": "OwnershipTransferred",
      "type": "event"
    },
    {
      "anonymous": false,
      "inputs": [
        {
          "indexed": true,
          "internalType": "address",
          "name": "player",
          "type": "address"
        },
        {
          "indexed": true,
          "internalType": "uint256",
          "name": "predictionId",
          "type": "uint256"
        },
        {
          "indexed": false,
          "internalType": "uint256",
          "name": "playerPrice",
          "type": "uint256"
        },
        {
          "indexed": false,
          "internalType": "uint256",
          "name": "aiPrice",
          "type": "uint256"
        },
        {
          "indexed": false,
          "internalType": "string",
          "name": "asset",
          "type": "string"
        }
      ],
      "name": "PredictionMade",
      "type": "event"
    },
    {
      "anonymous": false,
      "inputs": [
        {
          "indexed": true,
          "internalType": "address",
          "name": "player",
          "type": "address"
        },
        {
          "indexed": true,
          "internalType": "uint256",
          "name": "questId",
          "type": "uint256"
        },
        {
          "indexed": false,
          "internalType": "uint256",
          "name": "reward",
          "type": "uint256"
        }
      ],
      "name": "QuestCompleted",
      "type": "event"
    },
    {
      "anonymous": false,
      "inputs": [
        {
          "indexed": true,
          "internalType": "uint256",
          "name": "questId",
          "type": "uint256"
        },
        {
          "indexed": false,
          "internalType": "string",
          "name": "title",
          "type": "string"
        },
        {
          "indexed": false,
          "internalType": "uint256",
          "name": "reward",
          "type": "uint256"
        }
      ],
      "name": "QuestCreated",
      "type": "event"
    },
    {
      "anonymous": false,
      "inputs": [
        {
          "indexed": true,
          "internalType": "address",
          "name": "player",
          "type": "address"
        },
        {
          "indexed": false,
          "internalType": "uint8",
          "name": "category",
          "type": "uint8"
        },
        {
          "indexed": false,
          "internalType": "uint8",
          "name": "difficulty",
          "type": "uint8"
        },
        {
          "indexed": false,
          "internalType": "uint8",
          "name": "score",
          "type": "uint8"
        },
        {
          "indexed": false,
          "internalType": "uint256",
          "name": "reward",
          "type": "uint256"
        }
      ],
      "name": "QuizCompleted",
      "type": "event"
    },
    {
      "inputs": [],
      "name": "AI_FOLLOW_BONUS",
      "outputs": [
        {
          "internalType": "uint256",
          "name": "",
          "type": "uint256"
        }
      ],
      "stateMutability": "view",
      "type": "function"
    },
    {
      "inputs": [],
      "name": "BASE_REWARD",
      "outputs": [
        {
          "internalType": "uint256",
          "name": "",
          "type": "uint256"
        }
      ],
      "stateMutability": "view",
      "type": "function"
    },
    {
      "inputs": [],
      "name": "aiOracle",
      "outputs": [
        {
          "internalType": "address",
          "name": "",
          "type": "address"
        }
      ],
      "stateMutability": "view",
      "type": "function"
    },
    {
      "inputs": [
        {
          "internalType": "address",
          "name": "player",
          "type": "address"
        }
      ],
      "name": "canTakeQuiz",
      "outputs": [
        {
          "internalType": "bool",
          "name": "",
          "type": "bool"
        }
      ],
      "stateMutability": "view",
      "type": "function"
    },
    {
      "inputs": [
        {
          "internalType": "uint256",
          "name": "questId",
          "type": "uint256"
        }
      ],
      "name": "completeQuest",
      "outputs": [],
      "stateMutability": "nonpayable",
      "type": "function"
    },
    {
      "inputs": [
        {
          "internalType": "address",
          "name": "",
          "type": "address"
        },
        {
          "internalType": "uint256",
          "name": "",
          "type": "uint256"
        }
      ],
      "name": "completedQuests",
      "outputs": [
        {
          "internalType": "bool",
          "name": "",
          "type": "bool"
        }
      ],
      "stateMutability": "view",
      "type": "function"
    },
    {
      "inputs": [
        {
          "internalType": "string",
          "name": "title",
          "type": "string"
        },
        {
          "internalType": "string",
          "name": "description",
          "type": "string"
        },
        {
          "internalType": "string",
          "name": "questType",
          "type": "string"
        },
        {
          "internalType": "uint256",
          "name": "reward",
          "type": "uint256"
        },
        {
          "internalType": "uint256",
          "name": "duration",
          "type": "uint256"
        }
      ],
      "name": "createQuest",
      "outputs": [],
      "stateMutability": "nonpayable",
      "type": "function"
    },
    {
      "inputs": [],
      "name": "getActiveQuests",
      "outputs": [
        {
          "components": [
            {
              "internalType": "uint256",
              "name": "id",
              "type": "uint256"
            },
            {
              "internalType": "string",
              "name": "title",
              "type": "string"
            },
            {
              "internalType": "string",
              "name": "description",
              "type": "string"
            },
            {
              "internalType": "string",
              "name": "questType",
              "type": "string"
            },
            {
              "internalType": "uint256",
              "name": "reward",
              "type": "uint256"
            },
            {
              "internalType": "uint256",
              "name": "deadline",
              "type": "uint256"
            },
            {
              "internalType": "bool",
              "name": "active",
              "type": "bool"
            }
          ],
          "internalType": "struct GameFiCore.Quest[]",
          "name": "",
          "type": "tuple[]"
        }
      ],
      "stateMutability": "view",
      "type": "function"
    },
    {
      "inputs": [
        {
          "internalType": "address",
          "name": "player",
          "type": "address"
        }
      ],
      "name": "getPlayerPredictions",
      "outputs": [
        {
          "internalType": "uint256[]",
          "name": "",
          "type": "uint256[]"
        }
      ],
      "stateMutability": "view",
      "type": "function"
    },
    {
      "inputs": [
        {
          "internalType": "address",
          "name": "player",
          "type": "address"
        }
      ],
      "name": "getPlayerStats",
      "outputs": [
        {
          "internalType": "uint256",
          "name": "score",
          "type": "uint256"
        },
        {
          "internalType": "uint256",
          "name": "totalPredictions",
          "type": "uint256"
        },
        {
          "internalType": "uint256",
          "name": "correctPredictions",
          "type": "uint256"
        },
        {
          "internalType": "uint256",
          "name": "aiFollowScore",
          "type": "uint256"
        },
        {
          "internalType": "uint256",
          "name": "accuracy",
          "type": "uint256"
        }
      ],
      "stateMutability": "view",
      "type": "function"
    },
    {
      "inputs": [
        {
          "internalType": "uint256",
          "name": "predictionId",
          "type": "uint256"
        }
      ],
      "name": "getPrediction",
      "outputs": [
        {
          "components": [
            {
              "internalType": "address",
              "name": "player",
              "type": "address"
            },
            {
              "internalType": "uint256",
              "name": "predictedPrice",
              "type": "uint256"
            },
            {
              "internalType": "uint256",
              "name": "aiPredictedPrice",
              "type": "uint256"
            },
            {
              "internalType": "uint256",
              "name": "actualPrice",
              "type": "uint256"
            },
            {
              "internalType": "uint256",
              "name": "playerConfidence",
              "type": "uint256"
            },
            {
              "internalType": "uint256",
              "name": "aiConfidence",
              "type": "uint256"
            },
            {
              "internalType": "uint256",
              "name": "timestamp",
              "type": "uint256"
            },
            {
              "internalType": "bool",
              "name": "resolved",
              "type": "bool"
            },
            {
              "internalType": "bool",
              "name": "playerCorrect",
              "type": "bool"
            },
            {
              "internalType": "bool",
              "name": "aiCorrect",
              "type": "bool"
            },
            {
              "internalType": "string",
              "name": "asset",
              "type": "string"
            }
          ],
          "internalType": "struct GameFiCore.Prediction",
          "name": "",
          "type": "tuple"
        }
      ],
      "stateMutability": "view",
      "type": "function"
    },
    {
      "inputs": [
        {
          "internalType": "uint256",
          "name": "questId",
          "type": "uint256"
        }
      ],
      "name": "getQuest",
      "outputs": [
        {
          "components": [
            {
              "internalType": "uint256",
              "name": "id",
              "type": "uint256"
            },
            {
              "internalType": "string",
              "name": "title",
              "type": "string"
            },
            {
              "internalType": "string",
              "name": "description",
              "type": "string"
            },
            {
              "internalType": "string",
              "name": "questType",
              "type": "string"
            },
            {
              "internalType": "uint256",
              "name": "reward",
              "type": "uint256"
            },
            {
              "internalType": "uint256",
              "name": "deadline",
              "type": "uint256"
            },
            {
              "internalType": "bool",
              "name": "active",
              "type": "bool"
            }
          ],
          "internalType": "struct GameFiCore.Quest",
          "name": "",
          "type": "tuple"
        }
      ],
      "stateMutability": "view",
      "type": "function"
    },
    {
      "inputs": [
        {
          "internalType": "address",
          "name": "player",
          "type": "address"
        }
      ],
      "name": "getQuizStats",
      "outputs": [
        {
          "internalType": "uint256",
          "name": "totalQuizzes",
          "type": "uint256"
        },
        {
          "internalType": "uint256",
          "name": "averageScore",
          "type": "uint256"
        },
        {
          "internalType": "uint256",
          "name": "bestStreak",
          "type": "uint256"
        },
        {
          "internalType": "uint256",
          "name": "totalRewards",
          "type": "uint256"
        }
      ],
      "stateMutability": "view",
      "type": "function"
    },
    {
      "inputs": [],
      "name": "guiToken",
      "outputs": [
        {
          "internalType": "address",
          "name": "",
          "type": "address"
        }
      ],
      "stateMutability": "view",
      "type": "function"
    },
    {
      "inputs": [
        {
          "internalType": "uint256",
          "name": "predictedPrice",
          "type": "uint256"
        },
        {
          "internalType": "string",
          "name": "asset",
          "type": "string"
        },
        {
          "internalType": "uint256",
          "name": "confidence",
          "type": "uint256"
        }
      ],
      "name": "makeAIPrediction",
      "outputs": [],
      "stateMutability": "nonpayable",
      "type": "function"
    },
    {
      "inputs": [],
      "name": "nextPredictionId",
      "outputs": [
        {
          "internalType": "uint256",
          "name": "",
          "type": "uint256"
        }
      ],
      "stateMutability": "view",
      "type": "function"
    },
    {
      "inputs": [],
      "name": "nextQuestId",
      "outputs": [
        {
          "internalType": "uint256",
          "name": "",
          "type": "uint256"
        }
      ],
      "stateMutability": "view",
      "type": "function"
    },
    {
      "inputs": [],
      "name": "owner",
      "outputs": [
        {
          "internalType": "address",
          "name": "",
          "type": "address"
        }
      ],
      "stateMutability": "view",
      "type": "function"
    },
    {
      "inputs": [
        {
          "internalType": "address",
          "name": "",
          "type": "address"
        },
        {
          "internalType": "uint256",
          "name": "",
          "type": "uint256"
        }
      ],
      "name": "playerPredictions",
      "outputs": [
        {
          "internalType": "uint256",
          "name": "",
          "type": "uint256"
        }
      ],
      "stateMutability": "view",
      "type": "function"
    },
    {
      "inputs": [
        {
          "internalType": "address",
          "name": "",
          "type": "address"
        }
      ],
      "name": "playerQuizStats",
      "outputs": [
        {
          "internalType": "uint256",
          "name": "totalQuizzes",
          "type": "uint256"
        },
        {
          "internalType": "uint256",
          "name": "totalScore",
          "type": "uint256"
        },
        {
          "internalType": "uint256",
          "name": "bestStreak",
          "type": "uint256"
        },
        {
          "internalType": "uint256",
          "name": "currentStreak",
          "type": "uint256"
        },
        {
          "internalType": "uint256",
          "name": "totalRewards",
          "type": "uint256"
        },
        {
          "internalType": "uint256",
          "name": "lastQuizTime",
          "type": "uint256"
        }
      ],
      "stateMutability": "view",
      "type": "function"
    },
    {
      "inputs": [
        {
          "internalType": "address",
          "name": "",
          "type": "address"
        }
      ],
      "name": "players",
      "outputs": [
        {
          "internalType": "uint256",
          "name": "score",
          "type": "uint256"
        },
        {
          "internalType": "uint256",
          "name": "totalPredictions",
          "type": "uint256"
        },
        {
          "internalType": "uint256",
          "name": "correctPredictions",
          "type": "uint256"
        },
        {
          "internalType": "uint256",
          "name": "stakedAmount",
          "type": "uint256"
        },
        {
          "internalType": "uint256",
          "name": "aiFollowScore",
          "type": "uint256"
        },
        {
          "internalType": "string",
          "name": "preferredAsset",
          "type": "string"
        }
      ],
      "stateMutability": "view",
      "type": "function"
    },
    {
      "inputs": [
        {
          "internalType": "uint256",
          "name": "",
          "type": "uint256"
        }
      ],
      "name": "predictions",
      "outputs": [
        {
          "internalType": "address",
          "name": "player",
          "type": "address"
        },
        {
          "internalType": "uint256",
          "name": "predictedPrice",
          "type": "uint256"
        },
        {
          "internalType": "uint256",
          "name": "aiPredictedPrice",
          "type": "uint256"
        },
        {
          "internalType": "uint256",
          "name": "actualPrice",
          "type": "uint256"
        },
        {
          "internalType": "uint256",
          "name": "playerConfidence",
          "type": "uint256"
        },
        {
          "internalType": "uint256",
          "name": "aiConfidence",
          "type": "uint256"
        },
        {
          "internalType": "uint256",
          "name": "timestamp",
          "type": "uint256"
        },
        {
          "internalType": "bool",
          "name": "resolved",
          "type": "bool"
        },
        {
          "internalType": "bool",
          "name": "playerCorrect",
          "type": "bool"
        },
        {
          "internalType": "bool",
          "name": "aiCorrect",
          "type": "bool"
        },
        {
          "internalType": "string",
          "name": "asset",
          "type": "string"
        }
      ],
      "stateMutability": "view",
      "type": "function"
    },
    {
      "inputs": [
        {
          "internalType": "uint256",
          "name": "",
          "type": "uint256"
        }
      ],
      "name": "quests",
      "outputs": [
        {
          "internalType": "uint256",
          "name": "id",
          "type": "uint256"
        },
        {
          "internalType": "string",
          "name": "title",
          "type": "string"
        },
        {
          "internalType": "string",
          "name": "description",
          "type": "string"
        },
        {
          "internalType": "string",
          "name": "questType",
          "type": "string"
        },
        {
          "internalType": "uint256",
          "name": "reward",
          "type": "uint256"
        },
        {
          "internalType": "uint256",
          "name": "deadline",
          "type": "uint256"
        },
        {
          "internalType": "bool",
          "name": "active",
          "type": "bool"
        }
      ],
      "stateMutability": "view",
      "type": "function"
    },
    {
      "inputs": [],
      "name": "renounceOwnership",
      "outputs": [],
      "stateMutability": "nonpayable",
      "type": "function"
    },
    {
      "inputs": [
        {
          "internalType": "uint256",
          "name": "predictionId",
          "type": "uint256"
        },
        {
          "internalType": "uint256",
          "name": "actualPrice",
          "type": "uint256"
        }
      ],
      "name": "resolvePrediction",
      "outputs": [],
      "stateMutability": "nonpayable",
      "type": "function"
    },
    {
      "inputs": [
        {
          "internalType": "uint8",
          "name": "category",
          "type": "uint8"
        },
        {
          "internalType": "uint8",
          "name": "difficulty",
          "type": "uint8"
        },
        {
          "internalType": "uint8",
          "name": "score",
          "type": "uint8"
        },
        {
          "internalType": "uint8",
          "name": "totalQuestions",
          "type": "uint8"
        }
      ],
      "name": "submitQuizResults",
      "outputs": [],
      "stateMutability": "nonpayable",
      "type": "function"
    },
    {
      "inputs": [
        {
          "internalType": "address",
          "name": "newOwner",
          "type": "address"
        }
      ],
      "name": "transferOwnership",
      "outputs": [],
      "stateMutability": "nonpayable",
      "type": "function"
    }
  ],
  "bytecode": "0x6080604052600160095534801561001557600080fd5b50604051612acf380380612acf83398101604081905261003491610101565b338061005a57604051631e4fbdf760e01b81526000600482015260240160405180910390fd5b61006381610095565b50600180546001600160a01b039384166001600160a01b03199182161790915560028054929093169116179055610134565b600080546001600160a01b038381166001600160a01b0319831681178455604051919092169283917f8be0079c531659141344cd1fd0a4f28419497f9722a3daafe3b4186f6b6457e09190a35050565b80516001600160a01b03811681146100fc57600080fd5b919050565b6000806040838503121561011457600080fd5b61011d836100e5565b915061012b602084016100e5565b90509250929050565b61298c806101436000396000f3fe608060405234801561001057600080fd5b50600436106101a85760003560e01c80638c87dce4116100f9578063e085f98011610097578063f2fde38b11610071578063f2fde38b14610478578063f88630c71461048b578063fe83bece146104b9578063fefac3db146104d957600080fd5b8063e085f9801461041a578063e2eb41ff14610440578063e6ec3cf91461046557600080fd5b8063993c44f0116100d3578063993c44f0146103d5578063cc6e20a1146103e8578063d638c98314610408578063d8d9292e1461041157600080fd5b80638c87dce41461039e5780638da5cb5b146103b157806393d20d55146103c257600080fd5b80633fea156011610166578063528be0a911610140578063528be0a91461035f57806359314dfc1461037457806364517a6314610383578063715018a61461039657600080fd5b80633fea1560146102d157806349f86f34146103045780634fd66eae1461032457600080fd5b80624fbbb0146101ad578063029a8c58146101e05780630c6790ce146101f557806322009af61461021857806329d328fc1461023657806331b221cd146102a6575b600080fd5b6101c06101bb366004611f05565b6104ec565b6040516101d79b9a99989796959493929190611f6e565b60405180910390f35b6101e86105e2565b6040516101d79190612060565b6102086102033660046120e1565b61095a565b60405190151581526020016101d7565b6102286801158e460913d0000081565b6040519081526020016101d7565b6102796102443660046120e1565b600a60205260009081526040902080546001820154600283015460038401546004850154600590950154939492939192909186565b604080519687526020870195909552938501929092526060840152608083015260a082015260c0016101d7565b6002546102b9906001600160a01b031681565b6040516001600160a01b0390911681526020016101d7565b6102e46102df3660046120e1565b61098c565b6040805194855260208501939093529183015260608201526080016101d7565b610317610312366004611f05565b610a42565b6040516101d79190612103565b6103376103323660046120e1565b610c8c565b604080519586526020860194909452928401919091526060830152608082015260a0016101d7565b61037261036d366004611f05565b610de3565b005b610228678ac7230489e8000081565b610372610391366004612202565b611001565b610372611121565b6103726103ac3660046122b6565b611135565b6000546001600160a01b03166102b9565b6103726103d036600461230a565b6113b5565b6001546102b9906001600160a01b031681565b6103fb6103f63660046120e1565b611639565b6040516101d7919061235a565b61022860095481565b61022860085481565b61042d610428366004611f05565b6116a5565b6040516101d7979695949392919061239d565b61045361044e3660046120e1565b61187d565b6040516101d7969594939291906123fe565b61022861047336600461243b565b611941565b6103726104863660046120e1565b611972565b61020861049936600461243b565b600760209081526000928352604080842090915290825290205460ff1681565b6104cc6104c7366004611f05565b6119b0565b6040516101d79190612465565b6103726104e7366004612515565b611b54565b60046020819052600091825260409091208054600182015460028301546003840154948401546005850154600686015460078701546008880180546001600160a01b03909816999698959794959394929360ff808416946101008504821694620100009004909116929061055f90612537565b80601f016020809104026020016040519081016040528092919081815260200182805461058b90612537565b80156105d85780601f106105ad576101008083540402835291602001916105d8565b820191906000526020600020905b8154815290600101906020018083116105bb57829003601f168201915b505050505090508b565b6060600060015b600954811015610641576000818152600660208190526040909120015460ff16801561062657506000818152600660205260409020600501544211155b15610639578161063581612587565b9250505b6001016105e9565b506000816001600160401b0381111561065c5761065c612116565b6040519080825280602002602001820160405280156106cf57816020015b6106bc6040518060e001604052806000815260200160608152602001606081526020016060815260200160008152602001600081526020016000151581525090565b81526020019060019003908161067a5790505b509050600060015b600954811015610951576000818152600660208190526040909120015460ff16801561071457506000818152600660205260409020600501544211155b1561094957600660008281526020019081526020016000206040518060e00160405290816000820154815260200160018201805461075190612537565b80601f016020809104026020016040519081016040528092919081815260200182805461077d90612537565b80156107ca5780601f1061079f576101008083540402835291602001916107ca565b820191906000526020600020905b8154815290600101906020018083116107ad57829003601f168201915b505050505081526020016002820180546107e390612537565b80601f016020809104026020016040519081016040528092919081815260200182805461080f90612537565b801561085c5780601f106108315761010080835404028352916020019161085c565b820191906000526020600020905b81548152906001019060200180831161083f57829003601f168201915b5050505050815260200160038201805461087590612537565b80601f01602080910402602001604051908101604052809291908181526020018280546108a190612537565b80156108ee5780601f106108c3576101008083540402835291602001916108ee565b820191906000526020600020905b8154815290600101906020018083116108d157829003601f168201915b5050509183525050600482015460208201526005820154604082015260069091015460ff161515606090910152835184908490811061092f5761092f6125a0565b6020026020010181905250818061094590612587565b9250505b6001016106d7565b50909392505050565b6001600160a01b0381166000908152600a602052604081206005015461098390620151806125b6565b42101592915050565b6001600160a01b0381166000908152600a60209081526040808320815160c081018352815480825260018301549482019490945260028201549281019290925260038101546060830152600481015460808301526005015460a082015282918291829182906109fc576000610a23565b8151610a099060056125c9565b6020830151610a199060646125c9565b610a2391906125f6565b8251604084015160809094015190999198509296509194509092505050565b610a846040518060e001604052806000815260200160608152602001606081526020016060815260200160008152602001600081526020016000151581525090565b600660008381526020019081526020016000206040518060e001604052908160008201548152602001600182018054610abc90612537565b80601f0160208091040260200160405190810160405280929190818152602001828054610ae890612537565b8015610b355780601f10610b0a57610100808354040283529160200191610b35565b820191906000526020600020905b815481529060010190602001808311610b1857829003601f168201915b50505050508152602001600282018054610b4e90612537565b80601f0160208091040260200160405190810160405280929190818152602001828054610b7a90612537565b8015610bc75780601f10610b9c57610100808354040283529160200191610bc7565b820191906000526020600020905b815481529060010190602001808311610baa57829003601f168201915b50505050508152602001600382018054610be090612537565b80601f0160208091040260200160405190810160405280929190818152602001828054610c0c90612537565b8015610c595780601f10610c2e57610100808354040283529160200191610c59565b820191906000526020600020905b815481529060010190602001808311610c3c57829003601f168201915b5050509183525050600482015460208201526005820154604082015260069091015460ff16151560609091015292915050565b60008060008060008060036000886001600160a01b03166001600160a01b031681526020019081526020016000206040518060c00160405290816000820154815260200160018201548152602001600282015481526020016003820154815260200160048201548152602001600582018054610d0790612537565b80601f0160208091040260200160405190810160405280929190818152602001828054610d3390612537565b8015610d805780601f10610d5557610100808354040283529160200191610d80565b820191906000526020600020905b815481529060010190602001808311610d6357829003601f168201915b5050505050815250509050600080826020015111610d9f576000610dbe565b60208201516040830151610db49060646125c9565b610dbe91906125f6565b825160208401516040850151608090950151919b909a50939850965094509092505050565b60008181526006602081905260409091209081015460ff16610e3f5760405162461bcd60e51b815260206004820152601060248201526f5175657374206e6f742061637469766560801b60448201526064015b60405180910390fd5b8060050154421115610e835760405162461bcd60e51b815260206004820152600d60248201526c145d595cdd08195e1c1a5c9959609a1b6044820152606401610e36565b33600090815260076020908152604080832085845290915290205460ff1615610ee25760405162461bcd60e51b8152602060048201526011602482015270105b1c9958591e4818dbdb5c1b195d1959607a1b6044820152606401610e36565b33600081815260076020908152604080832086845290915290819020805460ff1916600190811790915554600484810154925163a9059cbb60e01b81529081019390935260248301919091526001600160a01b03169063a9059cbb906044016020604051808303816000875af1158015610f60573d6000803e3d6000fd5b505050506040513d601f19601f82011682018060405250810190610f84919061260a565b50670de0b6b3a76400008160040154610f9d91906125f6565b3360009081526003602052604081208054909190610fbc9084906125b6565b90915550506004810154604051908152829033907fe0b5124b12e878158288d1002ed1fb960faff0ec1c7b3168f86d9d1afd1b0d8b9060200160405180910390a35050565b611009611e2e565b600980546000918261101a83612587565b9190505590506040518060e00160405280828152602001878152602001868152602001858152602001848152602001834261105591906125b6565b81526001602091820181905260008481526006835260409020835181559183015190820190611084908261267b565b5060408201516002820190611099908261267b565b50606082015160038201906110ae908261267b565b506080820151600482015560a0820151600582015560c0909101516006909101805460ff191691151591909117905560405181907f5a053b0d56754cd3a270176122cefeb5c24c7b584cc5f37a0c623cfae3e0259f906111119089908790612739565b60405180910390a2505050505050565b611129611e2e565b6111336000611e5b565b565b61113e3361095a565b6111815760405162461bcd60e51b81526020600482015260146024820152735175697a20636f6f6c646f776e2061637469766560601b6044820152606401610e36565b336000908152600a6020526040812090600260ff8616146111c5578460ff166001146111b65768015af1d78b58c400006111d0565b6802b5e3af16b18800006111d0565b68056bc75e2d631000005b68ffffffffffffffffff16905060008360ff168560ff16836111f291906125c9565b6111fc91906125f6565b835490915083600061120d83612587565b91905055508460ff1683600101600082825461122991906125b6565b925050819055508083600401600082825461124491906125b6565b9091555050426005840155606461125c85604661275b565b611266919061277e565b60ff168560ff16106112a95760038301805490600061128483612587565b91905055508260020154836003015411156112a457600383015460028401555b6112b1565b600060038401555b60015460405163a9059cbb60e01b8152336004820152602481018390526001600160a01b039091169063a9059cbb906044016020604051808303816000875af1158015611302573d6000803e3d6000fd5b505050506040513d601f19601f82011682018060405250810190611326919061260a565b50611339670de0b6b3a7640000826125f6565b33600090815260036020526040812080549091906113589084906125b6565b90915550506040805160ff8981168252888116602083015287168183015260608101839052905133917f14d645713684bba2cc4817432176af379060620514b429035d615ddb03bb8461919081900360800190a250505050505050565b600254604051632162b04d60e21b81526000916001600160a01b03169063858ac134906113e69086906004016127a0565b600060405180830381865afa158015611403573d6000803e3d6000fd5b505050506040513d6000823e601f3d908101601f1916820160405261142b9190810190612823565b60088054919250600091908261144083612587565b919050559050604051806101600160405280336001600160a01b0316815260200186815260200183604001518152602001600081526020018481526020018360a001518152602001428152602001600015158152602001600015158152602001600015158152602001858152506004600083815260200190815260200160002060008201518160000160006101000a8154816001600160a01b0302191690836001600160a01b031602179055506020820151816001015560408201518160020155606082015181600301556080820151816004015560a0820151816005015560c0820151816006015560e08201518160070160006101000a81548160ff0219169083151502179055506101008201518160070160016101000a81548160ff0219169083151502179055506101208201518160070160026101000a81548160ff0219169083151502179055506101408201518160080190816115a1919061267b565b5050336000818152600560209081526040808320805460018181018355918552838520018790559383526003909152812090910180549250906115e383612587565b919050555080336001600160a01b03167fd1e30cc22e4c638d510eca0e3931264a6b6b5bafe86850a2ac52ec2719241c0d8785604001518860405161162a9392919061291b565b60405180910390a35050505050565b6001600160a01b03811660009081526005602090815260409182902080548351818402810184019094528084526060939283018282801561169957602002820191906000526020600020905b815481526020019060010190808311611685575b50505050509050919050565b600660205260009081526040902080546001820180549192916116c790612537565b80601f01602080910402602001604051908101604052809291908181526020018280546116f390612537565b80156117405780601f1061171557610100808354040283529160200191611740565b820191906000526020600020905b81548152906001019060200180831161172357829003601f168201915b50505050509080600201805461175590612537565b80601f016020809104026020016040519081016040528092919081815260200182805461178190612537565b80156117ce5780601f106117a3576101008083540402835291602001916117ce565b820191906000526020600020905b8154815290600101906020018083116117b157829003601f168201915b5050505050908060030180546117e390612537565b80601f016020809104026020016040519081016040528092919081815260200182805461180f90612537565b801561185c5780601f106118315761010080835404028352916020019161185c565b820191906000526020600020905b81548152906001019060200180831161183f57829003601f168201915b50505050600483015460058401546006909401549293909290915060ff1687565b60036020528060005260406000206000915090508060000154908060010154908060020154908060030154908060040154908060050180546118be90612537565b80601f01602080910402602001604051908101604052809291908181526020018280546118ea90612537565b80156119375780601f1061190c57610100808354040283529160200191611937565b820191906000526020600020905b81548152906001019060200180831161191a57829003601f168201915b5050505050905086565b6005602052816000526040600020818154811061195d57600080fd5b90600052602060002001600091509150505481565b61197a611e2e565b6001600160a01b0381166119a457604051631e4fbdf760e01b815260006004820152602401610e36565b6119ad81611e5b565b50565b611a1c60405180610160016040528060006001600160a01b03168152602001600081526020016000815260200160008152602001600081526020016000815260200160008152602001600015158152602001600015158152602001600015158152602001606081525090565b60008281526004602081815260409283902083516101608101855281546001600160a01b0316815260018201549281019290925260028101549382019390935260038301546060820152908201546080820152600582015460a0820152600682015460c0820152600782015460ff808216151560e084015261010080830482161515908401526201000090910416151561012082015260088201805491929161014084019190611acb90612537565b80601f0160208091040260200160405190810160405280929190818152602001828054611af790612537565b8015611b445780601f10611b1957610100808354040283529160200191611b44565b820191906000526020600020905b815481529060010190602001808311611b2757829003601f168201915b5050505050815250509050919050565b611b5c611e2e565b6000828152600460205260409020600781015460ff1615611bb25760405162461bcd60e51b815260206004820152601060248201526f105b1c9958591e481c995cdbdb1d995960821b6044820152606401610e36565b6003810182905560078101805460ff191660019081179091558101546000908310611beb576001820154611be69084612943565b611bfb565b828260010154611bfb9190612943565b9050600083836002015411611c1e576002830154611c199085612943565b611c2e565b838360020154611c2e9190612943565b90506000600585611c408560646125c9565b611c4a91906125f6565b111590506000600586611c5e8560646125c9565b611c6891906125f6565b60078701805462010000939092111592830262ff00001986158015610100029190911662ffff00199094169390931717905586546001600160a01b0316600090815260036020526040812092935090611e2357600282018054906000611ccd83612587565b90915550611ce690506801158e460913d00000826125b6565b9050828015611d025750611d0287600101548860020154611eab565b15611d7f57611d19678ac7230489e80000826125b6565b9050600a826004016000828254611d3091906125b6565b90915550508654604051678ac7230489e8000081526001600160a01b03909116907f0c4772bdd191c33bdac1fcbe019ad92f6ae3d87e226fd0f2613d3809c0b0a7e99060200160405180910390a25b600154875460405163a9059cbb60e01b81526001600160a01b0391821660048201526024810184905291169063a9059cbb906044016020604051808303816000875af1158015611dd3573d6000803e3d6000fd5b505050506040513d601f19601f82011682018060405250810190611df7919061260a565b50611e0a670de0b6b3a7640000826125f6565b826000016000828254611e1d91906125b6565b90915550505b505050505050505050565b6000546001600160a01b031633146111335760405163118cdaa760e01b8152336004820152602401610e36565b600080546001600160a01b038381166001600160a01b0319831681178455604051919092169283917f8be0079c531659141344cd1fd0a4f28419497f9722a3daafe3b4186f6b6457e09190a35050565b600081600003611ebd57506000611eff565b6000828411611ed557611ed08484612943565b611edf565b611edf8385612943565b9050600a83611eef8360646125c9565b611ef991906125f6565b11159150505b92915050565b600060208284031215611f1757600080fd5b5035919050565b60005b83811015611f39578181015183820152602001611f21565b50506000910152565b60008151808452611f5a816020860160208601611f1e565b601f01601f19169290920160200192915050565b60018060a01b038c1681528a60208201528960408201528860608201528760808201528660a08201528560c082015284151560e08201528315156101008201528215156101208201526101606101408201526000611fd0610160830184611f42565b9d9c50505050505050505050505050565b805182526000602082015160e0602085015261200060e0850182611f42565b9050604083015184820360408601526120198282611f42565b915050606083015184820360608601526120338282611f42565b9150506080830151608085015260a083015160a085015260c0830151151560c08501528091505092915050565b6000602082016020835280845180835260408501915060408160051b86010192506020860160005b828110156120b957603f198786030184526120a4858351611fe1565b94506020938401939190910190600101612088565b50929695505050505050565b80356001600160a01b03811681146120dc57600080fd5b919050565b6000602082840312156120f357600080fd5b6120fc826120c5565b9392505050565b6020815260006120fc6020830184611fe1565b634e487b7160e01b600052604160045260246000fd5b60405161010081016001600160401b038111828210171561214f5761214f612116565b60405290565b604051601f8201601f191681016001600160401b038111828210171561217d5761217d612116565b604052919050565b60006001600160401b0382111561219e5761219e612116565b50601f01601f191660200190565b600082601f8301126121bd57600080fd5b81356121d06121cb82612185565b612155565b8181528460208386010111156121e557600080fd5b816020850160208301376000918101602001919091529392505050565b600080600080600060a0868803121561221a57600080fd5b85356001600160401b0381111561223057600080fd5b61223c888289016121ac565b95505060208601356001600160401b0381111561225857600080fd5b612264888289016121ac565b94505060408601356001600160401b0381111561228057600080fd5b61228c888289016121ac565b9598949750949560608101359550608001359392505050565b803560ff811681146120dc57600080fd5b600080600080608085870312156122cc57600080fd5b6122d5856122a5565b93506122e3602086016122a5565b92506122f1604086016122a5565b91506122ff606086016122a5565b905092959194509250565b60008060006060848603121561231f57600080fd5b8335925060208401356001600160401b0381111561233c57600080fd5b612348868287016121ac565b93969395505050506040919091013590565b602080825282518282018190526000918401906040840190835b81811015612392578351835260209384019390920191600101612374565b509095945050505050565b87815260e0602082015260006123b660e0830189611f42565b82810360408401526123c88189611f42565b905082810360608401526123dc8188611f42565b6080840196909652505060a0810192909252151560c090910152949350505050565b86815285602082015284604082015283606082015282608082015260c060a0820152600061242f60c0830184611f42565b98975050505050505050565b6000806040838503121561244e57600080fd5b612457836120c5565b946020939093013593505050565b6020815261247f6020820183516001600160a01b03169052565b602082015160408201526040820151606082015260608201516080820152608082015160a082015260a082015160c082015260c082015160e0820152600060e08301516124d161010084018215159052565b5061010083015180151561012084015250610120830151801515610140840152506101408301516101608084015261250d610180840182611f42565b949350505050565b6000806040838503121561252857600080fd5b50508035926020909101359150565b600181811c9082168061254b57607f821691505b60208210810361256b57634e487b7160e01b600052602260045260246000fd5b50919050565b634e487b7160e01b600052601160045260246000fd5b60006001820161259957612599612571565b5060010190565b634e487b7160e01b600052603260045260246000fd5b80820180821115611eff57611eff612571565b8082028115828204841417611eff57611eff612571565b634e487b7160e01b600052601260045260246000fd5b600082612605576126056125e0565b500490565b60006020828403121561261c57600080fd5b815180151581146120fc57600080fd5b601f82111561267657806000526020600020601f840160051c810160208510156126535750805b601f840160051c820191505b81811015612673576000815560010161265f565b50505b505050565b81516001600160401b0381111561269457612694612116565b6126a8816126a28454612537565b8461262c565b6020601f8211600181146126dc57600083156126c45750848201515b600019600385901b1c1916600184901b178455612673565b600084815260208120601f198516915b8281101561270c57878501518255602094850194600190920191016126ec565b508482101561272a5786840151600019600387901b60f8161c191681555b50505050600190811b01905550565b60408152600061274c6040830185611f42565b90508260208301529392505050565b60ff818116838216029081169081811461277757612777612571565b5092915050565b600060ff831680612791576127916125e0565b8060ff84160491505092915050565b6040815260006127b36040830184611f42565b828103602084015260098152681d1958da1b9a58d85b60ba1b60208201526040810191505092915050565b600082601f8301126127ef57600080fd5b81516127fd6121cb82612185565b81815284602083860101111561281257600080fd5b61250d826020830160208701611f1e565b60006020828403121561283557600080fd5b81516001600160401b0381111561284b57600080fd5b8201610100818503121561285e57600080fd5b61286661212c565b81516001600160401b0381111561287c57600080fd5b612888868285016127de565b82525060208281015190820152604080830151908201526060808301519082015260808201516001600160401b038111156128c257600080fd5b6128ce868285016127de565b60808301525060a0828101519082015260c0808301519082015260e08201516001600160401b0381111561290157600080fd5b61290d868285016127de565b60e083015250949350505050565b83815282602082015260606040820152600061293a6060830184611f42565b95945050505050565b81810381811115611eff57611eff61257156fea2646970667358221220e603b8dd65f001dc5400c894925bb27e9b5cba8c877eea516cbba7e847f976ea64736f6c634300081a0033",
  "linkReferences": {},
  "deployedLinkReferences": {}
}