{
  "_format": "hh-sol-artifact-1",
  "contractName": "GameFiCore",
  "sourceName": "contracts/GameFi.sol",
  "abi": [
    {
      "inputs": [
        {
          "internalType": "address",
          "name": "_gateway",
          "type": "address"
        },
        {
          "internalType": "address",
          "name": "_guiToken",
          "type": "address"
        }
      ],
      "stateMutability": "nonpayable",
      "type": "constructor"
    },
    {
      "inputs": [
        {
          "internalType": "address",
          "name": "owner",
          "type": "address"
        }
      ],
      "name": "OwnableInvalidOwner",
      "type": "error"
    },
    {
      "inputs": [
        {
          "internalType": "address",
          "name": "account",
          "type": "address"
        }
      ],
      "name": "OwnableUnauthorizedAccount",
      "type": "error"
    },
    {
      "anonymous": false,
      "inputs": [
        {
          "indexed": true,
          "internalType": "address",
          "name": "player",
          "type": "address"
        },
        {
          "indexed": false,
          "internalType": "uint256",
          "name": "amount",
          "type": "uint256"
        },
        {
          "indexed": false,
          "internalType": "uint256",
          "name": "targetChain",
          "type": "uint256"
        }
      ],
      "name": "CrossChainReward",
      "type": "event"
    },
    {
      "anonymous": false,
      "inputs": [
        {
          "indexed": true,
          "internalType": "address",
          "name": "previousOwner",
          "type": "address"
        },
        {
          "indexed": true,
          "internalType": "address",
          "name": "newOwner",
          "type": "address"
        }
      ],
      "name": "OwnershipTransferred",
      "type": "event"
    },
    {
      "anonymous": false,
      "inputs": [
        {
          "indexed": true,
          "internalType": "address",
          "name": "player",
          "type": "address"
        },
        {
          "indexed": true,
          "internalType": "uint256",
          "name": "predictionId",
          "type": "uint256"
        },
        {
          "indexed": false,
          "internalType": "uint256",
          "name": "predictedPrice",
          "type": "uint256"
        },
        {
          "indexed": false,
          "internalType": "string",
          "name": "asset",
          "type": "string"
        }
      ],
      "name": "PredictionMade",
      "type": "event"
    },
    {
      "anonymous": false,
      "inputs": [
        {
          "indexed": true,
          "internalType": "uint256",
          "name": "predictionId",
          "type": "uint256"
        },
        {
          "indexed": false,
          "internalType": "uint256",
          "name": "actualPrice",
          "type": "uint256"
        },
        {
          "indexed": false,
          "internalType": "bool",
          "name": "correct",
          "type": "bool"
        }
      ],
      "name": "PredictionResolved",
      "type": "event"
    },
    {
      "inputs": [],
      "name": "BASE_REWARD",
      "outputs": [
        {
          "internalType": "uint256",
          "name": "",
          "type": "uint256"
        }
      ],
      "stateMutability": "view",
      "type": "function"
    },
    {
      "inputs": [],
      "name": "gateway",
      "outputs": [
        {
          "internalType": "contract IGatewayZEVM",
          "name": "",
          "type": "address"
        }
      ],
      "stateMutability": "view",
      "type": "function"
    },
    {
      "inputs": [
        {
          "internalType": "address",
          "name": "player",
          "type": "address"
        }
      ],
      "name": "getPlayerPredictions",
      "outputs": [
        {
          "internalType": "uint256[]",
          "name": "",
          "type": "uint256[]"
        }
      ],
      "stateMutability": "view",
      "type": "function"
    },
    {
      "inputs": [
        {
          "internalType": "address",
          "name": "player",
          "type": "address"
        }
      ],
      "name": "getPlayerStats",
      "outputs": [
        {
          "internalType": "uint256",
          "name": "score",
          "type": "uint256"
        },
        {
          "internalType": "uint256",
          "name": "totalPredictions",
          "type": "uint256"
        },
        {
          "internalType": "uint256",
          "name": "stakedAmount",
          "type": "uint256"
        },
        {
          "internalType": "string",
          "name": "preferredAsset",
          "type": "string"
        }
      ],
      "stateMutability": "view",
      "type": "function"
    },
    {
      "inputs": [
        {
          "internalType": "uint256",
          "name": "predictionId",
          "type": "uint256"
        }
      ],
      "name": "getPrediction",
      "outputs": [
        {
          "components": [
            {
              "internalType": "address",
              "name": "player",
              "type": "address"
            },
            {
              "internalType": "uint256",
              "name": "predictedPrice",
              "type": "uint256"
            },
            {
              "internalType": "uint256",
              "name": "actualPrice",
              "type": "uint256"
            },
            {
              "internalType": "uint256",
              "name": "timestamp",
              "type": "uint256"
            },
            {
              "internalType": "bool",
              "name": "resolved",
              "type": "bool"
            },
            {
              "internalType": "bool",
              "name": "correct",
              "type": "bool"
            },
            {
              "internalType": "string",
              "name": "asset",
              "type": "string"
            }
          ],
          "internalType": "struct GameFiCore.Prediction",
          "name": "",
          "type": "tuple"
        }
      ],
      "stateMutability": "view",
      "type": "function"
    },
    {
      "inputs": [],
      "name": "guiToken",
      "outputs": [
        {
          "internalType": "address",
          "name": "",
          "type": "address"
        }
      ],
      "stateMutability": "view",
      "type": "function"
    },
    {
      "inputs": [
        {
          "internalType": "uint256",
          "name": "predictedPrice",
          "type": "uint256"
        },
        {
          "internalType": "string",
          "name": "asset",
          "type": "string"
        }
      ],
      "name": "makePrediction",
      "outputs": [],
      "stateMutability": "nonpayable",
      "type": "function"
    },
    {
      "inputs": [],
      "name": "nextPredictionId",
      "outputs": [
        {
          "internalType": "uint256",
          "name": "",
          "type": "uint256"
        }
      ],
      "stateMutability": "view",
      "type": "function"
    },
    {
      "inputs": [
        {
          "components": [
            {
              "internalType": "bytes",
              "name": "sender",
              "type": "bytes"
            },
            {
              "internalType": "address",
              "name": "senderEVM",
              "type": "address"
            },
            {
              "internalType": "uint256",
              "name": "chainID",
              "type": "uint256"
            }
          ],
          "internalType": "struct MessageContext",
          "name": "context",
          "type": "tuple"
        },
        {
          "internalType": "address",
          "name": "zrc20",
          "type": "address"
        },
        {
          "internalType": "uint256",
          "name": "amount",
          "type": "uint256"
        },
        {
          "internalType": "bytes",
          "name": "message",
          "type": "bytes"
        }
      ],
      "name": "onCall",
      "outputs": [],
      "stateMutability": "nonpayable",
      "type": "function"
    },
    {
      "inputs": [
        {
          "components": [
            {
              "internalType": "address",
              "name": "sender",
              "type": "address"
            },
            {
              "internalType": "address",
              "name": "asset",
              "type": "address"
            },
            {
              "internalType": "uint256",
              "name": "amount",
              "type": "uint256"
            },
            {
              "internalType": "bytes",
              "name": "revertMessage",
              "type": "bytes"
            }
          ],
          "internalType": "struct RevertContext",
          "name": "revertContext",
          "type": "tuple"
        }
      ],
      "name": "onRevert",
      "outputs": [],
      "stateMutability": "nonpayable",
      "type": "function"
    },
    {
      "inputs": [],
      "name": "owner",
      "outputs": [
        {
          "internalType": "address",
          "name": "",
          "type": "address"
        }
      ],
      "stateMutability": "view",
      "type": "function"
    },
    {
      "inputs": [
        {
          "internalType": "address",
          "name": "",
          "type": "address"
        },
        {
          "internalType": "uint256",
          "name": "",
          "type": "uint256"
        }
      ],
      "name": "playerPredictions",
      "outputs": [
        {
          "internalType": "uint256",
          "name": "",
          "type": "uint256"
        }
      ],
      "stateMutability": "view",
      "type": "function"
    },
    {
      "inputs": [
        {
          "internalType": "address",
          "name": "",
          "type": "address"
        }
      ],
      "name": "players",
      "outputs": [
        {
          "internalType": "uint256",
          "name": "score",
          "type": "uint256"
        },
        {
          "internalType": "uint256",
          "name": "totalPredictions",
          "type": "uint256"
        },
        {
          "internalType": "uint256",
          "name": "stakedAmount",
          "type": "uint256"
        },
        {
          "internalType": "string",
          "name": "preferredAsset",
          "type": "string"
        }
      ],
      "stateMutability": "view",
      "type": "function"
    },
    {
      "inputs": [
        {
          "internalType": "uint256",
          "name": "",
          "type": "uint256"
        }
      ],
      "name": "predictions",
      "outputs": [
        {
          "internalType": "address",
          "name": "player",
          "type": "address"
        },
        {
          "internalType": "uint256",
          "name": "predictedPrice",
          "type": "uint256"
        },
        {
          "internalType": "uint256",
          "name": "actualPrice",
          "type": "uint256"
        },
        {
          "internalType": "uint256",
          "name": "timestamp",
          "type": "uint256"
        },
        {
          "internalType": "bool",
          "name": "resolved",
          "type": "bool"
        },
        {
          "internalType": "bool",
          "name": "correct",
          "type": "bool"
        },
        {
          "internalType": "string",
          "name": "asset",
          "type": "string"
        }
      ],
      "stateMutability": "view",
      "type": "function"
    },
    {
      "inputs": [],
      "name": "renounceOwnership",
      "outputs": [],
      "stateMutability": "nonpayable",
      "type": "function"
    },
    {
      "inputs": [
        {
          "internalType": "uint256",
          "name": "predictionId",
          "type": "uint256"
        },
        {
          "internalType": "uint256",
          "name": "actualPrice",
          "type": "uint256"
        }
      ],
      "name": "resolvePrediction",
      "outputs": [],
      "stateMutability": "nonpayable",
      "type": "function"
    },
    {
      "inputs": [
        {
          "internalType": "uint256",
          "name": "amount",
          "type": "uint256"
        }
      ],
      "name": "stakeTokens",
      "outputs": [],
      "stateMutability": "nonpayable",
      "type": "function"
    },
    {
      "inputs": [
        {
          "internalType": "address",
          "name": "newOwner",
          "type": "address"
        }
      ],
      "name": "transferOwnership",
      "outputs": [],
      "stateMutability": "nonpayable",
      "type": "function"
    }
  ],
  "bytecode": "0x60c060405234801561001057600080fd5b50604051611b25380380611b2583398101604081905261002f916100e2565b338061005557604051631e4fbdf760e01b81526000600482015260240160405180910390fd5b61005e81610076565b506001600160a01b039182166080521660a052610115565b600080546001600160a01b038381166001600160a01b0319831681178455604051919092169283917f8be0079c531659141344cd1fd0a4f28419497f9722a3daafe3b4186f6b6457e09190a35050565b80516001600160a01b03811681146100dd57600080fd5b919050565b600080604083850312156100f557600080fd5b6100fe836100c6565b915061010c602084016100c6565b90509250929050565b60805160a0516119c861015d6000396000818161020f0152818161063e0152610bb001526000818161014e015281816104de015281816107090152610fd301526119c86000f3fe608060405234801561001057600080fd5b50600436106101155760003560e01c8063c9028a36116100a2578063e6ec3cf911610071578063e6ec3cf914610280578063f2fde38b14610293578063fd3c12d1146102a6578063fe83bece146102b9578063fefac3db146102d957600080fd5b8063c9028a3614610231578063cc6e20a114610244578063d8d9292e14610264578063e2eb41ff1461026d57600080fd5b80635bcfd616116100e95780635bcfd616146101c9578063715018a6146101de5780637547c7a3146101e65780638da5cb5b146101f9578063993c44f01461020a57600080fd5b80624fbbb01461011a578063116191b61461014957806322009af6146101885780634fd66eae146101a6575b600080fd5b61012d610128366004611170565b6102ec565b60405161014097969594939291906111d9565b60405180910390f35b6101707f000000000000000000000000000000000000000000000000000000000000000081565b6040516001600160a01b039091168152602001610140565b6101986801158e460913d0000081565b604051908152602001610140565b6101b96101b4366004611245565b6103c6565b6040516101409493929190611267565b6101dc6101d7366004611296565b6104d3565b005b6101dc610608565b6101dc6101f4366004611170565b61061c565b6000546001600160a01b0316610170565b6101707f000000000000000000000000000000000000000000000000000000000000000081565b6101dc61023f366004611353565b6106fe565b610257610252366004611245565b610765565b604051610140919061138e565b61019860045481565b6101b961027b366004611245565b6107d1565b61019861028e3660046113d1565b610883565b6101dc6102a1366004611245565b6108b4565b6101dc6102b43660046114a8565b6108ef565b6102cc6102c7366004611170565b6108fe565b6040516101409190611503565b6101dc6102e736600461156f565b610a50565b60026020819052600091825260409091208054600182015492820154600383015460048401546005850180546001600160a01b0390951696959394929360ff80841694610100909404169290919061034390611591565b80601f016020809104026020016040519081016040528092919081815260200182805461036f90611591565b80156103bc5780601f10610391576101008083540402835291602001916103bc565b820191906000526020600020905b81548152906001019060200180831161039f57829003601f168201915b5050505050905087565b60008060006060600060016000876001600160a01b03166001600160a01b0316815260200190815260200160002060405180608001604052908160008201548152602001600182015481526020016002820154815260200160038201805461042d90611591565b80601f016020809104026020016040519081016040528092919081815260200182805461045990611591565b80156104a65780601f1061047b576101008083540402835291602001916104a6565b820191906000526020600020905b81548152906001019060200180831161048957829003601f168201915b505050919092525050815160208301516040840151606090940151919a9099509297509550909350505050565b336001600160a01b037f0000000000000000000000000000000000000000000000000000000000000000161461053f5760405162461bcd60e51b815260206004820152600c60248201526b4f6e6c79206761746577617960a01b60448201526064015b60405180910390fd5b60008061054e838501856115cb565b909250905060006060610561898061160b565b60405161056f929190611659565b604051908190039020901c905060ff83166001036105b4576000808380602001905181019061059e9190611669565b915091506105ad838383610c64565b50506105fe565b8260ff166002036105ce576105c98187610e44565b6105fe565b8260ff166003036105fe576000828060200190518101906105ef91906116ed565b90506105fc828983610ebf565b505b5050505050505050565b6106106110f3565b61061a6000611120565b565b6040516323b872dd60e01b8152336004820152306024820152604481018290527f00000000000000000000000000000000000000000000000000000000000000006001600160a01b0316906323b872dd906064016020604051808303816000875af115801561068f573d6000803e3d6000fd5b505050506040513d601f19601f820116820180604052508101906106b39190611706565b6106f15760405162461bcd60e51b815260206004820152600f60248201526e151c985b9cd9995c8819985a5b1959608a1b6044820152606401610536565b6106fb3382610e44565b50565b336001600160a01b037f000000000000000000000000000000000000000000000000000000000000000016146106fb5760405162461bcd60e51b815260206004820152600c60248201526b4f6e6c79206761746577617960a01b6044820152606401610536565b6001600160a01b0381166000908152600360209081526040918290208054835181840281018401909452808452606093928301828280156107c557602002820191906000526020600020905b8154815260200190600101908083116107b1575b50505050509050919050565b600160208190526000918252604090912080549181015460028201546003830180549293919261080090611591565b80601f016020809104026020016040519081016040528092919081815260200182805461082c90611591565b80156108795780601f1061084e57610100808354040283529160200191610879565b820191906000526020600020905b81548152906001019060200180831161085c57829003601f168201915b5050505050905084565b6003602052816000526040600020818154811061089f57600080fd5b90600052602060002001600091509150505481565b6108bc6110f3565b6001600160a01b0381166108e657604051631e4fbdf760e01b815260006004820152602401610536565b6106fb81611120565b6108fa338383610c64565b5050565b61094b6040518060e0016040528060006001600160a01b03168152602001600081526020016000815260200160008152602001600015158152602001600015158152602001606081525090565b600082815260026020818152604092839020835160e08101855281546001600160a01b03168152600182015492810192909252918201549281019290925260038101546060830152600481015460ff8082161515608085015261010090910416151560a083015260058101805460c0840191906109c790611591565b80601f01602080910402602001604051908101604052809291908181526020018280546109f390611591565b8015610a405780601f10610a1557610100808354040283529160200191610a40565b820191906000526020600020905b815481529060010190602001808311610a2357829003601f168201915b5050505050815250509050919050565b610a586110f3565b6000828152600260205260409020600481015460ff1615610aae5760405162461bcd60e51b815260206004820152601060248201526f105b1c9958591e481c995cdbdb1d995960821b6044820152606401610536565b6002810182905560048101805460ff191660019081179091558101546000908310610ae7576001820154610ae2908461173e565b610af7565b828260010154610af7919061173e565b90506000600584610b09846064611757565b610b13919061176e565b60048501805461ff001916929091118015610100810293909317909155909150610c2157610b52670de0b6b3a76400006801158e460913d0000061176e565b83546001600160a01b031660009081526001602052604081208054909190610b7b908490611790565b9091555050825460405163a9059cbb60e01b81526001600160a01b0391821660048201526801158e460913d0000060248201527f00000000000000000000000000000000000000000000000000000000000000009091169063a9059cbb906044016020604051808303816000875af1158015610bfb573d6000803e3d6000fd5b505050506040513d601f19601f82011682018060405250810190610c1f9190611706565b505b60408051858152821515602082015286917f1994b2c28af1ed4d0743ee5a131bb3ec185afe5be57d34d99f3f6627eecc8788910160405180910390a25050505050565b60008211610cb45760405162461bcd60e51b815260206004820152601860248201527f496e76616c69642070726963652070726564696374696f6e00000000000000006044820152606401610536565b6004805460009182610cc5836117a3565b909155506040805160e0810182526001600160a01b0380881682526020808301888152600084860181815242606087019081526080870183815260a0880184815260c089018d81528b8652600297889052999094208851815498166001600160a01b0319909816979097178755935160018701559051938501939093559151600384015551600483018054925115156101000261ff00199215159290921661ffff19909316929092171790559151929350916005820190610d86908261180b565b5050506001600160a01b038416600081815260036020908152604080832080546001818101835591855283852001869055938352908390528120909101805491610dcf836117a3565b90915550506001600160a01b0384166000908152600160205260409020600301610df9838261180b565b5080846001600160a01b03167f2cb4799dc2077471174a638e3d81c194aa1f781db606f6d6cc1191ae51e943f48585604051610e369291906118ca565b60405180910390a350505050565b60008111610e8b5760405162461bcd60e51b8152602060048201526014602482015273125b9d985b1a59081cdd185ad948185b5bdd5b9d60621b6044820152606401610536565b6001600160a01b03821660009081526001602052604081206002018054839290610eb6908490611790565b90915550505050565b6001600160a01b038316600090815260016020526040812054610eea90670de0b6b3a7640000611757565b905060008111610f325760405162461bcd60e51b81526020600482015260136024820152724e6f207265776172647320746f20636c61696d60681b6044820152606401610536565b6001600160a01b038416600081815260016020908152604080832083905580518082018252620186a08152808301849052815160a08101835294855284830184905284820184905290519093916060830191610fb6910160208082526013908201527214995dd85c990818db185a5b4819985a5b1959606a1b604082015260600190565b6040516020818303038152906040528152602001600181525090507f00000000000000000000000000000000000000000000000000000000000000006001600160a01b03166306cb898387604051602001611029919060609190911b6bffffffffffffffffffffffff1916815260140190565b60408051601f19818403018152828252602083018890529189910160405160208183030381529060405286866040518663ffffffff1660e01b81526004016110759594939291906118e3565b600060405180830381600087803b15801561108f57600080fd5b505af11580156110a3573d6000803e3d6000fd5b505060408051868152602081018890526001600160a01b038a1693507f1b72692e9801e07a60ca8b769ea9124ee80689836a306caa88e129f2b00836f692500160405180910390a2505050505050565b6000546001600160a01b0316331461061a5760405163118cdaa760e01b8152336004820152602401610536565b600080546001600160a01b038381166001600160a01b0319831681178455604051919092169283917f8be0079c531659141344cd1fd0a4f28419497f9722a3daafe3b4186f6b6457e09190a35050565b60006020828403121561118257600080fd5b5035919050565b60005b838110156111a457818101518382015260200161118c565b50506000910152565b600081518084526111c5816020860160208601611189565b601f01601f19169290920160200192915050565b60018060a01b0388168152866020820152856040820152846060820152831515608082015282151560a082015260e060c0820152600061121c60e08301846111ad565b9998505050505050505050565b80356001600160a01b038116811461124057600080fd5b919050565b60006020828403121561125757600080fd5b61126082611229565b9392505050565b84815283602082015282604082015260806060820152600061128c60808301846111ad565b9695505050505050565b6000806000806000608086880312156112ae57600080fd5b853567ffffffffffffffff8111156112c557600080fd5b8601606081890312156112d757600080fd5b94506112e560208701611229565b935060408601359250606086013567ffffffffffffffff81111561130857600080fd5b8601601f8101881361131957600080fd5b803567ffffffffffffffff81111561133057600080fd5b88602082840101111561134257600080fd5b959894975092955050506020019190565b60006020828403121561136557600080fd5b813567ffffffffffffffff81111561137c57600080fd5b82016080818503121561126057600080fd5b602080825282518282018190526000918401906040840190835b818110156113c65783518352602093840193909201916001016113a8565b509095945050505050565b600080604083850312156113e457600080fd5b6113ed83611229565b946020939093013593505050565b634e487b7160e01b600052604160045260246000fd5b604051601f8201601f1916810167ffffffffffffffff8111828210171561143a5761143a6113fb565b604052919050565b600067ffffffffffffffff82111561145c5761145c6113fb565b50601f01601f191660200190565b600061147d61147884611442565b611411565b905082815283838301111561149157600080fd5b828260208301376000602084830101529392505050565b600080604083850312156114bb57600080fd5b82359150602083013567ffffffffffffffff8111156114d957600080fd5b8301601f810185136114ea57600080fd5b6114f98582356020840161146a565b9150509250929050565b6020815260018060a01b0382511660208201526020820151604082015260408201516060820152606082015160808201526080820151151560a082015260a0820151151560c0820152600060c083015160e0808401526115676101008401826111ad565b949350505050565b6000806040838503121561158257600080fd5b50508035926020909101359150565b600181811c908216806115a557607f821691505b6020821081036115c557634e487b7160e01b600052602260045260246000fd5b50919050565b600080604083850312156115de57600080fd5b823560ff811681146115ef57600080fd5b9150602083013567ffffffffffffffff8111156114d957600080fd5b6000808335601e1984360301811261162257600080fd5b83018035915067ffffffffffffffff82111561163d57600080fd5b60200191503681900382131561165257600080fd5b9250929050565b8183823760009101908152919050565b6000806040838503121561167c57600080fd5b8251602084015190925067ffffffffffffffff81111561169b57600080fd5b8301601f810185136116ac57600080fd5b80516116ba61147882611442565b8181528660208385010111156116cf57600080fd5b6116e0826020830160208601611189565b8093505050509250929050565b6000602082840312156116ff57600080fd5b5051919050565b60006020828403121561171857600080fd5b8151801515811461126057600080fd5b634e487b7160e01b600052601160045260246000fd5b8181038181111561175157611751611728565b92915050565b808202811582820484141761175157611751611728565b60008261178b57634e487b7160e01b600052601260045260246000fd5b500490565b8082018082111561175157611751611728565b6000600182016117b5576117b5611728565b5060010190565b601f82111561180657806000526020600020601f840160051c810160208510156117e35750805b601f840160051c820191505b8181101561180357600081556001016117ef565b50505b505050565b815167ffffffffffffffff811115611825576118256113fb565b611839816118338454611591565b846117bc565b6020601f82116001811461186d57600083156118555750848201515b600019600385901b1c1916600184901b178455611803565b600084815260208120601f198516915b8281101561189d578785015182556020948501946001909201910161187d565b50848210156118bb5786840151600019600387901b60f8161c191681555b50505050600190811b01905550565b82815260406020820152600061156760408301846111ad565b60c0815260006118f660c08301886111ad565b6001600160a01b0387166020840152828103604084015261191781876111ad565b90508451606084015260208501511515608084015282810360a084015260018060a01b03845116815260208401511515602082015260018060a01b036040850151166040820152606084015160a0606083015261197760a08301826111ad565b9050608085015160808301528092505050969550505050505056fea264697066735822122065e3571c2a3529150c94016a0e364ff382f668357346bc594c5f4da2ce0cd7e464736f6c634300081a0033",
  "linkReferences": {},
  "deployedLinkReferences": {}
}