{
  "_format": "hh-sol-artifact-1",
  "contractName": "NFTAchievements",
  "sourceName": "contracts/NFTAchievements.sol",
  "abi": [
    {
      "inputs": [],
      "stateMutability": "nonpayable",
      "type": "constructor"
    },
    {
      "inputs": [
        {
          "internalType": "address",
          "name": "sender",
          "type": "address"
        },
        {
          "internalType": "uint256",
          "name": "tokenId",
          "type": "uint256"
        },
        {
          "internalType": "address",
          "name": "owner",
          "type": "address"
        }
      ],
      "name": "ERC721IncorrectOwner",
      "type": "error"
    },
    {
      "inputs": [
        {
          "internalType": "address",
          "name": "operator",
          "type": "address"
        },
        {
          "internalType": "uint256",
          "name": "tokenId",
          "type": "uint256"
        }
      ],
      "name": "ERC721InsufficientApproval",
      "type": "error"
    },
    {
      "inputs": [
        {
          "internalType": "address",
          "name": "approver",
          "type": "address"
        }
      ],
      "name": "ERC721InvalidApprover",
      "type": "error"
    },
    {
      "inputs": [
        {
          "internalType": "address",
          "name": "operator",
          "type": "address"
        }
      ],
      "name": "ERC721InvalidOperator",
      "type": "error"
    },
    {
      "inputs": [
        {
          "internalType": "address",
          "name": "owner",
          "type": "address"
        }
      ],
      "name": "ERC721InvalidOwner",
      "type": "error"
    },
    {
      "inputs": [
        {
          "internalType": "address",
          "name": "receiver",
          "type": "address"
        }
      ],
      "name": "ERC721InvalidReceiver",
      "type": "error"
    },
    {
      "inputs": [
        {
          "internalType": "address",
          "name": "sender",
          "type": "address"
        }
      ],
      "name": "ERC721InvalidSender",
      "type": "error"
    },
    {
      "inputs": [
        {
          "internalType": "uint256",
          "name": "tokenId",
          "type": "uint256"
        }
      ],
      "name": "ERC721NonexistentToken",
      "type": "error"
    },
    {
      "inputs": [
        {
          "internalType": "address",
          "name": "owner",
          "type": "address"
        }
      ],
      "name": "OwnableInvalidOwner",
      "type": "error"
    },
    {
      "inputs": [
        {
          "internalType": "address",
          "name": "account",
          "type": "address"
        }
      ],
      "name": "OwnableUnauthorizedAccount",
      "type": "error"
    },
    {
      "anonymous": false,
      "inputs": [
        {
          "indexed": true,
          "internalType": "address",
          "name": "player",
          "type": "address"
        },
        {
          "indexed": true,
          "internalType": "uint256",
          "name": "achievementId",
          "type": "uint256"
        }
      ],
      "name": "AchievementUnlocked",
      "type": "event"
    },
    {
      "anonymous": false,
      "inputs": [
        {
          "indexed": true,
          "internalType": "address",
          "name": "owner",
          "type": "address"
        },
        {
          "indexed": true,
          "internalType": "address",
          "name": "approved",
          "type": "address"
        },
        {
          "indexed": true,
          "internalType": "uint256",
          "name": "tokenId",
          "type": "uint256"
        }
      ],
      "name": "Approval",
      "type": "event"
    },
    {
      "anonymous": false,
      "inputs": [
        {
          "indexed": true,
          "internalType": "address",
          "name": "owner",
          "type": "address"
        },
        {
          "indexed": true,
          "internalType": "address",
          "name": "operator",
          "type": "address"
        },
        {
          "indexed": false,
          "internalType": "bool",
          "name": "approved",
          "type": "bool"
        }
      ],
      "name": "ApprovalForAll",
      "type": "event"
    },
    {
      "anonymous": false,
      "inputs": [
        {
          "indexed": true,
          "internalType": "address",
          "name": "previousOwner",
          "type": "address"
        },
        {
          "indexed": true,
          "internalType": "address",
          "name": "newOwner",
          "type": "address"
        }
      ],
      "name": "OwnershipTransferred",
      "type": "event"
    },
    {
      "anonymous": false,
      "inputs": [
        {
          "indexed": true,
          "internalType": "address",
          "name": "from",
          "type": "address"
        },
        {
          "indexed": true,
          "internalType": "address",
          "name": "to",
          "type": "address"
        },
        {
          "indexed": true,
          "internalType": "uint256",
          "name": "tokenId",
          "type": "uint256"
        }
      ],
      "name": "Transfer",
      "type": "event"
    },
    {
      "inputs": [
        {
          "internalType": "uint256",
          "name": "",
          "type": "uint256"
        }
      ],
      "name": "achievements",
      "outputs": [
        {
          "internalType": "string",
          "name": "name",
          "type": "string"
        },
        {
          "internalType": "string",
          "name": "description",
          "type": "string"
        },
        {
          "internalType": "uint256",
          "name": "requirement",
          "type": "uint256"
        },
        {
          "internalType": "uint8",
          "name": "achievementType",
          "type": "uint8"
        },
        {
          "internalType": "bool",
          "name": "active",
          "type": "bool"
        }
      ],
      "stateMutability": "view",
      "type": "function"
    },
    {
      "inputs": [
        {
          "internalType": "address",
          "name": "to",
          "type": "address"
        },
        {
          "internalType": "uint256",
          "name": "tokenId",
          "type": "uint256"
        }
      ],
      "name": "approve",
      "outputs": [],
      "stateMutability": "nonpayable",
      "type": "function"
    },
    {
      "inputs": [
        {
          "internalType": "address",
          "name": "owner",
          "type": "address"
        }
      ],
      "name": "balanceOf",
      "outputs": [
        {
          "internalType": "uint256",
          "name": "",
          "type": "uint256"
        }
      ],
      "stateMutability": "view",
      "type": "function"
    },
    {
      "inputs": [
        {
          "internalType": "uint256",
          "name": "achievementId",
          "type": "uint256"
        }
      ],
      "name": "getAchievement",
      "outputs": [
        {
          "components": [
            {
              "internalType": "string",
              "name": "name",
              "type": "string"
            },
            {
              "internalType": "string",
              "name": "description",
              "type": "string"
            },
            {
              "internalType": "uint256",
              "name": "requirement",
              "type": "uint256"
            },
            {
              "internalType": "uint8",
              "name": "achievementType",
              "type": "uint8"
            },
            {
              "internalType": "bool",
              "name": "active",
              "type": "bool"
            }
          ],
          "internalType": "struct NFTAchievements.Achievement",
          "name": "",
          "type": "tuple"
        }
      ],
      "stateMutability": "view",
      "type": "function"
    },
    {
      "inputs": [
        {
          "internalType": "uint256",
          "name": "tokenId",
          "type": "uint256"
        }
      ],
      "name": "getApproved",
      "outputs": [
        {
          "internalType": "address",
          "name": "",
          "type": "address"
        }
      ],
      "stateMutability": "view",
      "type": "function"
    },
    {
      "inputs": [
        {
          "internalType": "address",
          "name": "player",
          "type": "address"
        }
      ],
      "name": "getPlayerAchievements",
      "outputs": [
        {
          "internalType": "uint256[]",
          "name": "",
          "type": "uint256[]"
        }
      ],
      "stateMutability": "view",
      "type": "function"
    },
    {
      "inputs": [
        {
          "internalType": "address",
          "name": "player",
          "type": "address"
        },
        {
          "internalType": "uint256",
          "name": "achievementId",
          "type": "uint256"
        }
      ],
      "name": "hasAchievement",
      "outputs": [
        {
          "internalType": "bool",
          "name": "",
          "type": "bool"
        }
      ],
      "stateMutability": "view",
      "type": "function"
    },
    {
      "inputs": [
        {
          "internalType": "address",
          "name": "owner",
          "type": "address"
        },
        {
          "internalType": "address",
          "name": "operator",
          "type": "address"
        }
      ],
      "name": "isApprovedForAll",
      "outputs": [
        {
          "internalType": "bool",
          "name": "",
          "type": "bool"
        }
      ],
      "stateMutability": "view",
      "type": "function"
    },
    {
      "inputs": [
        {
          "internalType": "address",
          "name": "player",
          "type": "address"
        },
        {
          "internalType": "uint256",
          "name": "achievementId",
          "type": "uint256"
        }
      ],
      "name": "mintAchievement",
      "outputs": [],
      "stateMutability": "nonpayable",
      "type": "function"
    },
    {
      "inputs": [],
      "name": "name",
      "outputs": [
        {
          "internalType": "string",
          "name": "",
          "type": "string"
        }
      ],
      "stateMutability": "view",
      "type": "function"
    },
    {
      "inputs": [],
      "name": "nextAchievementId",
      "outputs": [
        {
          "internalType": "uint256",
          "name": "",
          "type": "uint256"
        }
      ],
      "stateMutability": "view",
      "type": "function"
    },
    {
      "inputs": [],
      "name": "nextTokenId",
      "outputs": [
        {
          "internalType": "uint256",
          "name": "",
          "type": "uint256"
        }
      ],
      "stateMutability": "view",
      "type": "function"
    },
    {
      "inputs": [],
      "name": "owner",
      "outputs": [
        {
          "internalType": "address",
          "name": "",
          "type": "address"
        }
      ],
      "stateMutability": "view",
      "type": "function"
    },
    {
      "inputs": [
        {
          "internalType": "uint256",
          "name": "tokenId",
          "type": "uint256"
        }
      ],
      "name": "ownerOf",
      "outputs": [
        {
          "internalType": "address",
          "name": "",
          "type": "address"
        }
      ],
      "stateMutability": "view",
      "type": "function"
    },
    {
      "inputs": [
        {
          "internalType": "address",
          "name": "",
          "type": "address"
        },
        {
          "internalType": "uint256",
          "name": "",
          "type": "uint256"
        }
      ],
      "name": "playerAchievements",
      "outputs": [
        {
          "internalType": "bool",
          "name": "",
          "type": "bool"
        }
      ],
      "stateMutability": "view",
      "type": "function"
    },
    {
      "inputs": [],
      "name": "renounceOwnership",
      "outputs": [],
      "stateMutability": "nonpayable",
      "type": "function"
    },
    {
      "inputs": [
        {
          "internalType": "address",
          "name": "from",
          "type": "address"
        },
        {
          "internalType": "address",
          "name": "to",
          "type": "address"
        },
        {
          "internalType": "uint256",
          "name": "tokenId",
          "type": "uint256"
        }
      ],
      "name": "safeTransferFrom",
      "outputs": [],
      "stateMutability": "nonpayable",
      "type": "function"
    },
    {
      "inputs": [
        {
          "internalType": "address",
          "name": "from",
          "type": "address"
        },
        {
          "internalType": "address",
          "name": "to",
          "type": "address"
        },
        {
          "internalType": "uint256",
          "name": "tokenId",
          "type": "uint256"
        },
        {
          "internalType": "bytes",
          "name": "data",
          "type": "bytes"
        }
      ],
      "name": "safeTransferFrom",
      "outputs": [],
      "stateMutability": "nonpayable",
      "type": "function"
    },
    {
      "inputs": [
        {
          "internalType": "address",
          "name": "operator",
          "type": "address"
        },
        {
          "internalType": "bool",
          "name": "approved",
          "type": "bool"
        }
      ],
      "name": "setApprovalForAll",
      "outputs": [],
      "stateMutability": "nonpayable",
      "type": "function"
    },
    {
      "inputs": [
        {
          "internalType": "bytes4",
          "name": "interfaceId",
          "type": "bytes4"
        }
      ],
      "name": "supportsInterface",
      "outputs": [
        {
          "internalType": "bool",
          "name": "",
          "type": "bool"
        }
      ],
      "stateMutability": "view",
      "type": "function"
    },
    {
      "inputs": [],
      "name": "symbol",
      "outputs": [
        {
          "internalType": "string",
          "name": "",
          "type": "string"
        }
      ],
      "stateMutability": "view",
      "type": "function"
    },
    {
      "inputs": [
        {
          "internalType": "uint256",
          "name": "",
          "type": "uint256"
        }
      ],
      "name": "tokenToAchievement",
      "outputs": [
        {
          "internalType": "uint256",
          "name": "",
          "type": "uint256"
        }
      ],
      "stateMutability": "view",
      "type": "function"
    },
    {
      "inputs": [
        {
          "internalType": "uint256",
          "name": "tokenId",
          "type": "uint256"
        }
      ],
      "name": "tokenURI",
      "outputs": [
        {
          "internalType": "string",
          "name": "",
          "type": "string"
        }
      ],
      "stateMutability": "view",
      "type": "function"
    },
    {
      "inputs": [
        {
          "internalType": "address",
          "name": "from",
          "type": "address"
        },
        {
          "internalType": "address",
          "name": "to",
          "type": "address"
        },
        {
          "internalType": "uint256",
          "name": "tokenId",
          "type": "uint256"
        }
      ],
      "name": "transferFrom",
      "outputs": [],
      "stateMutability": "nonpayable",
      "type": "function"
    },
    {
      "inputs": [
        {
          "internalType": "address",
          "name": "newOwner",
          "type": "address"
        }
      ],
      "name": "transferOwnership",
      "outputs": [],
      "stateMutability": "nonpayable",
      "type": "function"
    }
  ],
  "bytecode": "0x60806040526001600a556001600b5534801561001a57600080fd5b50336040518060400160405280601c81526020017f5a657461536f6369616c466920414920416368696576656d656e747300000000815250604051806040016040528060048152602001635a53414160e01b815250816000908161007e9190610497565b50600161008b8282610497565b5050506001600160a01b0381166100bc57604051631e4fbdf760e01b81526000600482015260240160405180910390fd5b6100c5816100d3565b506100ce610125565b61057c565b600680546001600160a01b038381166001600160a01b0319831681179093556040519116919082907f8be0079c531659141344cd1fd0a4f28419497f9722a3daafe3b4186f6b6457e090600090a35050565b6040518060a001604052806040518060400160405280601081526020016f2334b939ba10283932b234b1ba34b7b760811b8152508152602001604051806060016040528060248152602001611e3a602491398152600160208201819052600060408301819052606090920152600b805460079291826101a383610555565b9091555081526020810191909152604001600020815181906101c59082610497565b50602082015160018201906101da9082610497565b5060408281015160028301556060808401516003909301805460809586015115156101000261ffff1990911660ff9095169490941793909317909255805160e081018252600e60a082019081526d29b7b1b4b0b61029ba30b93a32b960911b60c0830152815281518083018352601681527f43726561746520796f757220666972737420706f737400000000000000000000602082810191909152820152600191810182905291820181905291810191909152600b805460079160009190826102a283610555565b9091555081526020810191909152604001600020815181906102c49082610497565b50602082015160018201906102d99082610497565b5060408281015160028301556060808401516003909301805460809095015115156101000261ffff1990951660ff9094169390931793909317909155805160e081018252600b60a082019081526a20a4902337b63637bbb2b960a91b60c0830152815281519283019091526021808352909160208084019290611e1990830139815260056020820152600260408201526001606090910152600b8054600791600091908261038683610555565b9091555081526020810191909152604001600020815181906103a89082610497565b50602082015160018201906103bd9082610497565b506040820151600282015560608201516003909101805460809093015115156101000261ffff1990931660ff90921691909117919091179055565b634e487b7160e01b600052604160045260246000fd5b600181811c9082168061042257607f821691505b60208210810361044257634e487b7160e01b600052602260045260246000fd5b50919050565b601f82111561049257806000526020600020601f840160051c8101602085101561046f5750805b601f840160051c820191505b8181101561048f576000815560010161047b565b50505b505050565b81516001600160401b038111156104b0576104b06103f8565b6104c4816104be845461040e565b84610448565b6020601f8211600181146104f857600083156104e05750848201515b600019600385901b1c1916600184901b17845561048f565b600084815260208120601f198516915b828110156105285787850151825560209485019460019092019101610508565b50848210156105465786840151600019600387901b60f8161c191681555b50505050600190811b01905550565b60006001820161057557634e487b7160e01b600052601160045260246000fd5b5060010190565b61188e8061058b6000396000f3fe608060405234801561001057600080fd5b50600436106101735760003560e01c8063715018a6116100de578063ab5eba1611610097578063df999dfd11610071578063df999dfd1461036b578063e985e9c514610399578063f2ccc543146103ac578063f2fde38b146103cc57600080fd5b8063ab5eba161461030c578063b88d4fde14610345578063c87b56dd1461035857600080fd5b8063715018a6146102af57806375794a3c146102b75780638da5cb5b146102c057806395d89b41146102d15780639ce67bdd146102d9578063a22cb465146102f957600080fd5b8063266910d711610130578063266910d71461023657806327aed72e1461024957806342842e0e1461026d57806342be153e146102805780636352211e1461028957806370a082311461029c57600080fd5b806301ffc9a71461017857806306fdde03146101a0578063081812fc146101b5578063095ea7b3146101e057806319837bad146101f557806323b872dd14610223575b600080fd5b61018b6101863660046113c4565b6103df565b60405190151581526020015b60405180910390f35b6101a8610431565b6040516101979190611431565b6101c86101c3366004611444565b6104c3565b6040516001600160a01b039091168152602001610197565b6101f36101ee366004611479565b6104ec565b005b610215610203366004611444565b60096020526000908152604090205481565b604051908152602001610197565b6101f36102313660046114a3565b6104fb565b6101f3610244366004611479565b61058b565b61025c610257366004611444565b6106f2565b6040516101979594939291906114e0565b6101f361027b3660046114a3565b610837565b610215600b5481565b6101c8610297366004611444565b610857565b6102156102aa366004611528565b610862565b6101f36108aa565b610215600a5481565b6006546001600160a01b03166101c8565b6101a86108be565b6102ec6102e7366004611528565b6108cd565b6040516101979190611543565b6101f3610307366004611586565b6109e1565b61018b61031a366004611479565b6001600160a01b03919091166000908152600860209081526040808320938352929052205460ff1690565b6101f36103533660046115d8565b6109ec565b6101a8610366366004611444565b610a04565b61018b610379366004611479565b600860209081526000928352604080842090915290825290205460ff1681565b61018b6103a73660046116bc565b610a79565b6103bf6103ba366004611444565b610aa7565b60405161019791906116ef565b6101f36103da366004611528565b610c48565b60006001600160e01b031982166380ac58cd60e01b148061041057506001600160e01b03198216635b5e139f60e01b145b8061042b57506301ffc9a760e01b6001600160e01b03198316145b92915050565b60606000805461044090611758565b80601f016020809104026020016040519081016040528092919081815260200182805461046c90611758565b80156104b95780601f1061048e576101008083540402835291602001916104b9565b820191906000526020600020905b81548152906001019060200180831161049c57829003601f168201915b5050505050905090565b60006104ce82610c86565b506000828152600460205260409020546001600160a01b031661042b565b6104f7828233610cbf565b5050565b6001600160a01b03821661052a57604051633250574960e11b8152600060048201526024015b60405180910390fd5b6000610537838333610ccc565b9050836001600160a01b0316816001600160a01b031614610585576040516364283d7b60e01b81526001600160a01b0380861660048301526024820184905282166044820152606401610521565b50505050565b610593610dc5565b600081815260076020526040902060030154610100900460ff166105f25760405162461bcd60e51b8152602060048201526016602482015275416368696576656d656e74206e6f742061637469766560501b6044820152606401610521565b6001600160a01b038216600090815260086020908152604080832084845290915290205460ff16156106595760405162461bcd60e51b815260206004820152601060248201526f105b1c9958591e481d5b9b1bd8dad95960821b6044820152606401610521565b6001600160a01b03821660009081526008602090815260408083208484529091528120805460ff19166001179055600a8054908261069683611792565b90915550600081815260096020526040902083905590506106b78382610df2565b60405182906001600160a01b038516907fecfcf3a608fefe3b6ea7d5efc965cfc3ad0043767f8618944c737253329892d790600090a3505050565b60076020526000908152604090208054819061070d90611758565b80601f016020809104026020016040519081016040528092919081815260200182805461073990611758565b80156107865780601f1061075b57610100808354040283529160200191610786565b820191906000526020600020905b81548152906001019060200180831161076957829003601f168201915b50505050509080600101805461079b90611758565b80601f01602080910402602001604051908101604052809291908181526020018280546107c790611758565b80156108145780601f106107e957610100808354040283529160200191610814565b820191906000526020600020905b8154815290600101906020018083116107f757829003601f168201915b50505050600283015460039093015491929160ff80821692506101009091041685565b610852838383604051806020016040528060008152506109ec565b505050565b600061042b82610c86565b60006001600160a01b03821661088e576040516322718ad960e21b815260006004820152602401610521565b506001600160a01b031660009081526003602052604090205490565b6108b2610dc5565b6108bc6000610e57565b565b60606001805461044090611758565b6060600060015b600b54811015610920576001600160a01b038416600090815260086020908152604080832084845290915290205460ff1615610918578161091481611792565b9250505b6001016108d4565b5060008167ffffffffffffffff81111561093c5761093c6115c2565b604051908082528060200260200182016040528015610965578160200160208202803683370190505b509050600060015b600b548110156109d7576001600160a01b038616600090815260086020908152604080832084845290915290205460ff16156109cf57808383815181106109b6576109b66117b9565b6020908102919091010152816109cb81611792565b9250505b60010161096d565b5090949350505050565b6104f7338383610ea9565b6109f78484846104fb565b6105853385858585610f48565b6060610a0f82610c86565b506000610a2760408051602081019091526000815290565b90506000815111610a475760405180602001604052806000815250610a72565b80610a5184611073565b604051602001610a629291906117cf565b6040516020818303038152906040525b9392505050565b6001600160a01b03918216600090815260056020908152604080832093909416825291909152205460ff1690565b610ade6040518060a00160405280606081526020016060815260200160008152602001600060ff1681526020016000151581525090565b60008281526007602052604090819020815160a08101909252805482908290610b0690611758565b80601f0160208091040260200160405190810160405280929190818152602001828054610b3290611758565b8015610b7f5780601f10610b5457610100808354040283529160200191610b7f565b820191906000526020600020905b815481529060010190602001808311610b6257829003601f168201915b50505050508152602001600182018054610b9890611758565b80601f0160208091040260200160405190810160405280929190818152602001828054610bc490611758565b8015610c115780601f10610be657610100808354040283529160200191610c11565b820191906000526020600020905b815481529060010190602001808311610bf457829003601f168201915b50505091835250506002820154602082015260039091015460ff808216604084015261010090910416151560609091015292915050565b610c50610dc5565b6001600160a01b038116610c7a57604051631e4fbdf760e01b815260006004820152602401610521565b610c8381610e57565b50565b6000818152600260205260408120546001600160a01b03168061042b57604051637e27328960e01b815260048101849052602401610521565b6108528383836001611106565b6000828152600260205260408120546001600160a01b0390811690831615610cf957610cf981848661120c565b6001600160a01b03811615610d3757610d16600085600080611106565b6001600160a01b038116600090815260036020526040902080546000190190555b6001600160a01b03851615610d66576001600160a01b0385166000908152600360205260409020805460010190555b60008481526002602052604080822080546001600160a01b0319166001600160a01b0389811691821790925591518793918516917fddf252ad1be2c89b69c2b068fc378daa952ba7f163c4a11628f55a4df523b3ef91a4949350505050565b6006546001600160a01b031633146108bc5760405163118cdaa760e01b8152336004820152602401610521565b6001600160a01b038216610e1c57604051633250574960e11b815260006004820152602401610521565b6000610e2a83836000610ccc565b90506001600160a01b03811615610852576040516339e3563760e11b815260006004820152602401610521565b600680546001600160a01b038381166001600160a01b0319831681179093556040519116919082907f8be0079c531659141344cd1fd0a4f28419497f9722a3daafe3b4186f6b6457e090600090a35050565b6001600160a01b038216610edb57604051630b61174360e31b81526001600160a01b0383166004820152602401610521565b6001600160a01b03838116600081815260056020908152604080832094871680845294825291829020805460ff191686151590811790915591519182527f17307eab39ab6107e8899845ad3d59bd9653f200f220920489ca2b5937696c31910160405180910390a3505050565b6001600160a01b0383163b1561106c57604051630a85bd0160e11b81526001600160a01b0384169063150b7a0290610f8a9088908890879087906004016117fe565b6020604051808303816000875af1925050508015610fc5575060408051601f3d908101601f19168201909252610fc29181019061183b565b60015b61102e573d808015610ff3576040519150601f19603f3d011682016040523d82523d6000602084013e610ff8565b606091505b50805160000361102657604051633250574960e11b81526001600160a01b0385166004820152602401610521565b805160208201fd5b6001600160e01b03198116630a85bd0160e11b1461106a57604051633250574960e11b81526001600160a01b0385166004820152602401610521565b505b5050505050565b6060600061108083611270565b600101905060008167ffffffffffffffff8111156110a0576110a06115c2565b6040519080825280601f01601f1916602001820160405280156110ca576020820181803683370190505b5090508181016020015b600019016f181899199a1a9b1b9c1cb0b131b232b360811b600a86061a8153600a85049450846110d457509392505050565b808061111a57506001600160a01b03821615155b156111dc57600061112a84610c86565b90506001600160a01b038316158015906111565750826001600160a01b0316816001600160a01b031614155b801561116957506111678184610a79565b155b156111925760405163a9fbf51f60e01b81526001600160a01b0384166004820152602401610521565b81156111da5783856001600160a01b0316826001600160a01b03167f8c5be1e5ebec7d5bd14f71427d1e84f3dd0314c0f7b2291e5b200ac8c7c3b92560405160405180910390a45b505b5050600090815260046020526040902080546001600160a01b0319166001600160a01b0392909216919091179055565b611217838383611348565b610852576001600160a01b03831661124557604051637e27328960e01b815260048101829052602401610521565b60405163177e802f60e01b81526001600160a01b038316600482015260248101829052604401610521565b60008072184f03e93ff9f4daa797ed6e38ed64bf6a1f0160401b83106112af5772184f03e93ff9f4daa797ed6e38ed64bf6a1f0160401b830492506040015b6d04ee2d6d415b85acef810000000083106112db576d04ee2d6d415b85acef8100000000830492506020015b662386f26fc1000083106112f957662386f26fc10000830492506010015b6305f5e1008310611311576305f5e100830492506008015b612710831061132557612710830492506004015b60648310611337576064830492506002015b600a831061042b5760010192915050565b60006001600160a01b038316158015906113a65750826001600160a01b0316846001600160a01b0316148061138257506113828484610a79565b806113a657506000828152600460205260409020546001600160a01b038481169116145b949350505050565b6001600160e01b031981168114610c8357600080fd5b6000602082840312156113d657600080fd5b8135610a72816113ae565b60005b838110156113fc5781810151838201526020016113e4565b50506000910152565b6000815180845261141d8160208601602086016113e1565b601f01601f19169290920160200192915050565b602081526000610a726020830184611405565b60006020828403121561145657600080fd5b5035919050565b80356001600160a01b038116811461147457600080fd5b919050565b6000806040838503121561148c57600080fd5b6114958361145d565b946020939093013593505050565b6000806000606084860312156114b857600080fd5b6114c18461145d565b92506114cf6020850161145d565b929592945050506040919091013590565b60a0815260006114f360a0830188611405565b82810360208401526115058188611405565b6040840196909652505060ff929092166060830152151560809091015292915050565b60006020828403121561153a57600080fd5b610a728261145d565b602080825282518282018190526000918401906040840190835b8181101561157b57835183526020938401939092019160010161155d565b509095945050505050565b6000806040838503121561159957600080fd5b6115a28361145d565b9150602083013580151581146115b757600080fd5b809150509250929050565b634e487b7160e01b600052604160045260246000fd5b600080600080608085870312156115ee57600080fd5b6115f78561145d565b93506116056020860161145d565b925060408501359150606085013567ffffffffffffffff81111561162857600080fd5b8501601f8101871361163957600080fd5b803567ffffffffffffffff811115611653576116536115c2565b604051601f8201601f19908116603f0116810167ffffffffffffffff81118282101715611682576116826115c2565b60405281815282820160200189101561169a57600080fd5b8160208401602083013760006020838301015280935050505092959194509250565b600080604083850312156116cf57600080fd5b6116d88361145d565b91506116e66020840161145d565b90509250929050565b602081526000825160a0602084015261170b60c0840182611405565b90506020840151601f198483030160408501526117288282611405565b9150506040840151606084015260ff60608501511660808401526080840151151560a08401528091505092915050565b600181811c9082168061176c57607f821691505b60208210810361178c57634e487b7160e01b600052602260045260246000fd5b50919050565b6000600182016117b257634e487b7160e01b600052601160045260246000fd5b5060010190565b634e487b7160e01b600052603260045260246000fd5b600083516117e18184602088016113e1565b8351908301906117f58183602088016113e1565b01949350505050565b6001600160a01b038581168252841660208201526040810183905260806060820181905260009061183190830184611405565b9695505050505050565b60006020828403121561184d57600080fd5b8151610a72816113ae56fea26469706673582212200b835d7218cda91e4174b47cda9b91e063de25f109a59ec4ebd8d351dab5653864736f6c634300081a0033466f6c6c6f77204149207265636f6d6d656e646174696f6e7320352074696d65734d616b6520796f75722066697273742041492d6775696465642070726564696374696f6e",
  "linkReferences": {},
  "deployedLinkReferences": {}
}