{
  "_format": "hh-sol-artifact-1",
  "contractName": "NFTAchievements",
  "sourceName": "contracts/NFTAchievements.sol",
  "abi": [
    {
      "inputs": [],
      "stateMutability": "nonpayable",
      "type": "constructor"
    },
    {
      "inputs": [
        {
          "internalType": "address",
          "name": "sender",
          "type": "address"
        },
        {
          "internalType": "uint256",
          "name": "tokenId",
          "type": "uint256"
        },
        {
          "internalType": "address",
          "name": "owner",
          "type": "address"
        }
      ],
      "name": "ERC721IncorrectOwner",
      "type": "error"
    },
    {
      "inputs": [
        {
          "internalType": "address",
          "name": "operator",
          "type": "address"
        },
        {
          "internalType": "uint256",
          "name": "tokenId",
          "type": "uint256"
        }
      ],
      "name": "ERC721InsufficientApproval",
      "type": "error"
    },
    {
      "inputs": [
        {
          "internalType": "address",
          "name": "approver",
          "type": "address"
        }
      ],
      "name": "ERC721InvalidApprover",
      "type": "error"
    },
    {
      "inputs": [
        {
          "internalType": "address",
          "name": "operator",
          "type": "address"
        }
      ],
      "name": "ERC721InvalidOperator",
      "type": "error"
    },
    {
      "inputs": [
        {
          "internalType": "address",
          "name": "owner",
          "type": "address"
        }
      ],
      "name": "ERC721InvalidOwner",
      "type": "error"
    },
    {
      "inputs": [
        {
          "internalType": "address",
          "name": "receiver",
          "type": "address"
        }
      ],
      "name": "ERC721InvalidReceiver",
      "type": "error"
    },
    {
      "inputs": [
        {
          "internalType": "address",
          "name": "sender",
          "type": "address"
        }
      ],
      "name": "ERC721InvalidSender",
      "type": "error"
    },
    {
      "inputs": [
        {
          "internalType": "uint256",
          "name": "tokenId",
          "type": "uint256"
        }
      ],
      "name": "ERC721NonexistentToken",
      "type": "error"
    },
    {
      "inputs": [
        {
          "internalType": "address",
          "name": "owner",
          "type": "address"
        }
      ],
      "name": "OwnableInvalidOwner",
      "type": "error"
    },
    {
      "inputs": [
        {
          "internalType": "address",
          "name": "account",
          "type": "address"
        }
      ],
      "name": "OwnableUnauthorizedAccount",
      "type": "error"
    },
    {
      "anonymous": false,
      "inputs": [
        {
          "indexed": true,
          "internalType": "address",
          "name": "player",
          "type": "address"
        },
        {
          "indexed": true,
          "internalType": "uint256",
          "name": "achievementId",
          "type": "uint256"
        },
        {
          "indexed": false,
          "internalType": "uint256",
          "name": "tokenId",
          "type": "uint256"
        }
      ],
      "name": "AchievementUnlocked",
      "type": "event"
    },
    {
      "anonymous": false,
      "inputs": [
        {
          "indexed": true,
          "internalType": "address",
          "name": "owner",
          "type": "address"
        },
        {
          "indexed": true,
          "internalType": "address",
          "name": "approved",
          "type": "address"
        },
        {
          "indexed": true,
          "internalType": "uint256",
          "name": "tokenId",
          "type": "uint256"
        }
      ],
      "name": "Approval",
      "type": "event"
    },
    {
      "anonymous": false,
      "inputs": [
        {
          "indexed": true,
          "internalType": "address",
          "name": "owner",
          "type": "address"
        },
        {
          "indexed": true,
          "internalType": "address",
          "name": "operator",
          "type": "address"
        },
        {
          "indexed": false,
          "internalType": "bool",
          "name": "approved",
          "type": "bool"
        }
      ],
      "name": "ApprovalForAll",
      "type": "event"
    },
    {
      "anonymous": false,
      "inputs": [
        {
          "indexed": true,
          "internalType": "address",
          "name": "previousOwner",
          "type": "address"
        },
        {
          "indexed": true,
          "internalType": "address",
          "name": "newOwner",
          "type": "address"
        }
      ],
      "name": "OwnershipTransferred",
      "type": "event"
    },
    {
      "anonymous": false,
      "inputs": [
        {
          "indexed": true,
          "internalType": "address",
          "name": "from",
          "type": "address"
        },
        {
          "indexed": true,
          "internalType": "address",
          "name": "to",
          "type": "address"
        },
        {
          "indexed": true,
          "internalType": "uint256",
          "name": "tokenId",
          "type": "uint256"
        }
      ],
      "name": "Transfer",
      "type": "event"
    },
    {
      "inputs": [
        {
          "internalType": "uint256",
          "name": "",
          "type": "uint256"
        }
      ],
      "name": "achievements",
      "outputs": [
        {
          "internalType": "string",
          "name": "name",
          "type": "string"
        },
        {
          "internalType": "string",
          "name": "description",
          "type": "string"
        },
        {
          "internalType": "uint256",
          "name": "requirement",
          "type": "uint256"
        },
        {
          "internalType": "uint8",
          "name": "achievementType",
          "type": "uint8"
        },
        {
          "internalType": "bool",
          "name": "active",
          "type": "bool"
        }
      ],
      "stateMutability": "view",
      "type": "function"
    },
    {
      "inputs": [
        {
          "internalType": "address",
          "name": "to",
          "type": "address"
        },
        {
          "internalType": "uint256",
          "name": "tokenId",
          "type": "uint256"
        }
      ],
      "name": "approve",
      "outputs": [],
      "stateMutability": "nonpayable",
      "type": "function"
    },
    {
      "inputs": [
        {
          "internalType": "address",
          "name": "owner",
          "type": "address"
        }
      ],
      "name": "balanceOf",
      "outputs": [
        {
          "internalType": "uint256",
          "name": "",
          "type": "uint256"
        }
      ],
      "stateMutability": "view",
      "type": "function"
    },
    {
      "inputs": [
        {
          "internalType": "address",
          "name": "player",
          "type": "address"
        },
        {
          "internalType": "uint256",
          "name": "totalPredictions",
          "type": "uint256"
        },
        {
          "internalType": "uint256",
          "name": "totalPosts",
          "type": "uint256"
        },
        {
          "internalType": "bool",
          "name": "hasUsedCrossChain",
          "type": "bool"
        }
      ],
      "name": "checkAndMintBasicAchievements",
      "outputs": [],
      "stateMutability": "nonpayable",
      "type": "function"
    },
    {
      "inputs": [
        {
          "internalType": "uint256",
          "name": "achievementId",
          "type": "uint256"
        }
      ],
      "name": "getAchievement",
      "outputs": [
        {
          "components": [
            {
              "internalType": "string",
              "name": "name",
              "type": "string"
            },
            {
              "internalType": "string",
              "name": "description",
              "type": "string"
            },
            {
              "internalType": "uint256",
              "name": "requirement",
              "type": "uint256"
            },
            {
              "internalType": "uint8",
              "name": "achievementType",
              "type": "uint8"
            },
            {
              "internalType": "bool",
              "name": "active",
              "type": "bool"
            }
          ],
          "internalType": "struct NFTAchievements.Achievement",
          "name": "",
          "type": "tuple"
        }
      ],
      "stateMutability": "view",
      "type": "function"
    },
    {
      "inputs": [
        {
          "internalType": "uint256",
          "name": "tokenId",
          "type": "uint256"
        }
      ],
      "name": "getApproved",
      "outputs": [
        {
          "internalType": "address",
          "name": "",
          "type": "address"
        }
      ],
      "stateMutability": "view",
      "type": "function"
    },
    {
      "inputs": [
        {
          "internalType": "address",
          "name": "player",
          "type": "address"
        }
      ],
      "name": "getPlayerAchievements",
      "outputs": [
        {
          "internalType": "uint256[]",
          "name": "",
          "type": "uint256[]"
        }
      ],
      "stateMutability": "view",
      "type": "function"
    },
    {
      "inputs": [
        {
          "internalType": "uint256",
          "name": "tokenId",
          "type": "uint256"
        }
      ],
      "name": "getTokenURI",
      "outputs": [
        {
          "internalType": "string",
          "name": "",
          "type": "string"
        }
      ],
      "stateMutability": "view",
      "type": "function"
    },
    {
      "inputs": [
        {
          "internalType": "address",
          "name": "player",
          "type": "address"
        },
        {
          "internalType": "uint256",
          "name": "achievementId",
          "type": "uint256"
        }
      ],
      "name": "hasAchievement",
      "outputs": [
        {
          "internalType": "bool",
          "name": "",
          "type": "bool"
        }
      ],
      "stateMutability": "view",
      "type": "function"
    },
    {
      "inputs": [
        {
          "internalType": "address",
          "name": "owner",
          "type": "address"
        },
        {
          "internalType": "address",
          "name": "operator",
          "type": "address"
        }
      ],
      "name": "isApprovedForAll",
      "outputs": [
        {
          "internalType": "bool",
          "name": "",
          "type": "bool"
        }
      ],
      "stateMutability": "view",
      "type": "function"
    },
    {
      "inputs": [
        {
          "internalType": "address",
          "name": "player",
          "type": "address"
        },
        {
          "internalType": "uint256",
          "name": "achievementId",
          "type": "uint256"
        }
      ],
      "name": "mintAchievement",
      "outputs": [],
      "stateMutability": "nonpayable",
      "type": "function"
    },
    {
      "inputs": [],
      "name": "name",
      "outputs": [
        {
          "internalType": "string",
          "name": "",
          "type": "string"
        }
      ],
      "stateMutability": "view",
      "type": "function"
    },
    {
      "inputs": [],
      "name": "nextAchievementId",
      "outputs": [
        {
          "internalType": "uint256",
          "name": "",
          "type": "uint256"
        }
      ],
      "stateMutability": "view",
      "type": "function"
    },
    {
      "inputs": [],
      "name": "nextTokenId",
      "outputs": [
        {
          "internalType": "uint256",
          "name": "",
          "type": "uint256"
        }
      ],
      "stateMutability": "view",
      "type": "function"
    },
    {
      "inputs": [],
      "name": "owner",
      "outputs": [
        {
          "internalType": "address",
          "name": "",
          "type": "address"
        }
      ],
      "stateMutability": "view",
      "type": "function"
    },
    {
      "inputs": [
        {
          "internalType": "uint256",
          "name": "tokenId",
          "type": "uint256"
        }
      ],
      "name": "ownerOf",
      "outputs": [
        {
          "internalType": "address",
          "name": "",
          "type": "address"
        }
      ],
      "stateMutability": "view",
      "type": "function"
    },
    {
      "inputs": [
        {
          "internalType": "address",
          "name": "",
          "type": "address"
        },
        {
          "internalType": "uint256",
          "name": "",
          "type": "uint256"
        }
      ],
      "name": "playerAchievements",
      "outputs": [
        {
          "internalType": "bool",
          "name": "",
          "type": "bool"
        }
      ],
      "stateMutability": "view",
      "type": "function"
    },
    {
      "inputs": [],
      "name": "renounceOwnership",
      "outputs": [],
      "stateMutability": "nonpayable",
      "type": "function"
    },
    {
      "inputs": [
        {
          "internalType": "address",
          "name": "from",
          "type": "address"
        },
        {
          "internalType": "address",
          "name": "to",
          "type": "address"
        },
        {
          "internalType": "uint256",
          "name": "tokenId",
          "type": "uint256"
        }
      ],
      "name": "safeTransferFrom",
      "outputs": [],
      "stateMutability": "nonpayable",
      "type": "function"
    },
    {
      "inputs": [
        {
          "internalType": "address",
          "name": "from",
          "type": "address"
        },
        {
          "internalType": "address",
          "name": "to",
          "type": "address"
        },
        {
          "internalType": "uint256",
          "name": "tokenId",
          "type": "uint256"
        },
        {
          "internalType": "bytes",
          "name": "data",
          "type": "bytes"
        }
      ],
      "name": "safeTransferFrom",
      "outputs": [],
      "stateMutability": "nonpayable",
      "type": "function"
    },
    {
      "inputs": [
        {
          "internalType": "address",
          "name": "operator",
          "type": "address"
        },
        {
          "internalType": "bool",
          "name": "approved",
          "type": "bool"
        }
      ],
      "name": "setApprovalForAll",
      "outputs": [],
      "stateMutability": "nonpayable",
      "type": "function"
    },
    {
      "inputs": [
        {
          "internalType": "bytes4",
          "name": "interfaceId",
          "type": "bytes4"
        }
      ],
      "name": "supportsInterface",
      "outputs": [
        {
          "internalType": "bool",
          "name": "",
          "type": "bool"
        }
      ],
      "stateMutability": "view",
      "type": "function"
    },
    {
      "inputs": [],
      "name": "symbol",
      "outputs": [
        {
          "internalType": "string",
          "name": "",
          "type": "string"
        }
      ],
      "stateMutability": "view",
      "type": "function"
    },
    {
      "inputs": [
        {
          "internalType": "uint256",
          "name": "",
          "type": "uint256"
        }
      ],
      "name": "tokenToAchievement",
      "outputs": [
        {
          "internalType": "uint256",
          "name": "",
          "type": "uint256"
        }
      ],
      "stateMutability": "view",
      "type": "function"
    },
    {
      "inputs": [
        {
          "internalType": "uint256",
          "name": "tokenId",
          "type": "uint256"
        }
      ],
      "name": "tokenURI",
      "outputs": [
        {
          "internalType": "string",
          "name": "",
          "type": "string"
        }
      ],
      "stateMutability": "view",
      "type": "function"
    },
    {
      "inputs": [
        {
          "internalType": "address",
          "name": "from",
          "type": "address"
        },
        {
          "internalType": "address",
          "name": "to",
          "type": "address"
        },
        {
          "internalType": "uint256",
          "name": "tokenId",
          "type": "uint256"
        }
      ],
      "name": "transferFrom",
      "outputs": [],
      "stateMutability": "nonpayable",
      "type": "function"
    },
    {
      "inputs": [
        {
          "internalType": "address",
          "name": "newOwner",
          "type": "address"
        }
      ],
      "name": "transferOwnership",
      "outputs": [],
      "stateMutability": "nonpayable",
      "type": "function"
    }
  ],
  "bytecode": "0x60806040526001600a556001600b5534801561001a57600080fd5b50336040518060400160405280601981526020017f5a657461536f6369616c466920416368696576656d656e747300000000000000815250604051806040016040528060038152602001625a534160e81b815250816000908161007d91906104c3565b50600161008a82826104c3565b5050506001600160a01b0381166100bb57604051631e4fbdf760e01b81526000600482015260240160405180910390fd5b6100c4816100d2565b506100cd610124565b6105a8565b600680546001600160a01b038381166001600160a01b0319831681179093556040519116919082907f8be0079c531659141344cd1fd0a4f28419497f9722a3daafe3b4186f6b6457e090600090a35050565b6040805160e081018252601060a082019081526f2334b939ba10283932b234b1ba34b7b760811b60c083015281528151808301835260208082527f4d616b6520796f75722066697273742070726963652070726564696374696f6e8282015282015260019181018290526000606082018190526080820192909252600b805491926007929091826101b483610581565b9091555081526020810191909152604001600020815181906101d690826104c3565b50602082015160018201906101eb90826104c3565b5060408281015160028301556060808401516003909301805460809586015115156101000261ffff1990911660ff9095169490941793909317909255805160e081018252600e60a082019081526d29b7b1b4b0b61029ba30b93a32b960911b60c0830152815281518083018352601681527f43726561746520796f757220666972737420706f737400000000000000000000602082810191909152820152600191810182905291820181905291810191909152600b805460079160009190826102b383610581565b9091555081526020810191909152604001600020815181906102d590826104c3565b50602082015160018201906102ea90826104c3565b506040828101516002808401919091556060808501516003909401805460809687015115156101000261ffff1990911660ff9096169590951794909417909355815160e081018352601060a082019081526f21b937b9b99021b430b4b7102ab9b2b960811b60c083015281528251808401845260208082527f436f6d706c6574652063726f73732d636861696e207472616e73616374696f6e8282015282015260019281018390529283015291810191909152600b805460079160009190826103b283610581565b9091555081526020810191909152604001600020815181906103d490826104c3565b50602082015160018201906103e990826104c3565b506040820151600282015560608201516003909101805460809093015115156101000261ffff1990931660ff90921691909117919091179055565b634e487b7160e01b600052604160045260246000fd5b600181811c9082168061044e57607f821691505b60208210810361046e57634e487b7160e01b600052602260045260246000fd5b50919050565b601f8211156104be57806000526020600020601f840160051c8101602085101561049b5750805b601f840160051c820191505b818110156104bb57600081556001016104a7565b50505b505050565b81516001600160401b038111156104dc576104dc610424565b6104f0816104ea845461043a565b84610474565b6020601f821160018114610524576000831561050c5750848201515b600019600385901b1c1916600184901b1784556104bb565b600084815260208120601f198516915b828110156105545787850151825560209485019460019092019101610534565b50848210156105725786840151600019600387901b60f8161c191681555b50505050600190811b01905550565b6000600182016105a157634e487b7160e01b600052601160045260246000fd5b5060010190565b611f3b806105b76000396000f3fe608060405234801561001057600080fd5b50600436106101a95760003560e01c806370a08231116100f9578063ab5eba1611610097578063df999dfd11610071578063df999dfd146103c7578063e985e9c5146103f5578063f2ccc54314610408578063f2fde38b1461042857600080fd5b8063ab5eba1614610368578063b88d4fde146103a1578063c87b56dd146103b457600080fd5b80638da5cb5b116100d35780638da5cb5b1461031c57806395d89b411461032d5780639ce67bdd14610335578063a22cb4651461035557600080fd5b806370a08231146102f8578063715018a61461030b57806375794a3c1461031357600080fd5b8063266910d71161016657806342842e0e1161014057806342842e0e146102b657806342be153e146102c957806351edde76146102d25780636352211e146102e557600080fd5b8063266910d71461026c57806327aed72e1461027f5780633bb3a24d146102a357600080fd5b806301ffc9a7146101ae57806306fdde03146101d6578063081812fc146101eb578063095ea7b31461021657806319837bad1461022b57806323b872dd14610259575b600080fd5b6101c16101bc36600461186a565b61043b565b60405190151581526020015b60405180910390f35b6101de61048d565b6040516101cd91906118d7565b6101fe6101f93660046118ea565b61051f565b6040516001600160a01b0390911681526020016101cd565b61022961022436600461191f565b610548565b005b61024b6102393660046118ea565b60096020526000908152604090205481565b6040519081526020016101cd565b610229610267366004611949565b610557565b61022961027a36600461191f565b6105e7565b61029261028d3660046118ea565b610769565b6040516101cd959493929190611986565b6101de6102b13660046118ea565b6108ae565b6102296102c4366004611949565b610ae8565b61024b600b5481565b6102296102e03660046119de565b610b08565b6101fe6102f33660046118ea565b610bde565b61024b610306366004611a24565b610be9565b610229610c31565b61024b600a5481565b6006546001600160a01b03166101fe565b6101de610c45565b610348610343366004611a24565b610c54565b6040516101cd9190611a3f565b610229610363366004611a82565b610d68565b6101c161037636600461191f565b6001600160a01b03919091166000908152600860209081526040808320938352929052205460ff1690565b6102296103af366004611acb565b610d73565b6101de6103c23660046118ea565b610d8b565b6101c16103d536600461191f565b600860209081526000928352604080842090915290825290205460ff1681565b6101c1610403366004611baf565b610e00565b61041b6104163660046118ea565b610e2e565b6040516101cd9190611bd9565b610229610436366004611a24565b610fcf565b60006001600160e01b031982166380ac58cd60e01b148061046c57506001600160e01b03198216635b5e139f60e01b145b8061048757506301ffc9a760e01b6001600160e01b03198316145b92915050565b60606000805461049c90611c42565b80601f01602080910402602001604051908101604052809291908181526020018280546104c890611c42565b80156105155780601f106104ea57610100808354040283529160200191610515565b820191906000526020600020905b8154815290600101906020018083116104f857829003601f168201915b5050505050905090565b600061052a8261100d565b506000828152600460205260409020546001600160a01b0316610487565b610553828233611046565b5050565b6001600160a01b03821661058657604051633250574960e11b8152600060048201526024015b60405180910390fd5b6000610593838333611053565b9050836001600160a01b0316816001600160a01b0316146105e1576040516364283d7b60e01b81526001600160a01b038086166004830152602482018490528216604482015260640161057d565b50505050565b6105ef61114c565b600081815260076020526040902060030154610100900460ff1661064e5760405162461bcd60e51b8152602060048201526016602482015275416368696576656d656e74206e6f742061637469766560501b604482015260640161057d565b6001600160a01b038216600090815260086020908152604080832084845290915290205460ff16156106c25760405162461bcd60e51b815260206004820152601c60248201527f416368696576656d656e7420616c726561647920756e6c6f636b656400000000604482015260640161057d565b6001600160a01b03821660009081526008602090815260408083208484529091528120805460ff19166001179055600a805490826106ff83611c92565b90915550600081815260096020526040902083905590506107208382611179565b81836001600160a01b03167f0d2905f03971dd710b34c1a52dde26e0e95c254f1b25942b22ce357c654f6dd78360405161075c91815260200190565b60405180910390a3505050565b60076020526000908152604090208054819061078490611c42565b80601f01602080910402602001604051908101604052809291908181526020018280546107b090611c42565b80156107fd5780601f106107d2576101008083540402835291602001916107fd565b820191906000526020600020905b8154815290600101906020018083116107e057829003601f168201915b50505050509080600101805461081290611c42565b80601f016020809104026020016040519081016040528092919081815260200182805461083e90611c42565b801561088b5780601f106108605761010080835404028352916020019161088b565b820191906000526020600020905b81548152906001019060200180831161086e57829003601f168201915b50505050600283015460039093015491929160ff80821692506101009091041685565b6000818152600260205260409020546060906001600160a01b031661090c5760405162461bcd60e51b8152602060048201526014602482015273151bdad95b88191bd95cc81b9bdd08195e1a5cdd60621b604482015260640161057d565b6000828152600960209081526040808320548084526007909252808320815160a0810190925280549293928290829061094490611c42565b80601f016020809104026020016040519081016040528092919081815260200182805461097090611c42565b80156109bd5780601f10610992576101008083540402835291602001916109bd565b820191906000526020600020905b8154815290600101906020018083116109a057829003601f168201915b505050505081526020016001820180546109d690611c42565b80601f0160208091040260200160405190810160405280929190818152602001828054610a0290611c42565b8015610a4f5780601f10610a2457610100808354040283529160200191610a4f565b820191906000526020600020905b815481529060010190602001808311610a3257829003601f168201915b5050509183525050600282015460208083019190915260039092015460ff8082166040840152610100909104161515606090910152815190820151919250610ac091610a9a856111de565b604051602001610aac93929190611cab565b6040516020818303038152906040526112e7565b604051602001610ad09190611d95565b60405160208183030381529060405292505050919050565b610b0383838360405180602001604052806000815250610d73565b505050565b610b1061114c565b60018310158015610b4657506001600160a01b03841660009081526008602090815260408083206001845290915290205460ff16155b15610b5657610b568460016105ef565b60018210158015610b8c57506001600160a01b03841660009081526008602090815260408083206002845290915290205460ff16155b15610b9c57610b9c8460026105ef565b808015610bce57506001600160a01b03841660009081526008602090815260408083206003845290915290205460ff16155b156105e1576105e18460036105ef565b60006104878261100d565b60006001600160a01b038216610c15576040516322718ad960e21b81526000600482015260240161057d565b506001600160a01b031660009081526003602052604090205490565b610c3961114c565b610c436000611308565b565b60606001805461049c90611c42565b6060600060015b600b54811015610ca7576001600160a01b038416600090815260086020908152604080832084845290915290205460ff1615610c9f5781610c9b81611c92565b9250505b600101610c5b565b5060008167ffffffffffffffff811115610cc357610cc3611ab5565b604051908082528060200260200182016040528015610cec578160200160208202803683370190505b509050600060015b600b54811015610d5e576001600160a01b038616600090815260086020908152604080832084845290915290205460ff1615610d565780838381518110610d3d57610d3d611dda565b602090810291909101015281610d5281611c92565b9250505b600101610cf4565b5090949350505050565b61055333838361135a565b610d7e848484610557565b6105e133858585856113f1565b6060610d968261100d565b506000610dae60408051602081019091526000815290565b90506000815111610dce5760405180602001604052806000815250610df9565b80610dd88461151c565b604051602001610de9929190611df0565b6040516020818303038152906040525b9392505050565b6001600160a01b03918216600090815260056020908152604080832093909416825291909152205460ff1690565b610e656040518060a00160405280606081526020016060815260200160008152602001600060ff1681526020016000151581525090565b60008281526007602052604090819020815160a08101909252805482908290610e8d90611c42565b80601f0160208091040260200160405190810160405280929190818152602001828054610eb990611c42565b8015610f065780601f10610edb57610100808354040283529160200191610f06565b820191906000526020600020905b815481529060010190602001808311610ee957829003601f168201915b50505050508152602001600182018054610f1f90611c42565b80601f0160208091040260200160405190810160405280929190818152602001828054610f4b90611c42565b8015610f985780601f10610f6d57610100808354040283529160200191610f98565b820191906000526020600020905b815481529060010190602001808311610f7b57829003601f168201915b50505091835250506002820154602082015260039091015460ff808216604084015261010090910416151560609091015292915050565b610fd761114c565b6001600160a01b03811661100157604051631e4fbdf760e01b81526000600482015260240161057d565b61100a81611308565b50565b6000818152600260205260408120546001600160a01b03168061048757604051637e27328960e01b81526004810184905260240161057d565b610b0383838360016115af565b6000828152600260205260408120546001600160a01b0390811690831615611080576110808184866116b5565b6001600160a01b038116156110be5761109d6000856000806115af565b6001600160a01b038116600090815260036020526040902080546000190190555b6001600160a01b038516156110ed576001600160a01b0385166000908152600360205260409020805460010190555b60008481526002602052604080822080546001600160a01b0319166001600160a01b0389811691821790925591518793918516917fddf252ad1be2c89b69c2b068fc378daa952ba7f163c4a11628f55a4df523b3ef91a4949350505050565b6006546001600160a01b03163314610c435760405163118cdaa760e01b815233600482015260240161057d565b6001600160a01b0382166111a357604051633250574960e11b81526000600482015260240161057d565b60006111b183836000611053565b90506001600160a01b03811615610b03576040516339e3563760e11b81526000600482015260240161057d565b6060816000036112055750506040805180820190915260018152600360fc1b602082015290565b8160005b811561122f578061121981611c92565b91506112289050600a83611e35565b9150611209565b60008167ffffffffffffffff81111561124a5761124a611ab5565b6040519080825280601f01601f191660200182016040528015611274576020820181803683370190505b5090505b84156112df57611289600183611e49565b9150611296600a86611e5c565b6112a1906030611e70565b60f81b8183815181106112b6576112b6611dda565b60200101906001600160f81b031916908160001a9053506112d8600a86611e35565b9450611278565b949350505050565b6060604051806060016040528060288152602001611ede6028913992915050565b600680546001600160a01b038381166001600160a01b0319831681179093556040519116919082907f8be0079c531659141344cd1fd0a4f28419497f9722a3daafe3b4186f6b6457e090600090a35050565b6001600160a01b03821661138c57604051630b61174360e31b81526001600160a01b038316600482015260240161057d565b6001600160a01b03838116600081815260056020908152604080832094871680845294825291829020805460ff191686151590811790915591519182527f17307eab39ab6107e8899845ad3d59bd9653f200f220920489ca2b5937696c31910161075c565b6001600160a01b0383163b1561151557604051630a85bd0160e11b81526001600160a01b0384169063150b7a0290611433908890889087908790600401611e83565b6020604051808303816000875af192505050801561146e575060408051601f3d908101601f1916820190925261146b91810190611ec0565b60015b6114d7573d80801561149c576040519150601f19603f3d011682016040523d82523d6000602084013e6114a1565b606091505b5080516000036114cf57604051633250574960e11b81526001600160a01b038516600482015260240161057d565b805160208201fd5b6001600160e01b03198116630a85bd0160e11b1461151357604051633250574960e11b81526001600160a01b038516600482015260240161057d565b505b5050505050565b6060600061152983611719565b600101905060008167ffffffffffffffff81111561154957611549611ab5565b6040519080825280601f01601f191660200182016040528015611573576020820181803683370190505b5090508181016020015b600019016f181899199a1a9b1b9c1cb0b131b232b360811b600a86061a8153600a850494508461157d57509392505050565b80806115c357506001600160a01b03821615155b156116855760006115d38461100d565b90506001600160a01b038316158015906115ff5750826001600160a01b0316816001600160a01b031614155b801561161257506116108184610e00565b155b1561163b5760405163a9fbf51f60e01b81526001600160a01b038416600482015260240161057d565b81156116835783856001600160a01b0316826001600160a01b03167f8c5be1e5ebec7d5bd14f71427d1e84f3dd0314c0f7b2291e5b200ac8c7c3b92560405160405180910390a45b505b5050600090815260046020526040902080546001600160a01b0319166001600160a01b0392909216919091179055565b6116c08383836117f1565b610b03576001600160a01b0383166116ee57604051637e27328960e01b81526004810182905260240161057d565b60405163177e802f60e01b81526001600160a01b03831660048201526024810182905260440161057d565b60008072184f03e93ff9f4daa797ed6e38ed64bf6a1f0160401b83106117585772184f03e93ff9f4daa797ed6e38ed64bf6a1f0160401b830492506040015b6d04ee2d6d415b85acef81000000008310611784576d04ee2d6d415b85acef8100000000830492506020015b662386f26fc1000083106117a257662386f26fc10000830492506010015b6305f5e10083106117ba576305f5e100830492506008015b61271083106117ce57612710830492506004015b606483106117e0576064830492506002015b600a83106104875760010192915050565b60006001600160a01b038316158015906112df5750826001600160a01b0316846001600160a01b0316148061182b575061182b8484610e00565b806112df5750506000908152600460205260409020546001600160a01b03908116911614919050565b6001600160e01b03198116811461100a57600080fd5b60006020828403121561187c57600080fd5b8135610df981611854565b60005b838110156118a257818101518382015260200161188a565b50506000910152565b600081518084526118c3816020860160208601611887565b601f01601f19169290920160200192915050565b602081526000610df960208301846118ab565b6000602082840312156118fc57600080fd5b5035919050565b80356001600160a01b038116811461191a57600080fd5b919050565b6000806040838503121561193257600080fd5b61193b83611903565b946020939093013593505050565b60008060006060848603121561195e57600080fd5b61196784611903565b925061197560208501611903565b929592945050506040919091013590565b60a08152600061199960a08301886118ab565b82810360208401526119ab81886118ab565b6040840196909652505060ff929092166060830152151560809091015292915050565b8035801515811461191a57600080fd5b600080600080608085870312156119f457600080fd5b6119fd85611903565b93506020850135925060408501359150611a19606086016119ce565b905092959194509250565b600060208284031215611a3657600080fd5b610df982611903565b602080825282518282018190526000918401906040840190835b81811015611a77578351835260209384019390920191600101611a59565b509095945050505050565b60008060408385031215611a9557600080fd5b611a9e83611903565b9150611aac602084016119ce565b90509250929050565b634e487b7160e01b600052604160045260246000fd5b60008060008060808587031215611ae157600080fd5b611aea85611903565b9350611af860208601611903565b925060408501359150606085013567ffffffffffffffff811115611b1b57600080fd5b8501601f81018713611b2c57600080fd5b803567ffffffffffffffff811115611b4657611b46611ab5565b604051601f8201601f19908116603f0116810167ffffffffffffffff81118282101715611b7557611b75611ab5565b604052818152828201602001891015611b8d57600080fd5b8160208401602083013760006020838301015280935050505092959194509250565b60008060408385031215611bc257600080fd5b611bcb83611903565b9150611aac60208401611903565b602081526000825160a06020840152611bf560c08401826118ab565b90506020840151601f19848303016040850152611c1282826118ab565b9150506040840151606084015260ff60608501511660808401526080840151151560a08401528091505092915050565b600181811c90821680611c5657607f821691505b602082108103611c7657634e487b7160e01b600052602260045260246000fd5b50919050565b634e487b7160e01b600052601160045260246000fd5b600060018201611ca457611ca4611c7c565b5060010190565b683d913730b6b2911d1160b91b81528351600090611cd0816009850160208901611887565b61088b60f21b6009918401918201526e113232b9b1b934b83a34b7b7111d1160891b600b8201528451611d0a81601a840160208901611887565b60098183010191505061088b60f21b60118201527f22696d616765223a2268747470733a2f2f7a657461736f6369616c66692e636f60138201526e6d2f616368696576656d656e74732f60881b60338201528351611d6f816042840160208801611887565b611d8a604283830101652e706e67227d60d01b815260060190565b979650505050505050565b7f646174613a6170706c69636174696f6e2f6a736f6e3b6261736536342c000000815260008251611dcd81601d850160208701611887565b91909101601d0192915050565b634e487b7160e01b600052603260045260246000fd5b60008351611e02818460208801611887565b835190830190611e16818360208801611887565b01949350505050565b634e487b7160e01b600052601260045260246000fd5b600082611e4457611e44611e1f565b500490565b8181038181111561048757610487611c7c565b600082611e6b57611e6b611e1f565b500690565b8082018082111561048757610487611c7c565b6001600160a01b0385811682528416602082015260408101839052608060608201819052600090611eb6908301846118ab565b9695505050505050565b600060208284031215611ed257600080fd5b8151610df98161185456fe65794a755957316c496a6f69516d467a61574d6751574e6f615756325a57316c626e516966513d3da2646970667358221220036ff0b38e0822f6de7de81c68bfd0b6ed883880cbf768ab06f2b7fec9df9daa64736f6c634300081a0033",
  "linkReferences": {},
  "deployedLinkReferences": {}
}