{
  "_format": "hh-sol-artifact-1",
  "contractName": "GUIToken",
  "sourceName": "contracts/GuiToken.sol",
  "abi": [
    {
      "inputs": [],
      "stateMutability": "nonpayable",
      "type": "constructor"
    },
    {
      "inputs": [
        {
          "internalType": "address",
          "name": "spender",
          "type": "address"
        },
        {
          "internalType": "uint256",
          "name": "allowance",
          "type": "uint256"
        },
        {
          "internalType": "uint256",
          "name": "needed",
          "type": "uint256"
        }
      ],
      "name": "ERC20InsufficientAllowance",
      "type": "error"
    },
    {
      "inputs": [
        {
          "internalType": "address",
          "name": "sender",
          "type": "address"
        },
        {
          "internalType": "uint256",
          "name": "balance",
          "type": "uint256"
        },
        {
          "internalType": "uint256",
          "name": "needed",
          "type": "uint256"
        }
      ],
      "name": "ERC20InsufficientBalance",
      "type": "error"
    },
    {
      "inputs": [
        {
          "internalType": "address",
          "name": "approver",
          "type": "address"
        }
      ],
      "name": "ERC20InvalidApprover",
      "type": "error"
    },
    {
      "inputs": [
        {
          "internalType": "address",
          "name": "receiver",
          "type": "address"
        }
      ],
      "name": "ERC20InvalidReceiver",
      "type": "error"
    },
    {
      "inputs": [
        {
          "internalType": "address",
          "name": "sender",
          "type": "address"
        }
      ],
      "name": "ERC20InvalidSender",
      "type": "error"
    },
    {
      "inputs": [
        {
          "internalType": "address",
          "name": "spender",
          "type": "address"
        }
      ],
      "name": "ERC20InvalidSpender",
      "type": "error"
    },
    {
      "inputs": [
        {
          "internalType": "address",
          "name": "owner",
          "type": "address"
        }
      ],
      "name": "OwnableInvalidOwner",
      "type": "error"
    },
    {
      "inputs": [
        {
          "internalType": "address",
          "name": "account",
          "type": "address"
        }
      ],
      "name": "OwnableUnauthorizedAccount",
      "type": "error"
    },
    {
      "anonymous": false,
      "inputs": [
        {
          "indexed": true,
          "internalType": "address",
          "name": "owner",
          "type": "address"
        },
        {
          "indexed": true,
          "internalType": "address",
          "name": "spender",
          "type": "address"
        },
        {
          "indexed": false,
          "internalType": "uint256",
          "name": "value",
          "type": "uint256"
        }
      ],
      "name": "Approval",
      "type": "event"
    },
    {
      "anonymous": false,
      "inputs": [
        {
          "indexed": true,
          "internalType": "address",
          "name": "minter",
          "type": "address"
        }
      ],
      "name": "MinterAdded",
      "type": "event"
    },
    {
      "anonymous": false,
      "inputs": [
        {
          "indexed": true,
          "internalType": "address",
          "name": "previousOwner",
          "type": "address"
        },
        {
          "indexed": true,
          "internalType": "address",
          "name": "newOwner",
          "type": "address"
        }
      ],
      "name": "OwnershipTransferred",
      "type": "event"
    },
    {
      "anonymous": false,
      "inputs": [
        {
          "indexed": true,
          "internalType": "address",
          "name": "to",
          "type": "address"
        },
        {
          "indexed": false,
          "internalType": "uint256",
          "name": "amount",
          "type": "uint256"
        }
      ],
      "name": "TokensMinted",
      "type": "event"
    },
    {
      "anonymous": false,
      "inputs": [
        {
          "indexed": true,
          "internalType": "address",
          "name": "from",
          "type": "address"
        },
        {
          "indexed": true,
          "internalType": "address",
          "name": "to",
          "type": "address"
        },
        {
          "indexed": false,
          "internalType": "uint256",
          "name": "value",
          "type": "uint256"
        }
      ],
      "name": "Transfer",
      "type": "event"
    },
    {
      "inputs": [],
      "name": "MAX_SUPPLY",
      "outputs": [
        {
          "internalType": "uint256",
          "name": "",
          "type": "uint256"
        }
      ],
      "stateMutability": "view",
      "type": "function"
    },
    {
      "inputs": [
        {
          "internalType": "address",
          "name": "minter",
          "type": "address"
        }
      ],
      "name": "addMinter",
      "outputs": [],
      "stateMutability": "nonpayable",
      "type": "function"
    },
    {
      "inputs": [
        {
          "internalType": "address",
          "name": "owner",
          "type": "address"
        },
        {
          "internalType": "address",
          "name": "spender",
          "type": "address"
        }
      ],
      "name": "allowance",
      "outputs": [
        {
          "internalType": "uint256",
          "name": "",
          "type": "uint256"
        }
      ],
      "stateMutability": "view",
      "type": "function"
    },
    {
      "inputs": [
        {
          "internalType": "address",
          "name": "spender",
          "type": "address"
        },
        {
          "internalType": "uint256",
          "name": "value",
          "type": "uint256"
        }
      ],
      "name": "approve",
      "outputs": [
        {
          "internalType": "bool",
          "name": "",
          "type": "bool"
        }
      ],
      "stateMutability": "nonpayable",
      "type": "function"
    },
    {
      "inputs": [
        {
          "internalType": "address",
          "name": "account",
          "type": "address"
        }
      ],
      "name": "balanceOf",
      "outputs": [
        {
          "internalType": "uint256",
          "name": "",
          "type": "uint256"
        }
      ],
      "stateMutability": "view",
      "type": "function"
    },
    {
      "inputs": [
        {
          "internalType": "uint256",
          "name": "amount",
          "type": "uint256"
        }
      ],
      "name": "burn",
      "outputs": [],
      "stateMutability": "nonpayable",
      "type": "function"
    },
    {
      "inputs": [],
      "name": "decimals",
      "outputs": [
        {
          "internalType": "uint8",
          "name": "",
          "type": "uint8"
        }
      ],
      "stateMutability": "view",
      "type": "function"
    },
    {
      "inputs": [
        {
          "internalType": "address",
          "name": "to",
          "type": "address"
        },
        {
          "internalType": "uint256",
          "name": "amount",
          "type": "uint256"
        }
      ],
      "name": "mint",
      "outputs": [],
      "stateMutability": "nonpayable",
      "type": "function"
    },
    {
      "inputs": [
        {
          "internalType": "address",
          "name": "",
          "type": "address"
        }
      ],
      "name": "minters",
      "outputs": [
        {
          "internalType": "bool",
          "name": "",
          "type": "bool"
        }
      ],
      "stateMutability": "view",
      "type": "function"
    },
    {
      "inputs": [],
      "name": "name",
      "outputs": [
        {
          "internalType": "string",
          "name": "",
          "type": "string"
        }
      ],
      "stateMutability": "view",
      "type": "function"
    },
    {
      "inputs": [],
      "name": "owner",
      "outputs": [
        {
          "internalType": "address",
          "name": "",
          "type": "address"
        }
      ],
      "stateMutability": "view",
      "type": "function"
    },
    {
      "inputs": [],
      "name": "renounceOwnership",
      "outputs": [],
      "stateMutability": "nonpayable",
      "type": "function"
    },
    {
      "inputs": [],
      "name": "symbol",
      "outputs": [
        {
          "internalType": "string",
          "name": "",
          "type": "string"
        }
      ],
      "stateMutability": "view",
      "type": "function"
    },
    {
      "inputs": [],
      "name": "totalSupply",
      "outputs": [
        {
          "internalType": "uint256",
          "name": "",
          "type": "uint256"
        }
      ],
      "stateMutability": "view",
      "type": "function"
    },
    {
      "inputs": [
        {
          "internalType": "address",
          "name": "to",
          "type": "address"
        },
        {
          "internalType": "uint256",
          "name": "amount",
          "type": "uint256"
        }
      ],
      "name": "transfer",
      "outputs": [
        {
          "internalType": "bool",
          "name": "",
          "type": "bool"
        }
      ],
      "stateMutability": "nonpayable",
      "type": "function"
    },
    {
      "inputs": [
        {
          "internalType": "address",
          "name": "from",
          "type": "address"
        },
        {
          "internalType": "address",
          "name": "to",
          "type": "address"
        },
        {
          "internalType": "uint256",
          "name": "value",
          "type": "uint256"
        }
      ],
      "name": "transferFrom",
      "outputs": [
        {
          "internalType": "bool",
          "name": "",
          "type": "bool"
        }
      ],
      "stateMutability": "nonpayable",
      "type": "function"
    },
    {
      "inputs": [
        {
          "internalType": "address",
          "name": "newOwner",
          "type": "address"
        }
      ],
      "name": "transferOwnership",
      "outputs": [],
      "stateMutability": "nonpayable",
      "type": "function"
    }
  ],
  "bytecode": "0x608060405234801561001057600080fd5b50336040518060400160405280601a81526020017f47616d65466920556e6976657273616c20496e746572666163650000000000008152506040518060400160405280600381526020016247554960e81b8152508160039081610073919061032b565b506004610080828261032b565b5050506001600160a01b0381166100b257604051631e4fbdf760e01b8152600060048201526024015b60405180910390fd5b6100bb816100d6565b506100d1336a52b7d2dcc80cd2e4000000610128565b610410565b600580546001600160a01b038381166001600160a01b0319831681179093556040519116919082907f8be0079c531659141344cd1fd0a4f28419497f9722a3daafe3b4186f6b6457e090600090a35050565b6001600160a01b0382166101525760405163ec442f0560e01b8152600060048201526024016100a9565b61015e60008383610162565b5050565b6001600160a01b03831661018d57806002600082825461018291906103e9565b909155506101ff9050565b6001600160a01b038316600090815260208190526040902054818110156101e05760405163391434e360e21b81526001600160a01b038516600482015260248101829052604481018390526064016100a9565b6001600160a01b03841660009081526020819052604090209082900390555b6001600160a01b03821661021b5760028054829003905561023a565b6001600160a01b03821660009081526020819052604090208054820190555b816001600160a01b0316836001600160a01b03167fddf252ad1be2c89b69c2b068fc378daa952ba7f163c4a11628f55a4df523b3ef8360405161027f91815260200190565b60405180910390a3505050565b634e487b7160e01b600052604160045260246000fd5b600181811c908216806102b657607f821691505b6020821081036102d657634e487b7160e01b600052602260045260246000fd5b50919050565b601f82111561032657806000526020600020601f840160051c810160208510156103035750805b601f840160051c820191505b81811015610323576000815560010161030f565b50505b505050565b81516001600160401b038111156103445761034461028c565b6103588161035284546102a2565b846102dc565b6020601f82116001811461038c57600083156103745750848201515b600019600385901b1c1916600184901b178455610323565b600084815260208120601f198516915b828110156103bc578785015182556020948501946001909201910161039c565b50848210156103da5786840151600019600387901b60f8161c191681555b50505050600190811b01905550565b8082018082111561040a57634e487b7160e01b600052601160045260246000fd5b92915050565b610b278061041f6000396000f3fe608060405234801561001057600080fd5b506004361061010b5760003560e01c806370a08231116100a2578063983b2d5611610071578063983b2d5614610214578063a9059cbb14610227578063dd62ed3e1461023a578063f2fde38b14610273578063f46eccc41461028657600080fd5b806370a08231146101c0578063715018a6146101e95780638da5cb5b146101f157806395d89b411461020c57600080fd5b8063313ce567116100de578063313ce5671461017657806332cb6b0c1461018557806340c10f191461019857806342966c68146101ad57600080fd5b806306fdde0314610110578063095ea7b31461012e57806318160ddd1461015157806323b872dd14610163575b600080fd5b6101186102a9565b604051610125919061095e565b60405180910390f35b61014161013c3660046109c8565b61033b565b6040519015158152602001610125565b6002545b604051908152602001610125565b6101416101713660046109f2565b610355565b60405160128152602001610125565b6101556b033b2e3c9fd0803ce800000081565b6101ab6101a63660046109c8565b610379565b005b6101ab6101bb366004610a2f565b6104a0565b6101556101ce366004610a48565b6001600160a01b031660009081526020819052604090205490565b6101ab6104ad565b6005546040516001600160a01b039091168152602001610125565b6101186104c1565b6101ab610222366004610a48565b6104d0565b6101416102353660046109c8565b610524565b610155610248366004610a63565b6001600160a01b03918216600090815260016020908152604080832093909416825291909152205490565b6101ab610281366004610a48565b610537565b610141610294366004610a48565b60066020526000908152604090205460ff1681565b6060600380546102b890610a96565b80601f01602080910402602001604051908101604052809291908181526020018280546102e490610a96565b80156103315780601f1061030657610100808354040283529160200191610331565b820191906000526020600020905b81548152906001019060200180831161031457829003601f168201915b5050505050905090565b600033610349818585610572565b60019150505b92915050565b600033610363858285610584565b61036e858585610603565b506001949350505050565b3360009081526006602052604090205460ff16806103a157506005546001600160a01b031633145b6103eb5760405162461bcd60e51b8152602060048201526016602482015275139bdd08185d5d1a1bdc9a5e9959081d1bc81b5a5b9d60521b60448201526064015b60405180910390fd5b6b033b2e3c9fd0803ce80000008161040260025490565b61040c9190610ad0565b111561044f5760405162461bcd60e51b815260206004820152601260248201527145786365656473206d617820737570706c7960701b60448201526064016103e2565b6104598282610662565b816001600160a01b03167f3f2c9d57c068687834f0de942a9babb9e5acab57d516d3480a3c16ee165a42738260405161049491815260200190565b60405180910390a25050565b6104aa338261069c565b50565b6104b56106d2565b6104bf60006106ff565b565b6060600480546102b890610a96565b6104d86106d2565b6001600160a01b038116600081815260066020526040808220805460ff19166001179055517f6ae172837ea30b801fbfcdd4108aa1d5bf8ff775444fd70256b44e6bf3dfc3f69190a250565b60006105308383610751565b9392505050565b61053f6106d2565b6001600160a01b03811661056957604051631e4fbdf760e01b8152600060048201526024016103e2565b6104aa816106ff565b61057f838383600161075f565b505050565b6001600160a01b038381166000908152600160209081526040808320938616835292905220546000198110156105fd57818110156105ee57604051637dc7a0d960e11b81526001600160a01b038416600482015260248101829052604481018390526064016103e2565b6105fd8484848403600061075f565b50505050565b6001600160a01b03831661062d57604051634b637e8f60e11b8152600060048201526024016103e2565b6001600160a01b0382166106575760405163ec442f0560e01b8152600060048201526024016103e2565b61057f838383610834565b6001600160a01b03821661068c5760405163ec442f0560e01b8152600060048201526024016103e2565b61069860008383610834565b5050565b6001600160a01b0382166106c657604051634b637e8f60e11b8152600060048201526024016103e2565b61069882600083610834565b6005546001600160a01b031633146104bf5760405163118cdaa760e01b81523360048201526024016103e2565b600580546001600160a01b038381166001600160a01b0319831681179093556040519116919082907f8be0079c531659141344cd1fd0a4f28419497f9722a3daafe3b4186f6b6457e090600090a35050565b600033610349818585610603565b6001600160a01b0384166107895760405163e602df0560e01b8152600060048201526024016103e2565b6001600160a01b0383166107b357604051634a1406b160e11b8152600060048201526024016103e2565b6001600160a01b03808516600090815260016020908152604080832093871683529290522082905580156105fd57826001600160a01b0316846001600160a01b03167f8c5be1e5ebec7d5bd14f71427d1e84f3dd0314c0f7b2291e5b200ac8c7c3b9258460405161082691815260200190565b60405180910390a350505050565b6001600160a01b03831661085f5780600260008282546108549190610ad0565b909155506108d19050565b6001600160a01b038316600090815260208190526040902054818110156108b25760405163391434e360e21b81526001600160a01b038516600482015260248101829052604481018390526064016103e2565b6001600160a01b03841660009081526020819052604090209082900390555b6001600160a01b0382166108ed5760028054829003905561090c565b6001600160a01b03821660009081526020819052604090208054820190555b816001600160a01b0316836001600160a01b03167fddf252ad1be2c89b69c2b068fc378daa952ba7f163c4a11628f55a4df523b3ef8360405161095191815260200190565b60405180910390a3505050565b602081526000825180602084015260005b8181101561098c576020818601810151604086840101520161096f565b506000604082850101526040601f19601f83011684010191505092915050565b80356001600160a01b03811681146109c357600080fd5b919050565b600080604083850312156109db57600080fd5b6109e4836109ac565b946020939093013593505050565b600080600060608486031215610a0757600080fd5b610a10846109ac565b9250610a1e602085016109ac565b929592945050506040919091013590565b600060208284031215610a4157600080fd5b5035919050565b600060208284031215610a5a57600080fd5b610530826109ac565b60008060408385031215610a7657600080fd5b610a7f836109ac565b9150610a8d602084016109ac565b90509250929050565b600181811c90821680610aaa57607f821691505b602082108103610aca57634e487b7160e01b600052602260045260246000fd5b50919050565b8082018082111561034f57634e487b7160e01b600052601160045260246000fdfea26469706673582212204744e6c2e53dfcc9a9a47f4af50008ae6902f8cba22058307035085c83f2caec64736f6c634300081a0033",
  "linkReferences": {},
  "deployedLinkReferences": {}
}